{
	"data": {
		"bytecode": {
			"linkReferences": {},
			"object": "6080604052662386f26fc1000060085560fa6009553480156200002157600080fd5b506040518060600160405280602881526020016200517c602891396200004d81620000af60201b60201c565b506000600360006101000a81548160ff0219169083151502179055506200007e6000801b33620000c460201b60201c565b6200008e620001b660201b60201c565b6001600a60006101000a81548160ff0219169083151502179055506200062d565b8060029081620000c0919062000546565b5050565b620000d68282620001df60201b60201c565b620001b25760016004600084815260200190815260200160002060000160008373ffffffffffffffffffffffffffffffffffffffff1673ffffffffffffffffffffffffffffffffffffffff16815260200190815260200160002060006101000a81548160ff021916908315150217905550620001576200024a60201b60201c565b73ffffffffffffffffffffffffffffffffffffffff168173ffffffffffffffffffffffffffffffffffffffff16837f2f8788117e7eff1d82e926ec794901d17c78024a50270940304540a733656f0d60405160405180910390a45b5050565b620001dd733cc6cdda760b79bafa08df41ecfa224f810dceb660016200025260201b60201c565b565b60006004600084815260200190815260200160002060000160008373ffffffffffffffffffffffffffffffffffffffff1673ffffffffffffffffffffffffffffffffffffffff16815260200190815260200160002060009054906101000a900460ff16905092915050565b600033905090565b637d3e3dbe8260601b60601c9250816200028157826200027957634420e486905062000281565b63a0af290390505b8060e01b60005230600452826024526004600060446000806daaeb6d7670e522a718067333cd4e5af1620002c2578060005160e01c03620002c157600080fd5b5b6000602452505050565b600081519050919050565b7f4e487b7100000000000000000000000000000000000000000000000000000000600052604160045260246000fd5b7f4e487b7100000000000000000000000000000000000000000000000000000000600052602260045260246000fd5b600060028204905060018216806200034e57607f821691505b60208210810362000364576200036362000306565b5b50919050565b60008190508160005260206000209050919050565b60006020601f8301049050919050565b600082821b905092915050565b600060088302620003ce7fffffffffffffffffffffffffffffffffffffffffffffffffffffffffffffffff826200038f565b620003da86836200038f565b95508019841693508086168417925050509392505050565b6000819050919050565b6000819050919050565b600062000427620004216200041b84620003f2565b620003fc565b620003f2565b9050919050565b6000819050919050565b620004438362000406565b6200045b62000452826200042e565b8484546200039c565b825550505050565b600090565b6200047262000463565b6200047f81848462000438565b505050565b5b81811015620004a7576200049b60008262000468565b60018101905062000485565b5050565b601f821115620004f657620004c0816200036a565b620004cb846200037f565b81016020851015620004db578190505b620004f3620004ea856200037f565b83018262000484565b50505b505050565b600082821c905092915050565b60006200051b60001984600802620004fb565b1980831691505092915050565b600062000536838362000508565b9150826002028217905092915050565b6200055182620002cc565b67ffffffffffffffff8111156200056d576200056c620002d7565b5b62000579825462000335565b62000586828285620004ab565b600060209050601f831160018114620005be5760008415620005a9578287015190505b620005b5858262000528565b86555062000625565b601f198416620005ce866200036a565b60005b82811015620005f857848901518255600182019150602085019450602081019050620005d1565b8683101562000618578489015162000614601f89168262000508565b8355505b6001600288020188555050505b505050505050565b614b3f806200063d6000396000f3fe6080604052600436106101cc5760003560e01c80635c975abb116100f7578063b7c0b8e811610095578063e985e9c511610064578063e985e9c51461068b578063f242432a146106c8578063f5298aca146106f1578063fb796e6c1461071a576101cc565b8063b7c0b8e8146105d1578063b930908f146105fa578063bd85b03914610625578063d547741f14610662576101cc565b806391d14854116100d157806391d148541461051557806395d89b4114610552578063a217fddf1461057d578063a22cb465146105a8576101cc565b80635c975abb146104a85780637d380254146104d35780638456cb59146104fe576101cc565b8063248a9ca31161016f57806336568abe1161013e57806336568abe146103ee5780633f4ba83a146104175780634e1273f41461042e5780634f558e791461046b576101cc565b8063248a9ca3146103215780632a55205a1461035e5780632eb2c2d61461039c5780632f2ff15d146103c5576101cc565b806306fdde03116101ab57806306fdde03146102745780630e89341c1461029f5780631b2ef1ca146102dc578063222a709b146102f8576101cc565b8062fdd58e146101d157806301ffc9a71461020e57806302fe53051461024b575b600080fd5b3480156101dd57600080fd5b506101f860048036038101906101f39190612dca565b610745565b6040516102059190612e19565b60405180910390f35b34801561021a57600080fd5b5061023560048036038101906102309190612e8c565b61080d565b6040516102429190612ed4565b60405180910390f35b34801561025757600080fd5b50610272600480360381019061026d9190613035565b61081f565b005b34801561028057600080fd5b50610289610839565b60405161029691906130fd565b60405180910390f35b3480156102ab57600080fd5b506102c660048036038101906102c1919061311f565b610872565b6040516102d391906130fd565b60405180910390f35b6102f660048036038101906102f1919061314c565b610906565b005b34801561030457600080fd5b5061031f600480360381019061031a919061311f565b6109d4565b005b34801561032d57600080fd5b50610348600480360381019061034391906131c2565b6109ec565b60405161035591906131fe565b60405180910390f35b34801561036a57600080fd5b506103856004803603810190610380919061314c565b610a0c565b604051610393929190613228565b60405180910390f35b3480156103a857600080fd5b506103c360048036038101906103be91906133ba565b610bf6565b005b3480156103d157600080fd5b506103ec60048036038101906103e79190613489565b610c65565b005b3480156103fa57600080fd5b5061041560048036038101906104109190613489565b610c86565b005b34801561042357600080fd5b5061042c610d09565b005b34801561043a57600080fd5b506104556004803603810190610450919061358c565b610d21565b60405161046291906136c2565b60405180910390f35b34801561047757600080fd5b50610492600480360381019061048d919061311f565b610e3a565b60405161049f9190612ed4565b60405180910390f35b3480156104b457600080fd5b506104bd610e4e565b6040516104ca9190612ed4565b60405180910390f35b3480156104df57600080fd5b506104e8610e65565b6040516104f59190612e19565b60405180910390f35b34801561050a57600080fd5b50610513610e6b565b005b34801561052157600080fd5b5061053c60048036038101906105379190613489565b610e83565b6040516105499190612ed4565b60405180910390f35b34801561055e57600080fd5b50610567610eee565b60405161057491906130fd565b60405180910390f35b34801561058957600080fd5b50610592610f27565b60405161059f91906131fe565b60405180910390f35b3480156105b457600080fd5b506105cf60048036038101906105ca9190613710565b610f2e565b005b3480156105dd57600080fd5b506105f860048036038101906105f39190613750565b610f63565b005b34801561060657600080fd5b5061060f610f8e565b60405161061c91906131fe565b60405180910390f35b34801561063157600080fd5b5061064c6004803603810190610647919061311f565b610fb2565b6040516106599190612e19565b60405180910390f35b34801561066e57600080fd5b5061068960048036038101906106849190613489565b610fcf565b005b34801561069757600080fd5b506106b260048036038101906106ad919061377d565b610ff0565b6040516106bf9190612ed4565b60405180910390f35b3480156106d457600080fd5b506106ef60048036038101906106ea91906137bd565b611084565b005b3480156106fd57600080fd5b5061071860048036038101906107139190613854565b6110f3565b005b34801561072657600080fd5b5061072f61112e565b60405161073c9190612ed4565b60405180910390f35b60008073ffffffffffffffffffffffffffffffffffffffff168373ffffffffffffffffffffffffffffffffffffffff16036107b5576040517f08c379a00000000000000000000000000000000000000000000000000000000081526004016107ac90613919565b60405180910390fd5b60008083815260200190815260200160002060008473ffffffffffffffffffffffffffffffffffffffff1673ffffffffffffffffffffffffffffffffffffffff16815260200190815260200160002054905092915050565b600061081882611141565b9050919050565b6000801b61082c816111bb565b610835826111cf565b5050565b6040518060400160405280601281526020017f547261707031454172746973744b69636b73000000000000000000000000000081525081565b60606002805461088190613968565b80601f01602080910402602001604051908101604052809291908181526020018280546108ad90613968565b80156108fa5780601f106108cf576101008083540402835291602001916108fa565b820191906000526020600020905b8154815290600101906020018083116108dd57829003601f168201915b50505050509050919050565b61090e6111e2565b8060085461091c91906139c8565b341461095d576040517f08c379a000000000000000000000000000000000000000000000000000000000815260040161095490613a56565b60405180910390fd5b6009548161096a84610fb2565b6109749190613a76565b11156109b5576040517f08c379a00000000000000000000000000000000000000000000000000000000081526004016109ac90613b1c565b60405180910390fd5b6109d03383836040518060200160405280600081525061122c565b5050565b6000801b6109e1816111bb565b816008819055505050565b600060046000838152602001908152602001600020600101549050919050565b6000806000600760008681526020019081526020016000206040518060400160405290816000820160009054906101000a900473ffffffffffffffffffffffffffffffffffffffff1673ffffffffffffffffffffffffffffffffffffffff1673ffffffffffffffffffffffffffffffffffffffff1681526020016000820160149054906101000a90046bffffffffffffffffffffffff166bffffffffffffffffffffffff166bffffffffffffffffffffffff16815250509050600073ffffffffffffffffffffffffffffffffffffffff16816000015173ffffffffffffffffffffffffffffffffffffffff1603610ba15760066040518060400160405290816000820160009054906101000a900473ffffffffffffffffffffffffffffffffffffffff1673ffffffffffffffffffffffffffffffffffffffff1673ffffffffffffffffffffffffffffffffffffffff1681526020016000820160149054906101000a90046bffffffffffffffffffffffff166bffffffffffffffffffffffff166bffffffffffffffffffffffff168152505090505b6000610bab6113dc565b6bffffffffffffffffffffffff1682602001516bffffffffffffffffffffffff1686610bd791906139c8565b610be19190613b6b565b90508160000151819350935050509250929050565b843373ffffffffffffffffffffffffffffffffffffffff168173ffffffffffffffffffffffffffffffffffffffff1614610c5057610c33336113e6565b610c4f57610c3f611432565b15610c4e57610c4d33611449565b5b5b5b610c5d868686868661148d565b505050505050565b610c6e826109ec565b610c77816111bb565b610c81838361152e565b505050565b610c8e61160f565b73ffffffffffffffffffffffffffffffffffffffff168173ffffffffffffffffffffffffffffffffffffffff1614610cfb576040517f08c379a0000000000000000000000000000000000000000000000000000000008152600401610cf290613c0e565b60405180910390fd5b610d058282611617565b5050565b6000801b610d16816111bb565b610d1e6116f9565b50565b60608151835114610d67576040517f08c379a0000000000000000000000000000000000000000000000000000000008152600401610d5e90613ca0565b60405180910390fd5b6000835167ffffffffffffffff811115610d8457610d83612f0a565b5b604051908082528060200260200182016040528015610db25781602001602082028036833780820191505090505b50905060005b8451811015610e2f57610dff858281518110610dd757610dd6613cc0565b5b6020026020010151858381518110610df257610df1613cc0565b5b6020026020010151610745565b828281518110610e1257610e11613cc0565b5b60200260200101818152505080610e2890613cef565b9050610db8565b508091505092915050565b600080610e4683610fb2565b119050919050565b6000600360009054906101000a900460ff16905090565b60085481565b6000801b610e78816111bb565b610e8061175c565b50565b60006004600084815260200190815260200160002060000160008373ffffffffffffffffffffffffffffffffffffffff1673ffffffffffffffffffffffffffffffffffffffff16815260200190815260200160002060009054906101000a900460ff16905092915050565b6040518060400160405280600581526020017f543145414b00000000000000000000000000000000000000000000000000000081525081565b6000801b81565b81610f38816113e6565b610f5457610f44611432565b15610f5357610f5281611449565b5b5b610f5e83836117bf565b505050565b6000801b610f70816111bb565b81600a60006101000a81548160ff0219169083151502179055505050565b7fe97b137254058bd94f28d2f3eb79e2d34074ffb488d042e3bc958e0a57d2fa2281565b600060056000838152602001908152602001600020549050919050565b610fd8826109ec565b610fe1816111bb565b610feb8383611617565b505050565b6000600160008473ffffffffffffffffffffffffffffffffffffffff1673ffffffffffffffffffffffffffffffffffffffff16815260200190815260200160002060008373ffffffffffffffffffffffffffffffffffffffff1673ffffffffffffffffffffffffffffffffffffffff16815260200190815260200160002060009054906101000a900460ff16905092915050565b843373ffffffffffffffffffffffffffffffffffffffff168173ffffffffffffffffffffffffffffffffffffffff16146110de576110c1336113e6565b6110dd576110cd611432565b156110dc576110db33611449565b5b5b5b6110eb86868686866117d5565b505050505050565b7fe97b137254058bd94f28d2f3eb79e2d34074ffb488d042e3bc958e0a57d2fa2261111d816111bb565b611128848484611876565b50505050565b600a60009054906101000a900460ff1681565b60007f2a55205a000000000000000000000000000000000000000000000000000000007bffffffffffffffffffffffffffffffffffffffffffffffffffffffff1916827bffffffffffffffffffffffffffffffffffffffffffffffffffffffff191614806111b457506111b382611abc565b5b9050919050565b6111cc816111c761160f565b611b36565b50565b80600290816111de9190613ee3565b5050565b6111ea610e4e565b1561122a576040517f08c379a000000000000000000000000000000000000000000000000000000000815260040161122190614001565b60405180910390fd5b565b600073ffffffffffffffffffffffffffffffffffffffff168473ffffffffffffffffffffffffffffffffffffffff160361129b576040517f08c379a000000000000000000000000000000000000000000000000000000000815260040161129290614093565b60405180910390fd5b60006112a561160f565b905060006112b285611bbb565b905060006112bf85611bbb565b90506112d083600089858589611c35565b8460008088815260200190815260200160002060008973ffffffffffffffffffffffffffffffffffffffff1673ffffffffffffffffffffffffffffffffffffffff168152602001908152602001600020600082825461132f9190613a76565b925050819055508673ffffffffffffffffffffffffffffffffffffffff16600073ffffffffffffffffffffffffffffffffffffffff168473ffffffffffffffffffffffffffffffffffffffff167fc3d58168c5ae7397731d063d5bbf3d657854427343f4c083240f7aacaa2d0f6289896040516113ad9291906140b3565b60405180910390a46113c483600089858589611c4b565b6113d383600089898989611c53565b50505050505050565b6000612710905090565b6000731e0049783f008a0085193e00003d00cd54003c7173ffffffffffffffffffffffffffffffffffffffff168273ffffffffffffffffffffffffffffffffffffffff16149050919050565b6000600a60009054906101000a900460ff16905090565b69c617113400112233445560005230601a5280603a52600080604460166daaeb6d7670e522a718067333cd4e5afa611485573d6000803e3d6000fd5b6000603a5250565b61149561160f565b73ffffffffffffffffffffffffffffffffffffffff168573ffffffffffffffffffffffffffffffffffffffff1614806114db57506114da856114d561160f565b610ff0565b5b61151a576040517f08c379a00000000000000000000000000000000000000000000000000000000081526004016115119061414e565b60405180910390fd5b6115278585858585611e2a565b5050505050565b6115388282610e83565b61160b5760016004600084815260200190815260200160002060000160008373ffffffffffffffffffffffffffffffffffffffff1673ffffffffffffffffffffffffffffffffffffffff16815260200190815260200160002060006101000a81548160ff0219169083151502179055506115b061160f565b73ffffffffffffffffffffffffffffffffffffffff168173ffffffffffffffffffffffffffffffffffffffff16837f2f8788117e7eff1d82e926ec794901d17c78024a50270940304540a733656f0d60405160405180910390a45b5050565b600033905090565b6116218282610e83565b156116f55760006004600084815260200190815260200160002060000160008373ffffffffffffffffffffffffffffffffffffffff1673ffffffffffffffffffffffffffffffffffffffff16815260200190815260200160002060006101000a81548160ff02191690831515021790555061169a61160f565b73ffffffffffffffffffffffffffffffffffffffff168173ffffffffffffffffffffffffffffffffffffffff16837ff6391f5c32d9c69d2a47ea670b442974b53935d1edc7fd64eb21e047a839171b60405160405180910390a45b5050565b61170161214b565b6000600360006101000a81548160ff0219169083151502179055507f5db9ee0a495bf2e6ff9c91a7834c1ba4fdd244a5e8aa4e537bd38aeae4b073aa61174561160f565b604051611752919061416e565b60405180910390a1565b6117646111e2565b6001600360006101000a81548160ff0219169083151502179055507f62e78cea01bee320cd4e420270b5ea74000d11b0c9f74754ebdbfc544b05a2586117a861160f565b6040516117b5919061416e565b60405180910390a1565b6117d16117ca61160f565b8383612194565b5050565b6117dd61160f565b73ffffffffffffffffffffffffffffffffffffffff168573ffffffffffffffffffffffffffffffffffffffff16148061182357506118228561181d61160f565b610ff0565b5b611862576040517f08c379a00000000000000000000000000000000000000000000000000000000081526004016118599061414e565b60405180910390fd5b61186f8585858585612300565b5050505050565b600073ffffffffffffffffffffffffffffffffffffffff168373ffffffffffffffffffffffffffffffffffffffff16036118e5576040517f08c379a00000000000000000000000000000000000000000000000000000000081526004016118dc906141fb565b60405180910390fd5b60006118ef61160f565b905060006118fc84611bbb565b9050600061190984611bbb565b905061192983876000858560405180602001604052806000815250611c35565b600080600087815260200190815260200160002060008873ffffffffffffffffffffffffffffffffffffffff1673ffffffffffffffffffffffffffffffffffffffff168152602001908152602001600020549050848110156119c0576040517f08c379a00000000000000000000000000000000000000000000000000000000081526004016119b79061428d565b60405180910390fd5b84810360008088815260200190815260200160002060008973ffffffffffffffffffffffffffffffffffffffff1673ffffffffffffffffffffffffffffffffffffffff16815260200190815260200160002081905550600073ffffffffffffffffffffffffffffffffffffffff168773ffffffffffffffffffffffffffffffffffffffff168573ffffffffffffffffffffffffffffffffffffffff167fc3d58168c5ae7397731d063d5bbf3d657854427343f4c083240f7aacaa2d0f628989604051611a8d9291906140b3565b60405180910390a4611ab384886000868660405180602001604052806000815250611c4b565b50505050505050565b60007f7965db0b000000000000000000000000000000000000000000000000000000007bffffffffffffffffffffffffffffffffffffffffffffffffffffffff1916827bffffffffffffffffffffffffffffffffffffffffffffffffffffffff19161480611b2f5750611b2e8261259b565b5b9050919050565b611b408282610e83565b611bb757611b4d8161267d565b611b5b8360001c60206126aa565b604051602001611b6c929190614381565b6040516020818303038152906040526040517f08c379a0000000000000000000000000000000000000000000000000000000008152600401611bae91906130fd565b60405180910390fd5b5050565b60606000600167ffffffffffffffff811115611bda57611bd9612f0a565b5b604051908082528060200260200182016040528015611c085781602001602082028036833780820191505090505b5090508281600081518110611c2057611c1f613cc0565b5b60200260200101818152505080915050919050565b611c438686868686866128e6565b505050505050565b505050505050565b611c728473ffffffffffffffffffffffffffffffffffffffff16612ab6565b15611e22578373ffffffffffffffffffffffffffffffffffffffff1663f23a6e6187878686866040518663ffffffff1660e01b8152600401611cb8959493929190614410565b6020604051808303816000875af1925050508015611cf457506040513d601f19601f82011682018060405250810190611cf1919061447f565b60015b611d9957611d006144b9565b806308c379a003611d5c5750611d146144db565b80611d1f5750611d5e565b806040517f08c379a0000000000000000000000000000000000000000000000000000000008152600401611d5391906130fd565b60405180910390fd5b505b6040517f08c379a0000000000000000000000000000000000000000000000000000000008152600401611d90906145dd565b60405180910390fd5b63f23a6e6160e01b7bffffffffffffffffffffffffffffffffffffffffffffffffffffffff1916817bffffffffffffffffffffffffffffffffffffffffffffffffffffffff191614611e20576040517f08c379a0000000000000000000000000000000000000000000000000000000008152600401611e179061466f565b60405180910390fd5b505b505050505050565b8151835114611e6e576040517f08c379a0000000000000000000000000000000000000000000000000000000008152600401611e6590614701565b60405180910390fd5b600073ffffffffffffffffffffffffffffffffffffffff168473ffffffffffffffffffffffffffffffffffffffff1603611edd576040517f08c379a0000000000000000000000000000000000000000000000000000000008152600401611ed490614793565b60405180910390fd5b6000611ee761160f565b9050611ef7818787878787611c35565b60005b84518110156120a8576000858281518110611f1857611f17613cc0565b5b602002602001015190506000858381518110611f3757611f36613cc0565b5b60200260200101519050600080600084815260200190815260200160002060008b73ffffffffffffffffffffffffffffffffffffffff1673ffffffffffffffffffffffffffffffffffffffff16815260200190815260200160002054905081811015611fd8576040517f08c379a0000000000000000000000000000000000000000000000000000000008152600401611fcf90614825565b60405180910390fd5b81810360008085815260200190815260200160002060008c73ffffffffffffffffffffffffffffffffffffffff1673ffffffffffffffffffffffffffffffffffffffff168152602001908152602001600020819055508160008085815260200190815260200160002060008b73ffffffffffffffffffffffffffffffffffffffff1673ffffffffffffffffffffffffffffffffffffffff168152602001908152602001600020600082825461208d9190613a76565b92505081905550505050806120a190613cef565b9050611efa565b508473ffffffffffffffffffffffffffffffffffffffff168673ffffffffffffffffffffffffffffffffffffffff168273ffffffffffffffffffffffffffffffffffffffff167f4a39dc06d4c0dbc64b70af90fd698a233a518aa5d07e595d983b8c0526c8f7fb878760405161211f929190614845565b60405180910390a4612135818787878787611c4b565b612143818787878787612ad9565b505050505050565b612153610e4e565b612192576040517f08c379a0000000000000000000000000000000000000000000000000000000008152600401612189906148c8565b60405180910390fd5b565b8173ffffffffffffffffffffffffffffffffffffffff168373ffffffffffffffffffffffffffffffffffffffff1603612202576040517f08c379a00000000000000000000000000000000000000000000000000000000081526004016121f99061495a565b60405180910390fd5b80600160008573ffffffffffffffffffffffffffffffffffffffff1673ffffffffffffffffffffffffffffffffffffffff16815260200190815260200160002060008473ffffffffffffffffffffffffffffffffffffffff1673ffffffffffffffffffffffffffffffffffffffff16815260200190815260200160002060006101000a81548160ff0219169083151502179055508173ffffffffffffffffffffffffffffffffffffffff168373ffffffffffffffffffffffffffffffffffffffff167f17307eab39ab6107e8899845ad3d59bd9653f200f220920489ca2b5937696c31836040516122f39190612ed4565b60405180910390a3505050565b600073ffffffffffffffffffffffffffffffffffffffff168473ffffffffffffffffffffffffffffffffffffffff160361236f576040517f08c379a000000000000000000000000000000000000000000000000000000000815260040161236690614793565b60405180910390fd5b600061237961160f565b9050600061238685611bbb565b9050600061239385611bbb565b90506123a3838989858589611c35565b600080600088815260200190815260200160002060008a73ffffffffffffffffffffffffffffffffffffffff1673ffffffffffffffffffffffffffffffffffffffff1681526020019081526020016000205490508581101561243a576040517f08c379a000000000000000000000000000000000000000000000000000000000815260040161243190614825565b60405180910390fd5b85810360008089815260200190815260200160002060008b73ffffffffffffffffffffffffffffffffffffffff1673ffffffffffffffffffffffffffffffffffffffff168152602001908152602001600020819055508560008089815260200190815260200160002060008a73ffffffffffffffffffffffffffffffffffffffff1673ffffffffffffffffffffffffffffffffffffffff16815260200190815260200160002060008282546124ef9190613a76565b925050819055508773ffffffffffffffffffffffffffffffffffffffff168973ffffffffffffffffffffffffffffffffffffffff168573ffffffffffffffffffffffffffffffffffffffff167fc3d58168c5ae7397731d063d5bbf3d657854427343f4c083240f7aacaa2d0f628a8a60405161256c9291906140b3565b60405180910390a4612582848a8a86868a611c4b565b612590848a8a8a8a8a611c53565b505050505050505050565b60007fd9b67a26000000000000000000000000000000000000000000000000000000007bffffffffffffffffffffffffffffffffffffffffffffffffffffffff1916827bffffffffffffffffffffffffffffffffffffffffffffffffffffffff1916148061266657507f0e89341c000000000000000000000000000000000000000000000000000000007bffffffffffffffffffffffffffffffffffffffffffffffffffffffff1916827bffffffffffffffffffffffffffffffffffffffffffffffffffffffff1916145b80612676575061267582612cb0565b5b9050919050565b60606126a38273ffffffffffffffffffffffffffffffffffffffff16601460ff166126aa565b9050919050565b6060600060028360026126bd91906139c8565b6126c79190613a76565b67ffffffffffffffff8111156126e0576126df612f0a565b5b6040519080825280601f01601f1916602001820160405280156127125781602001600182028036833780820191505090505b5090507f30000000000000000000000000000000000000000000000000000000000000008160008151811061274a57612749613cc0565b5b60200101907effffffffffffffffffffffffffffffffffffffffffffffffffffffffffffff1916908160001a9053507f7800000000000000000000000000000000000000000000000000000000000000816001815181106127ae576127ad613cc0565b5b60200101907effffffffffffffffffffffffffffffffffffffffffffffffffffffffffffff1916908160001a905350600060018460026127ee91906139c8565b6127f89190613a76565b90505b6001811115612898577f3031323334353637383961626364656600000000000000000000000000000000600f86166010811061283a57612839613cc0565b5b1a60f81b82828151811061285157612850613cc0565b5b60200101907effffffffffffffffffffffffffffffffffffffffffffffffffffffffffffff1916908160001a905350600485901c9450806128919061497a565b90506127fb565b50600084146128dc576040517f08c379a00000000000000000000000000000000000000000000000000000000081526004016128d3906149ef565b60405180910390fd5b8091505092915050565b6128f4868686868686612d1a565b600073ffffffffffffffffffffffffffffffffffffffff168573ffffffffffffffffffffffffffffffffffffffff16036129a55760005b83518110156129a35782818151811061294757612946613cc0565b5b60200260200101516005600086848151811061296657612965613cc0565b5b60200260200101518152602001908152602001600020600082825461298b9190613a76565b925050819055508061299c90613cef565b905061292b565b505b600073ffffffffffffffffffffffffffffffffffffffff168473ffffffffffffffffffffffffffffffffffffffff1603612aae5760005b8351811015612aac5760008482815181106129fa576129f9613cc0565b5b602002602001015190506000848381518110612a1957612a18613cc0565b5b6020026020010151905060006005600084815260200190815260200160002054905081811015612a7e576040517f08c379a0000000000000000000000000000000000000000000000000000000008152600401612a7590614a81565b60405180910390fd5b818103600560008581526020019081526020016000208190555050505080612aa590613cef565b90506129dc565b505b505050505050565b6000808273ffffffffffffffffffffffffffffffffffffffff163b119050919050565b612af88473ffffffffffffffffffffffffffffffffffffffff16612ab6565b15612ca8578373ffffffffffffffffffffffffffffffffffffffff1663bc197c8187878686866040518663ffffffff1660e01b8152600401612b3e959493929190614aa1565b6020604051808303816000875af1925050508015612b7a57506040513d601f19601f82011682018060405250810190612b77919061447f565b60015b612c1f57612b866144b9565b806308c379a003612be25750612b9a6144db565b80612ba55750612be4565b806040517f08c379a0000000000000000000000000000000000000000000000000000000008152600401612bd991906130fd565b60405180910390fd5b505b6040517f08c379a0000000000000000000000000000000000000000000000000000000008152600401612c16906145dd565b60405180910390fd5b63bc197c8160e01b7bffffffffffffffffffffffffffffffffffffffffffffffffffffffff1916817bffffffffffffffffffffffffffffffffffffffffffffffffffffffff191614612ca6576040517f08c379a0000000000000000000000000000000000000000000000000000000008152600401612c9d9061466f565b60405180910390fd5b505b505050505050565b60007f01ffc9a7000000000000000000000000000000000000000000000000000000007bffffffffffffffffffffffffffffffffffffffffffffffffffffffff1916827bffffffffffffffffffffffffffffffffffffffffffffffffffffffff1916149050919050565b505050505050565b6000604051905090565b600080fd5b600080fd5b600073ffffffffffffffffffffffffffffffffffffffff82169050919050565b6000612d6182612d36565b9050919050565b612d7181612d56565b8114612d7c57600080fd5b50565b600081359050612d8e81612d68565b92915050565b6000819050919050565b612da781612d94565b8114612db257600080fd5b50565b600081359050612dc481612d9e565b92915050565b60008060408385031215612de157612de0612d2c565b5b6000612def85828601612d7f565b9250506020612e0085828601612db5565b9150509250929050565b612e1381612d94565b82525050565b6000602082019050612e2e6000830184612e0a565b92915050565b60007fffffffff0000000000000000000000000000000000000000000000000000000082169050919050565b612e6981612e34565b8114612e7457600080fd5b50565b600081359050612e8681612e60565b92915050565b600060208284031215612ea257612ea1612d2c565b5b6000612eb084828501612e77565b91505092915050565b60008115159050919050565b612ece81612eb9565b82525050565b6000602082019050612ee96000830184612ec5565b92915050565b600080fd5b600080fd5b6000601f19601f8301169050919050565b7f4e487b7100000000000000000000000000000000000000000000000000000000600052604160045260246000fd5b612f4282612ef9565b810181811067ffffffffffffffff82111715612f6157612f60612f0a565b5b80604052505050565b6000612f74612d22565b9050612f808282612f39565b919050565b600067ffffffffffffffff821115612fa057612f9f612f0a565b5b612fa982612ef9565b9050602081019050919050565b82818337600083830152505050565b6000612fd8612fd384612f85565b612f6a565b905082815260208101848484011115612ff457612ff3612ef4565b5b612fff848285612fb6565b509392505050565b600082601f83011261301c5761301b612eef565b5b813561302c848260208601612fc5565b91505092915050565b60006020828403121561304b5761304a612d2c565b5b600082013567ffffffffffffffff81111561306957613068612d31565b5b61307584828501613007565b91505092915050565b600081519050919050565b600082825260208201905092915050565b60005b838110156130b857808201518184015260208101905061309d565b60008484015250505050565b60006130cf8261307e565b6130d98185613089565b93506130e981856020860161309a565b6130f281612ef9565b840191505092915050565b6000602082019050818103600083015261311781846130c4565b905092915050565b60006020828403121561313557613134612d2c565b5b600061314384828501612db5565b91505092915050565b6000806040838503121561316357613162612d2c565b5b600061317185828601612db5565b925050602061318285828601612db5565b9150509250929050565b6000819050919050565b61319f8161318c565b81146131aa57600080fd5b50565b6000813590506131bc81613196565b92915050565b6000602082840312156131d8576131d7612d2c565b5b60006131e6848285016131ad565b91505092915050565b6131f88161318c565b82525050565b600060208201905061321360008301846131ef565b92915050565b61322281612d56565b82525050565b600060408201905061323d6000830185613219565b61324a6020830184612e0a565b9392505050565b600067ffffffffffffffff82111561326c5761326b612f0a565b5b602082029050602081019050919050565b600080fd5b600061329561329084613251565b612f6a565b905080838252602082019050602084028301858111156132b8576132b761327d565b5b835b818110156132e157806132cd8882612db5565b8452602084019350506020810190506132ba565b5050509392505050565b600082601f830112613300576132ff612eef565b5b8135613310848260208601613282565b91505092915050565b600067ffffffffffffffff82111561333457613333612f0a565b5b61333d82612ef9565b9050602081019050919050565b600061335d61335884613319565b612f6a565b90508281526020810184848401111561337957613378612ef4565b5b613384848285612fb6565b509392505050565b600082601f8301126133a1576133a0612eef565b5b81356133b184826020860161334a565b91505092915050565b600080600080600060a086880312156133d6576133d5612d2c565b5b60006133e488828901612d7f565b95505060206133f588828901612d7f565b945050604086013567ffffffffffffffff81111561341657613415612d31565b5b613422888289016132eb565b935050606086013567ffffffffffffffff81111561344357613442612d31565b5b61344f888289016132eb565b925050608086013567ffffffffffffffff8111156134705761346f612d31565b5b61347c8882890161338c565b9150509295509295909350565b600080604083850312156134a05761349f612d2c565b5b60006134ae858286016131ad565b92505060206134bf85828601612d7f565b9150509250929050565b600067ffffffffffffffff8211156134e4576134e3612f0a565b5b602082029050602081019050919050565b6000613508613503846134c9565b612f6a565b9050808382526020820190506020840283018581111561352b5761352a61327d565b5b835b8181101561355457806135408882612d7f565b84526020840193505060208101905061352d565b5050509392505050565b600082601f83011261357357613572612eef565b5b81356135838482602086016134f5565b91505092915050565b600080604083850312156135a3576135a2612d2c565b5b600083013567ffffffffffffffff8111156135c1576135c0612d31565b5b6135cd8582860161355e565b925050602083013567ffffffffffffffff8111156135ee576135ed612d31565b5b6135fa858286016132eb565b9150509250929050565b600081519050919050565b600082825260208201905092915050565b6000819050602082019050919050565b61363981612d94565b82525050565b600061364b8383613630565b60208301905092915050565b6000602082019050919050565b600061366f82613604565b613679818561360f565b935061368483613620565b8060005b838110156136b557815161369c888261363f565b97506136a783613657565b925050600181019050613688565b5085935050505092915050565b600060208201905081810360008301526136dc8184613664565b905092915050565b6136ed81612eb9565b81146136f857600080fd5b50565b60008135905061370a816136e4565b92915050565b6000806040838503121561372757613726612d2c565b5b600061373585828601612d7f565b9250506020613746858286016136fb565b9150509250929050565b60006020828403121561376657613765612d2c565b5b6000613774848285016136fb565b91505092915050565b6000806040838503121561379457613793612d2c565b5b60006137a285828601612d7f565b92505060206137b385828601612d7f565b9150509250929050565b600080600080600060a086880312156137d9576137d8612d2c565b5b60006137e788828901612d7f565b95505060206137f888828901612d7f565b945050604061380988828901612db5565b935050606061381a88828901612db5565b925050608086013567ffffffffffffffff81111561383b5761383a612d31565b5b6138478882890161338c565b9150509295509295909350565b60008060006060848603121561386d5761386c612d2c565b5b600061387b86828701612d7f565b935050602061388c86828701612db5565b925050604061389d86828701612db5565b9150509250925092565b7f455243313135353a2061646472657373207a65726f206973206e6f742061207660008201527f616c6964206f776e657200000000000000000000000000000000000000000000602082015250565b6000613903602a83613089565b915061390e826138a7565b604082019050919050565b60006020820190508181036000830152613932816138f6565b9050919050565b7f4e487b7100000000000000000000000000000000000000000000000000000000600052602260045260246000fd5b6000600282049050600182168061398057607f821691505b60208210810361399357613992613939565b5b50919050565b7f4e487b7100000000000000000000000000000000000000000000000000000000600052601160045260246000fd5b60006139d382612d94565b91506139de83612d94565b92508282026139ec81612d94565b91508282048414831517613a0357613a02613999565b5b5092915050565b7f5431453a204e6f7420656e6f7567682045746865722070726f76696465642e00600082015250565b6000613a40601f83613089565b9150613a4b82613a0a565b602082019050919050565b60006020820190508181036000830152613a6f81613a33565b9050919050565b6000613a8182612d94565b9150613a8c83612d94565b9250828201905080821115613aa457613aa3613999565b5b92915050565b7f5431453a204d617820737570706c79206f6620746f6b656e732072656163686560008201527f642e000000000000000000000000000000000000000000000000000000000000602082015250565b6000613b06602283613089565b9150613b1182613aaa565b604082019050919050565b60006020820190508181036000830152613b3581613af9565b9050919050565b7f4e487b7100000000000000000000000000000000000000000000000000000000600052601260045260246000fd5b6000613b7682612d94565b9150613b8183612d94565b925082613b9157613b90613b3c565b5b828204905092915050565b7f416363657373436f6e74726f6c3a2063616e206f6e6c792072656e6f756e636560008201527f20726f6c657320666f722073656c660000000000000000000000000000000000602082015250565b6000613bf8602f83613089565b9150613c0382613b9c565b604082019050919050565b60006020820190508181036000830152613c2781613beb565b9050919050565b7f455243313135353a206163636f756e747320616e6420696473206c656e67746860008201527f206d69736d617463680000000000000000000000000000000000000000000000602082015250565b6000613c8a602983613089565b9150613c9582613c2e565b604082019050919050565b60006020820190508181036000830152613cb981613c7d565b9050919050565b7f4e487b7100000000000000000000000000000000000000000000000000000000600052603260045260246000fd5b6000613cfa82612d94565b91507fffffffffffffffffffffffffffffffffffffffffffffffffffffffffffffffff8203613d2c57613d2b613999565b5b600182019050919050565b60008190508160005260206000209050919050565b60006020601f8301049050919050565b600082821b905092915050565b600060088302613d997fffffffffffffffffffffffffffffffffffffffffffffffffffffffffffffffff82613d5c565b613da38683613d5c565b95508019841693508086168417925050509392505050565b6000819050919050565b6000613de0613ddb613dd684612d94565b613dbb565b612d94565b9050919050565b6000819050919050565b613dfa83613dc5565b613e0e613e0682613de7565b848454613d69565b825550505050565b600090565b613e23613e16565b613e2e818484613df1565b505050565b5b81811015613e5257613e47600082613e1b565b600181019050613e34565b5050565b601f821115613e9757613e6881613d37565b613e7184613d4c565b81016020851015613e80578190505b613e94613e8c85613d4c565b830182613e33565b50505b505050565b600082821c905092915050565b6000613eba60001984600802613e9c565b1980831691505092915050565b6000613ed38383613ea9565b9150826002028217905092915050565b613eec8261307e565b67ffffffffffffffff811115613f0557613f04612f0a565b5b613f0f8254613968565b613f1a828285613e56565b600060209050601f831160018114613f4d5760008415613f3b578287015190505b613f458582613ec7565b865550613fad565b601f198416613f5b86613d37565b60005b82811015613f8357848901518255600182019150602085019450602081019050613f5e565b86831015613fa05784890151613f9c601f891682613ea9565b8355505b6001600288020188555050505b505050505050565b7f5061757361626c653a2070617573656400000000000000000000000000000000600082015250565b6000613feb601083613089565b9150613ff682613fb5565b602082019050919050565b6000602082019050818103600083015261401a81613fde565b9050919050565b7f455243313135353a206d696e7420746f20746865207a65726f2061646472657360008201527f7300000000000000000000000000000000000000000000000000000000000000602082015250565b600061407d602183613089565b915061408882614021565b604082019050919050565b600060208201905081810360008301526140ac81614070565b9050919050565b60006040820190506140c86000830185612e0a565b6140d56020830184612e0a565b9392505050565b7f455243313135353a2063616c6c6572206973206e6f7420746f6b656e206f776e60008201527f6572206f7220617070726f766564000000000000000000000000000000000000602082015250565b6000614138602e83613089565b9150614143826140dc565b604082019050919050565b600060208201905081810360008301526141678161412b565b9050919050565b60006020820190506141836000830184613219565b92915050565b7f455243313135353a206275726e2066726f6d20746865207a65726f206164647260008201527f6573730000000000000000000000000000000000000000000000000000000000602082015250565b60006141e5602383613089565b91506141f082614189565b604082019050919050565b60006020820190508181036000830152614214816141d8565b9050919050565b7f455243313135353a206275726e20616d6f756e7420657863656564732062616c60008201527f616e636500000000000000000000000000000000000000000000000000000000602082015250565b6000614277602483613089565b91506142828261421b565b604082019050919050565b600060208201905081810360008301526142a68161426a565b9050919050565b600081905092915050565b7f416363657373436f6e74726f6c3a206163636f756e7420000000000000000000600082015250565b60006142ee6017836142ad565b91506142f9826142b8565b601782019050919050565b600061430f8261307e565b61431981856142ad565b935061432981856020860161309a565b80840191505092915050565b7f206973206d697373696e6720726f6c6520000000000000000000000000000000600082015250565b600061436b6011836142ad565b915061437682614335565b601182019050919050565b600061438c826142e1565b91506143988285614304565b91506143a38261435e565b91506143af8284614304565b91508190509392505050565b600081519050919050565b600082825260208201905092915050565b60006143e2826143bb565b6143ec81856143c6565b93506143fc81856020860161309a565b61440581612ef9565b840191505092915050565b600060a0820190506144256000830188613219565b6144326020830187613219565b61443f6040830186612e0a565b61444c6060830185612e0a565b818103608083015261445e81846143d7565b90509695505050505050565b60008151905061447981612e60565b92915050565b60006020828403121561449557614494612d2c565b5b60006144a38482850161446a565b91505092915050565b60008160e01c9050919050565b600060033d11156144d85760046000803e6144d56000516144ac565b90505b90565b600060443d10614568576144ed612d22565b60043d036004823e80513d602482011167ffffffffffffffff82111715614515575050614568565b808201805167ffffffffffffffff8111156145335750505050614568565b80602083010160043d038501811115614550575050505050614568565b61455f82602001850186612f39565b82955050505050505b90565b7f455243313135353a207472616e7366657220746f206e6f6e2d4552433131353560008201527f526563656976657220696d706c656d656e746572000000000000000000000000602082015250565b60006145c7603483613089565b91506145d28261456b565b604082019050919050565b600060208201905081810360008301526145f6816145ba565b9050919050565b7f455243313135353a204552433131353552656365697665722072656a6563746560008201527f6420746f6b656e73000000000000000000000000000000000000000000000000602082015250565b6000614659602883613089565b9150614664826145fd565b604082019050919050565b600060208201905081810360008301526146888161464c565b9050919050565b7f455243313135353a2069647320616e6420616d6f756e7473206c656e6774682060008201527f6d69736d61746368000000000000000000000000000000000000000000000000602082015250565b60006146eb602883613089565b91506146f68261468f565b604082019050919050565b6000602082019050818103600083015261471a816146de565b9050919050565b7f455243313135353a207472616e7366657220746f20746865207a65726f20616460008201527f6472657373000000000000000000000000000000000000000000000000000000602082015250565b600061477d602583613089565b915061478882614721565b604082019050919050565b600060208201905081810360008301526147ac81614770565b9050919050565b7f455243313135353a20696e73756666696369656e742062616c616e636520666f60008201527f72207472616e7366657200000000000000000000000000000000000000000000602082015250565b600061480f602a83613089565b915061481a826147b3565b604082019050919050565b6000602082019050818103600083015261483e81614802565b9050919050565b6000604082019050818103600083015261485f8185613664565b905081810360208301526148738184613664565b90509392505050565b7f5061757361626c653a206e6f7420706175736564000000000000000000000000600082015250565b60006148b2601483613089565b91506148bd8261487c565b602082019050919050565b600060208201905081810360008301526148e1816148a5565b9050919050565b7f455243313135353a2073657474696e6720617070726f76616c2073746174757360008201527f20666f722073656c660000000000000000000000000000000000000000000000602082015250565b6000614944602983613089565b915061494f826148e8565b604082019050919050565b6000602082019050818103600083015261497381614937565b9050919050565b600061498582612d94565b91506000820361499857614997613999565b5b600182039050919050565b7f537472696e67733a20686578206c656e67746820696e73756666696369656e74600082015250565b60006149d9602083613089565b91506149e4826149a3565b602082019050919050565b60006020820190508181036000830152614a08816149cc565b9050919050565b7f455243313135353a206275726e20616d6f756e74206578636565647320746f7460008201527f616c537570706c79000000000000000000000000000000000000000000000000602082015250565b6000614a6b602883613089565b9150614a7682614a0f565b604082019050919050565b60006020820190508181036000830152614a9a81614a5e565b9050919050565b600060a082019050614ab66000830188613219565b614ac36020830187613219565b8181036040830152614ad58186613664565b90508181036060830152614ae98185613664565b90508181036080830152614afd81846143d7565b9050969550505050505056fea2646970667358221220346430230de299515bbd2ca2d5020c8d0e1950e7213bd95c331ff17adc0d6dcf64736f6c6343000813003368747470733a2f2f747261707031652e636f6d2f6e66742f6172746973742f7b69647d2e6a736f6e",
			"opcodes": "PUSH1 0x80 PUSH1 0x40 MSTORE PUSH7 0x2386F26FC10000 PUSH1 0x8 SSTORE PUSH1 0xFA PUSH1 0x9 SSTORE CALLVALUE DUP1 ISZERO PUSH3 0x21 JUMPI PUSH1 0x0 DUP1 REVERT JUMPDEST POP PUSH1 0x40 MLOAD DUP1 PUSH1 0x60 ADD PUSH1 0x40 MSTORE DUP1 PUSH1 0x28 DUP2 MSTORE PUSH1 0x20 ADD PUSH3 0x517C PUSH1 0x28 SWAP2 CODECOPY PUSH3 0x4D DUP2 PUSH3 0xAF PUSH1 0x20 SHL PUSH1 0x20 SHR JUMP JUMPDEST POP PUSH1 0x0 PUSH1 0x3 PUSH1 0x0 PUSH2 0x100 EXP DUP2 SLOAD DUP2 PUSH1 0xFF MUL NOT AND SWAP1 DUP4 ISZERO ISZERO MUL OR SWAP1 SSTORE POP PUSH3 0x7E PUSH1 0x0 DUP1 SHL CALLER PUSH3 0xC4 PUSH1 0x20 SHL PUSH1 0x20 SHR JUMP JUMPDEST PUSH3 0x8E PUSH3 0x1B6 PUSH1 0x20 SHL PUSH1 0x20 SHR JUMP JUMPDEST PUSH1 0x1 PUSH1 0xA PUSH1 0x0 PUSH2 0x100 EXP DUP2 SLOAD DUP2 PUSH1 0xFF MUL NOT AND SWAP1 DUP4 ISZERO ISZERO MUL OR SWAP1 SSTORE POP PUSH3 0x62D JUMP JUMPDEST DUP1 PUSH1 0x2 SWAP1 DUP2 PUSH3 0xC0 SWAP2 SWAP1 PUSH3 0x546 JUMP JUMPDEST POP POP JUMP JUMPDEST PUSH3 0xD6 DUP3 DUP3 PUSH3 0x1DF PUSH1 0x20 SHL PUSH1 0x20 SHR JUMP JUMPDEST PUSH3 0x1B2 JUMPI PUSH1 0x1 PUSH1 0x4 PUSH1 0x0 DUP5 DUP2 MSTORE PUSH1 0x20 ADD SWAP1 DUP2 MSTORE PUSH1 0x20 ADD PUSH1 0x0 KECCAK256 PUSH1 0x0 ADD PUSH1 0x0 DUP4 PUSH20 0xFFFFFFFFFFFFFFFFFFFFFFFFFFFFFFFFFFFFFFFF AND PUSH20 0xFFFFFFFFFFFFFFFFFFFFFFFFFFFFFFFFFFFFFFFF AND DUP2 MSTORE PUSH1 0x20 ADD SWAP1 DUP2 MSTORE PUSH1 0x20 ADD PUSH1 0x0 KECCAK256 PUSH1 0x0 PUSH2 0x100 EXP DUP2 SLOAD DUP2 PUSH1 0xFF MUL NOT AND SWAP1 DUP4 ISZERO ISZERO MUL OR SWAP1 SSTORE POP PUSH3 0x157 PUSH3 0x24A PUSH1 0x20 SHL PUSH1 0x20 SHR JUMP JUMPDEST PUSH20 0xFFFFFFFFFFFFFFFFFFFFFFFFFFFFFFFFFFFFFFFF AND DUP2 PUSH20 0xFFFFFFFFFFFFFFFFFFFFFFFFFFFFFFFFFFFFFFFF AND DUP4 PUSH32 0x2F8788117E7EFF1D82E926EC794901D17C78024A50270940304540A733656F0D PUSH1 0x40 MLOAD PUSH1 0x40 MLOAD DUP1 SWAP2 SUB SWAP1 LOG4 JUMPDEST POP POP JUMP JUMPDEST PUSH3 0x1DD PUSH20 0x3CC6CDDA760B79BAFA08DF41ECFA224F810DCEB6 PUSH1 0x1 PUSH3 0x252 PUSH1 0x20 SHL PUSH1 0x20 SHR JUMP JUMPDEST JUMP JUMPDEST PUSH1 0x0 PUSH1 0x4 PUSH1 0x0 DUP5 DUP2 MSTORE PUSH1 0x20 ADD SWAP1 DUP2 MSTORE PUSH1 0x20 ADD PUSH1 0x0 KECCAK256 PUSH1 0x0 ADD PUSH1 0x0 DUP4 PUSH20 0xFFFFFFFFFFFFFFFFFFFFFFFFFFFFFFFFFFFFFFFF AND PUSH20 0xFFFFFFFFFFFFFFFFFFFFFFFFFFFFFFFFFFFFFFFF AND DUP2 MSTORE PUSH1 0x20 ADD SWAP1 DUP2 MSTORE PUSH1 0x20 ADD PUSH1 0x0 KECCAK256 PUSH1 0x0 SWAP1 SLOAD SWAP1 PUSH2 0x100 EXP SWAP1 DIV PUSH1 0xFF AND SWAP1 POP SWAP3 SWAP2 POP POP JUMP JUMPDEST PUSH1 0x0 CALLER SWAP1 POP SWAP1 JUMP JUMPDEST PUSH4 0x7D3E3DBE DUP3 PUSH1 0x60 SHL PUSH1 0x60 SHR SWAP3 POP DUP2 PUSH3 0x281 JUMPI DUP3 PUSH3 0x279 JUMPI PUSH4 0x4420E486 SWAP1 POP PUSH3 0x281 JUMP JUMPDEST PUSH4 0xA0AF2903 SWAP1 POP JUMPDEST DUP1 PUSH1 0xE0 SHL PUSH1 0x0 MSTORE ADDRESS PUSH1 0x4 MSTORE DUP3 PUSH1 0x24 MSTORE PUSH1 0x4 PUSH1 0x0 PUSH1 0x44 PUSH1 0x0 DUP1 PUSH14 0xAAEB6D7670E522A718067333CD4E GAS CALL PUSH3 0x2C2 JUMPI DUP1 PUSH1 0x0 MLOAD PUSH1 0xE0 SHR SUB PUSH3 0x2C1 JUMPI PUSH1 0x0 DUP1 REVERT JUMPDEST JUMPDEST PUSH1 0x0 PUSH1 0x24 MSTORE POP POP POP JUMP JUMPDEST PUSH1 0x0 DUP2 MLOAD SWAP1 POP SWAP2 SWAP1 POP JUMP JUMPDEST PUSH32 0x4E487B7100000000000000000000000000000000000000000000000000000000 PUSH1 0x0 MSTORE PUSH1 0x41 PUSH1 0x4 MSTORE PUSH1 0x24 PUSH1 0x0 REVERT JUMPDEST PUSH32 0x4E487B7100000000000000000000000000000000000000000000000000000000 PUSH1 0x0 MSTORE PUSH1 0x22 PUSH1 0x4 MSTORE PUSH1 0x24 PUSH1 0x0 REVERT JUMPDEST PUSH1 0x0 PUSH1 0x2 DUP3 DIV SWAP1 POP PUSH1 0x1 DUP3 AND DUP1 PUSH3 0x34E JUMPI PUSH1 0x7F DUP3 AND SWAP2 POP JUMPDEST PUSH1 0x20 DUP3 LT DUP2 SUB PUSH3 0x364 JUMPI PUSH3 0x363 PUSH3 0x306 JUMP JUMPDEST JUMPDEST POP SWAP2 SWAP1 POP JUMP JUMPDEST PUSH1 0x0 DUP2 SWAP1 POP DUP2 PUSH1 0x0 MSTORE PUSH1 0x20 PUSH1 0x0 KECCAK256 SWAP1 POP SWAP2 SWAP1 POP JUMP JUMPDEST PUSH1 0x0 PUSH1 0x20 PUSH1 0x1F DUP4 ADD DIV SWAP1 POP SWAP2 SWAP1 POP JUMP JUMPDEST PUSH1 0x0 DUP3 DUP3 SHL SWAP1 POP SWAP3 SWAP2 POP POP JUMP JUMPDEST PUSH1 0x0 PUSH1 0x8 DUP4 MUL PUSH3 0x3CE PUSH32 0xFFFFFFFFFFFFFFFFFFFFFFFFFFFFFFFFFFFFFFFFFFFFFFFFFFFFFFFFFFFFFFFF DUP3 PUSH3 0x38F JUMP JUMPDEST PUSH3 0x3DA DUP7 DUP4 PUSH3 0x38F JUMP JUMPDEST SWAP6 POP DUP1 NOT DUP5 AND SWAP4 POP DUP1 DUP7 AND DUP5 OR SWAP3 POP POP POP SWAP4 SWAP3 POP POP POP JUMP JUMPDEST PUSH1 0x0 DUP2 SWAP1 POP SWAP2 SWAP1 POP JUMP JUMPDEST PUSH1 0x0 DUP2 SWAP1 POP SWAP2 SWAP1 POP JUMP JUMPDEST PUSH1 0x0 PUSH3 0x427 PUSH3 0x421 PUSH3 0x41B DUP5 PUSH3 0x3F2 JUMP JUMPDEST PUSH3 0x3FC JUMP JUMPDEST PUSH3 0x3F2 JUMP JUMPDEST SWAP1 POP SWAP2 SWAP1 POP JUMP JUMPDEST PUSH1 0x0 DUP2 SWAP1 POP SWAP2 SWAP1 POP JUMP JUMPDEST PUSH3 0x443 DUP4 PUSH3 0x406 JUMP JUMPDEST PUSH3 0x45B PUSH3 0x452 DUP3 PUSH3 0x42E JUMP JUMPDEST DUP5 DUP5 SLOAD PUSH3 0x39C JUMP JUMPDEST DUP3 SSTORE POP POP POP POP JUMP JUMPDEST PUSH1 0x0 SWAP1 JUMP JUMPDEST PUSH3 0x472 PUSH3 0x463 JUMP JUMPDEST PUSH3 0x47F DUP2 DUP5 DUP5 PUSH3 0x438 JUMP JUMPDEST POP POP POP JUMP JUMPDEST JUMPDEST DUP2 DUP2 LT ISZERO PUSH3 0x4A7 JUMPI PUSH3 0x49B PUSH1 0x0 DUP3 PUSH3 0x468 JUMP JUMPDEST PUSH1 0x1 DUP2 ADD SWAP1 POP PUSH3 0x485 JUMP JUMPDEST POP POP JUMP JUMPDEST PUSH1 0x1F DUP3 GT ISZERO PUSH3 0x4F6 JUMPI PUSH3 0x4C0 DUP2 PUSH3 0x36A JUMP JUMPDEST PUSH3 0x4CB DUP5 PUSH3 0x37F JUMP JUMPDEST DUP2 ADD PUSH1 0x20 DUP6 LT ISZERO PUSH3 0x4DB JUMPI DUP2 SWAP1 POP JUMPDEST PUSH3 0x4F3 PUSH3 0x4EA DUP6 PUSH3 0x37F JUMP JUMPDEST DUP4 ADD DUP3 PUSH3 0x484 JUMP JUMPDEST POP POP JUMPDEST POP POP POP JUMP JUMPDEST PUSH1 0x0 DUP3 DUP3 SHR SWAP1 POP SWAP3 SWAP2 POP POP JUMP JUMPDEST PUSH1 0x0 PUSH3 0x51B PUSH1 0x0 NOT DUP5 PUSH1 0x8 MUL PUSH3 0x4FB JUMP JUMPDEST NOT DUP1 DUP4 AND SWAP2 POP POP SWAP3 SWAP2 POP POP JUMP JUMPDEST PUSH1 0x0 PUSH3 0x536 DUP4 DUP4 PUSH3 0x508 JUMP JUMPDEST SWAP2 POP DUP3 PUSH1 0x2 MUL DUP3 OR SWAP1 POP SWAP3 SWAP2 POP POP JUMP JUMPDEST PUSH3 0x551 DUP3 PUSH3 0x2CC JUMP JUMPDEST PUSH8 0xFFFFFFFFFFFFFFFF DUP2 GT ISZERO PUSH3 0x56D JUMPI PUSH3 0x56C PUSH3 0x2D7 JUMP JUMPDEST JUMPDEST PUSH3 0x579 DUP3 SLOAD PUSH3 0x335 JUMP JUMPDEST PUSH3 0x586 DUP3 DUP3 DUP6 PUSH3 0x4AB JUMP JUMPDEST PUSH1 0x0 PUSH1 0x20 SWAP1 POP PUSH1 0x1F DUP4 GT PUSH1 0x1 DUP2 EQ PUSH3 0x5BE JUMPI PUSH1 0x0 DUP5 ISZERO PUSH3 0x5A9 JUMPI DUP3 DUP8 ADD MLOAD SWAP1 POP JUMPDEST PUSH3 0x5B5 DUP6 DUP3 PUSH3 0x528 JUMP JUMPDEST DUP7 SSTORE POP PUSH3 0x625 JUMP JUMPDEST PUSH1 0x1F NOT DUP5 AND PUSH3 0x5CE DUP7 PUSH3 0x36A JUMP JUMPDEST PUSH1 0x0 JUMPDEST DUP3 DUP2 LT ISZERO PUSH3 0x5F8 JUMPI DUP5 DUP10 ADD MLOAD DUP3 SSTORE PUSH1 0x1 DUP3 ADD SWAP2 POP PUSH1 0x20 DUP6 ADD SWAP5 POP PUSH1 0x20 DUP2 ADD SWAP1 POP PUSH3 0x5D1 JUMP JUMPDEST DUP7 DUP4 LT ISZERO PUSH3 0x618 JUMPI DUP5 DUP10 ADD MLOAD PUSH3 0x614 PUSH1 0x1F DUP10 AND DUP3 PUSH3 0x508 JUMP JUMPDEST DUP4 SSTORE POP JUMPDEST PUSH1 0x1 PUSH1 0x2 DUP9 MUL ADD DUP9 SSTORE POP POP POP JUMPDEST POP POP POP POP POP POP JUMP JUMPDEST PUSH2 0x4B3F DUP1 PUSH3 0x63D PUSH1 0x0 CODECOPY PUSH1 0x0 RETURN INVALID PUSH1 0x80 PUSH1 0x40 MSTORE PUSH1 0x4 CALLDATASIZE LT PUSH2 0x1CC JUMPI PUSH1 0x0 CALLDATALOAD PUSH1 0xE0 SHR DUP1 PUSH4 0x5C975ABB GT PUSH2 0xF7 JUMPI DUP1 PUSH4 0xB7C0B8E8 GT PUSH2 0x95 JUMPI DUP1 PUSH4 0xE985E9C5 GT PUSH2 0x64 JUMPI DUP1 PUSH4 0xE985E9C5 EQ PUSH2 0x68B JUMPI DUP1 PUSH4 0xF242432A EQ PUSH2 0x6C8 JUMPI DUP1 PUSH4 0xF5298ACA EQ PUSH2 0x6F1 JUMPI DUP1 PUSH4 0xFB796E6C EQ PUSH2 0x71A JUMPI PUSH2 0x1CC JUMP JUMPDEST DUP1 PUSH4 0xB7C0B8E8 EQ PUSH2 0x5D1 JUMPI DUP1 PUSH4 0xB930908F EQ PUSH2 0x5FA JUMPI DUP1 PUSH4 0xBD85B039 EQ PUSH2 0x625 JUMPI DUP1 PUSH4 0xD547741F EQ PUSH2 0x662 JUMPI PUSH2 0x1CC JUMP JUMPDEST DUP1 PUSH4 0x91D14854 GT PUSH2 0xD1 JUMPI DUP1 PUSH4 0x91D14854 EQ PUSH2 0x515 JUMPI DUP1 PUSH4 0x95D89B41 EQ PUSH2 0x552 JUMPI DUP1 PUSH4 0xA217FDDF EQ PUSH2 0x57D JUMPI DUP1 PUSH4 0xA22CB465 EQ PUSH2 0x5A8 JUMPI PUSH2 0x1CC JUMP JUMPDEST DUP1 PUSH4 0x5C975ABB EQ PUSH2 0x4A8 JUMPI DUP1 PUSH4 0x7D380254 EQ PUSH2 0x4D3 JUMPI DUP1 PUSH4 0x8456CB59 EQ PUSH2 0x4FE JUMPI PUSH2 0x1CC JUMP JUMPDEST DUP1 PUSH4 0x248A9CA3 GT PUSH2 0x16F JUMPI DUP1 PUSH4 0x36568ABE GT PUSH2 0x13E JUMPI DUP1 PUSH4 0x36568ABE EQ PUSH2 0x3EE JUMPI DUP1 PUSH4 0x3F4BA83A EQ PUSH2 0x417 JUMPI DUP1 PUSH4 0x4E1273F4 EQ PUSH2 0x42E JUMPI DUP1 PUSH4 0x4F558E79 EQ PUSH2 0x46B JUMPI PUSH2 0x1CC JUMP JUMPDEST DUP1 PUSH4 0x248A9CA3 EQ PUSH2 0x321 JUMPI DUP1 PUSH4 0x2A55205A EQ PUSH2 0x35E JUMPI DUP1 PUSH4 0x2EB2C2D6 EQ PUSH2 0x39C JUMPI DUP1 PUSH4 0x2F2FF15D EQ PUSH2 0x3C5 JUMPI PUSH2 0x1CC JUMP JUMPDEST DUP1 PUSH4 0x6FDDE03 GT PUSH2 0x1AB JUMPI DUP1 PUSH4 0x6FDDE03 EQ PUSH2 0x274 JUMPI DUP1 PUSH4 0xE89341C EQ PUSH2 0x29F JUMPI DUP1 PUSH4 0x1B2EF1CA EQ PUSH2 0x2DC JUMPI DUP1 PUSH4 0x222A709B EQ PUSH2 0x2F8 JUMPI PUSH2 0x1CC JUMP JUMPDEST DUP1 PUSH3 0xFDD58E EQ PUSH2 0x1D1 JUMPI DUP1 PUSH4 0x1FFC9A7 EQ PUSH2 0x20E JUMPI DUP1 PUSH4 0x2FE5305 EQ PUSH2 0x24B JUMPI JUMPDEST PUSH1 0x0 DUP1 REVERT JUMPDEST CALLVALUE DUP1 ISZERO PUSH2 0x1DD JUMPI PUSH1 0x0 DUP1 REVERT JUMPDEST POP PUSH2 0x1F8 PUSH1 0x4 DUP1 CALLDATASIZE SUB DUP2 ADD SWAP1 PUSH2 0x1F3 SWAP2 SWAP1 PUSH2 0x2DCA JUMP JUMPDEST PUSH2 0x745 JUMP JUMPDEST PUSH1 0x40 MLOAD PUSH2 0x205 SWAP2 SWAP1 PUSH2 0x2E19 JUMP JUMPDEST PUSH1 0x40 MLOAD DUP1 SWAP2 SUB SWAP1 RETURN JUMPDEST CALLVALUE DUP1 ISZERO PUSH2 0x21A JUMPI PUSH1 0x0 DUP1 REVERT JUMPDEST POP PUSH2 0x235 PUSH1 0x4 DUP1 CALLDATASIZE SUB DUP2 ADD SWAP1 PUSH2 0x230 SWAP2 SWAP1 PUSH2 0x2E8C JUMP JUMPDEST PUSH2 0x80D JUMP JUMPDEST PUSH1 0x40 MLOAD PUSH2 0x242 SWAP2 SWAP1 PUSH2 0x2ED4 JUMP JUMPDEST PUSH1 0x40 MLOAD DUP1 SWAP2 SUB SWAP1 RETURN JUMPDEST CALLVALUE DUP1 ISZERO PUSH2 0x257 JUMPI PUSH1 0x0 DUP1 REVERT JUMPDEST POP PUSH2 0x272 PUSH1 0x4 DUP1 CALLDATASIZE SUB DUP2 ADD SWAP1 PUSH2 0x26D SWAP2 SWAP1 PUSH2 0x3035 JUMP JUMPDEST PUSH2 0x81F JUMP JUMPDEST STOP JUMPDEST CALLVALUE DUP1 ISZERO PUSH2 0x280 JUMPI PUSH1 0x0 DUP1 REVERT JUMPDEST POP PUSH2 0x289 PUSH2 0x839 JUMP JUMPDEST PUSH1 0x40 MLOAD PUSH2 0x296 SWAP2 SWAP1 PUSH2 0x30FD JUMP JUMPDEST PUSH1 0x40 MLOAD DUP1 SWAP2 SUB SWAP1 RETURN JUMPDEST CALLVALUE DUP1 ISZERO PUSH2 0x2AB JUMPI PUSH1 0x0 DUP1 REVERT JUMPDEST POP PUSH2 0x2C6 PUSH1 0x4 DUP1 CALLDATASIZE SUB DUP2 ADD SWAP1 PUSH2 0x2C1 SWAP2 SWAP1 PUSH2 0x311F JUMP JUMPDEST PUSH2 0x872 JUMP JUMPDEST PUSH1 0x40 MLOAD PUSH2 0x2D3 SWAP2 SWAP1 PUSH2 0x30FD JUMP JUMPDEST PUSH1 0x40 MLOAD DUP1 SWAP2 SUB SWAP1 RETURN JUMPDEST PUSH2 0x2F6 PUSH1 0x4 DUP1 CALLDATASIZE SUB DUP2 ADD SWAP1 PUSH2 0x2F1 SWAP2 SWAP1 PUSH2 0x314C JUMP JUMPDEST PUSH2 0x906 JUMP JUMPDEST STOP JUMPDEST CALLVALUE DUP1 ISZERO PUSH2 0x304 JUMPI PUSH1 0x0 DUP1 REVERT JUMPDEST POP PUSH2 0x31F PUSH1 0x4 DUP1 CALLDATASIZE SUB DUP2 ADD SWAP1 PUSH2 0x31A SWAP2 SWAP1 PUSH2 0x311F JUMP JUMPDEST PUSH2 0x9D4 JUMP JUMPDEST STOP JUMPDEST CALLVALUE DUP1 ISZERO PUSH2 0x32D JUMPI PUSH1 0x0 DUP1 REVERT JUMPDEST POP PUSH2 0x348 PUSH1 0x4 DUP1 CALLDATASIZE SUB DUP2 ADD SWAP1 PUSH2 0x343 SWAP2 SWAP1 PUSH2 0x31C2 JUMP JUMPDEST PUSH2 0x9EC JUMP JUMPDEST PUSH1 0x40 MLOAD PUSH2 0x355 SWAP2 SWAP1 PUSH2 0x31FE JUMP JUMPDEST PUSH1 0x40 MLOAD DUP1 SWAP2 SUB SWAP1 RETURN JUMPDEST CALLVALUE DUP1 ISZERO PUSH2 0x36A JUMPI PUSH1 0x0 DUP1 REVERT JUMPDEST POP PUSH2 0x385 PUSH1 0x4 DUP1 CALLDATASIZE SUB DUP2 ADD SWAP1 PUSH2 0x380 SWAP2 SWAP1 PUSH2 0x314C JUMP JUMPDEST PUSH2 0xA0C JUMP JUMPDEST PUSH1 0x40 MLOAD PUSH2 0x393 SWAP3 SWAP2 SWAP1 PUSH2 0x3228 JUMP JUMPDEST PUSH1 0x40 MLOAD DUP1 SWAP2 SUB SWAP1 RETURN JUMPDEST CALLVALUE DUP1 ISZERO PUSH2 0x3A8 JUMPI PUSH1 0x0 DUP1 REVERT JUMPDEST POP PUSH2 0x3C3 PUSH1 0x4 DUP1 CALLDATASIZE SUB DUP2 ADD SWAP1 PUSH2 0x3BE SWAP2 SWAP1 PUSH2 0x33BA JUMP JUMPDEST PUSH2 0xBF6 JUMP JUMPDEST STOP JUMPDEST CALLVALUE DUP1 ISZERO PUSH2 0x3D1 JUMPI PUSH1 0x0 DUP1 REVERT JUMPDEST POP PUSH2 0x3EC PUSH1 0x4 DUP1 CALLDATASIZE SUB DUP2 ADD SWAP1 PUSH2 0x3E7 SWAP2 SWAP1 PUSH2 0x3489 JUMP JUMPDEST PUSH2 0xC65 JUMP JUMPDEST STOP JUMPDEST CALLVALUE DUP1 ISZERO PUSH2 0x3FA JUMPI PUSH1 0x0 DUP1 REVERT JUMPDEST POP PUSH2 0x415 PUSH1 0x4 DUP1 CALLDATASIZE SUB DUP2 ADD SWAP1 PUSH2 0x410 SWAP2 SWAP1 PUSH2 0x3489 JUMP JUMPDEST PUSH2 0xC86 JUMP JUMPDEST STOP JUMPDEST CALLVALUE DUP1 ISZERO PUSH2 0x423 JUMPI PUSH1 0x0 DUP1 REVERT JUMPDEST POP PUSH2 0x42C PUSH2 0xD09 JUMP JUMPDEST STOP JUMPDEST CALLVALUE DUP1 ISZERO PUSH2 0x43A JUMPI PUSH1 0x0 DUP1 REVERT JUMPDEST POP PUSH2 0x455 PUSH1 0x4 DUP1 CALLDATASIZE SUB DUP2 ADD SWAP1 PUSH2 0x450 SWAP2 SWAP1 PUSH2 0x358C JUMP JUMPDEST PUSH2 0xD21 JUMP JUMPDEST PUSH1 0x40 MLOAD PUSH2 0x462 SWAP2 SWAP1 PUSH2 0x36C2 JUMP JUMPDEST PUSH1 0x40 MLOAD DUP1 SWAP2 SUB SWAP1 RETURN JUMPDEST CALLVALUE DUP1 ISZERO PUSH2 0x477 JUMPI PUSH1 0x0 DUP1 REVERT JUMPDEST POP PUSH2 0x492 PUSH1 0x4 DUP1 CALLDATASIZE SUB DUP2 ADD SWAP1 PUSH2 0x48D SWAP2 SWAP1 PUSH2 0x311F JUMP JUMPDEST PUSH2 0xE3A JUMP JUMPDEST PUSH1 0x40 MLOAD PUSH2 0x49F SWAP2 SWAP1 PUSH2 0x2ED4 JUMP JUMPDEST PUSH1 0x40 MLOAD DUP1 SWAP2 SUB SWAP1 RETURN JUMPDEST CALLVALUE DUP1 ISZERO PUSH2 0x4B4 JUMPI PUSH1 0x0 DUP1 REVERT JUMPDEST POP PUSH2 0x4BD PUSH2 0xE4E JUMP JUMPDEST PUSH1 0x40 MLOAD PUSH2 0x4CA SWAP2 SWAP1 PUSH2 0x2ED4 JUMP JUMPDEST PUSH1 0x40 MLOAD DUP1 SWAP2 SUB SWAP1 RETURN JUMPDEST CALLVALUE DUP1 ISZERO PUSH2 0x4DF JUMPI PUSH1 0x0 DUP1 REVERT JUMPDEST POP PUSH2 0x4E8 PUSH2 0xE65 JUMP JUMPDEST PUSH1 0x40 MLOAD PUSH2 0x4F5 SWAP2 SWAP1 PUSH2 0x2E19 JUMP JUMPDEST PUSH1 0x40 MLOAD DUP1 SWAP2 SUB SWAP1 RETURN JUMPDEST CALLVALUE DUP1 ISZERO PUSH2 0x50A JUMPI PUSH1 0x0 DUP1 REVERT JUMPDEST POP PUSH2 0x513 PUSH2 0xE6B JUMP JUMPDEST STOP JUMPDEST CALLVALUE DUP1 ISZERO PUSH2 0x521 JUMPI PUSH1 0x0 DUP1 REVERT JUMPDEST POP PUSH2 0x53C PUSH1 0x4 DUP1 CALLDATASIZE SUB DUP2 ADD SWAP1 PUSH2 0x537 SWAP2 SWAP1 PUSH2 0x3489 JUMP JUMPDEST PUSH2 0xE83 JUMP JUMPDEST PUSH1 0x40 MLOAD PUSH2 0x549 SWAP2 SWAP1 PUSH2 0x2ED4 JUMP JUMPDEST PUSH1 0x40 MLOAD DUP1 SWAP2 SUB SWAP1 RETURN JUMPDEST CALLVALUE DUP1 ISZERO PUSH2 0x55E JUMPI PUSH1 0x0 DUP1 REVERT JUMPDEST POP PUSH2 0x567 PUSH2 0xEEE JUMP JUMPDEST PUSH1 0x40 MLOAD PUSH2 0x574 SWAP2 SWAP1 PUSH2 0x30FD JUMP JUMPDEST PUSH1 0x40 MLOAD DUP1 SWAP2 SUB SWAP1 RETURN JUMPDEST CALLVALUE DUP1 ISZERO PUSH2 0x589 JUMPI PUSH1 0x0 DUP1 REVERT JUMPDEST POP PUSH2 0x592 PUSH2 0xF27 JUMP JUMPDEST PUSH1 0x40 MLOAD PUSH2 0x59F SWAP2 SWAP1 PUSH2 0x31FE JUMP JUMPDEST PUSH1 0x40 MLOAD DUP1 SWAP2 SUB SWAP1 RETURN JUMPDEST CALLVALUE DUP1 ISZERO PUSH2 0x5B4 JUMPI PUSH1 0x0 DUP1 REVERT JUMPDEST POP PUSH2 0x5CF PUSH1 0x4 DUP1 CALLDATASIZE SUB DUP2 ADD SWAP1 PUSH2 0x5CA SWAP2 SWAP1 PUSH2 0x3710 JUMP JUMPDEST PUSH2 0xF2E JUMP JUMPDEST STOP JUMPDEST CALLVALUE DUP1 ISZERO PUSH2 0x5DD JUMPI PUSH1 0x0 DUP1 REVERT JUMPDEST POP PUSH2 0x5F8 PUSH1 0x4 DUP1 CALLDATASIZE SUB DUP2 ADD SWAP1 PUSH2 0x5F3 SWAP2 SWAP1 PUSH2 0x3750 JUMP JUMPDEST PUSH2 0xF63 JUMP JUMPDEST STOP JUMPDEST CALLVALUE DUP1 ISZERO PUSH2 0x606 JUMPI PUSH1 0x0 DUP1 REVERT JUMPDEST POP PUSH2 0x60F PUSH2 0xF8E JUMP JUMPDEST PUSH1 0x40 MLOAD PUSH2 0x61C SWAP2 SWAP1 PUSH2 0x31FE JUMP JUMPDEST PUSH1 0x40 MLOAD DUP1 SWAP2 SUB SWAP1 RETURN JUMPDEST CALLVALUE DUP1 ISZERO PUSH2 0x631 JUMPI PUSH1 0x0 DUP1 REVERT JUMPDEST POP PUSH2 0x64C PUSH1 0x4 DUP1 CALLDATASIZE SUB DUP2 ADD SWAP1 PUSH2 0x647 SWAP2 SWAP1 PUSH2 0x311F JUMP JUMPDEST PUSH2 0xFB2 JUMP JUMPDEST PUSH1 0x40 MLOAD PUSH2 0x659 SWAP2 SWAP1 PUSH2 0x2E19 JUMP JUMPDEST PUSH1 0x40 MLOAD DUP1 SWAP2 SUB SWAP1 RETURN JUMPDEST CALLVALUE DUP1 ISZERO PUSH2 0x66E JUMPI PUSH1 0x0 DUP1 REVERT JUMPDEST POP PUSH2 0x689 PUSH1 0x4 DUP1 CALLDATASIZE SUB DUP2 ADD SWAP1 PUSH2 0x684 SWAP2 SWAP1 PUSH2 0x3489 JUMP JUMPDEST PUSH2 0xFCF JUMP JUMPDEST STOP JUMPDEST CALLVALUE DUP1 ISZERO PUSH2 0x697 JUMPI PUSH1 0x0 DUP1 REVERT JUMPDEST POP PUSH2 0x6B2 PUSH1 0x4 DUP1 CALLDATASIZE SUB DUP2 ADD SWAP1 PUSH2 0x6AD SWAP2 SWAP1 PUSH2 0x377D JUMP JUMPDEST PUSH2 0xFF0 JUMP JUMPDEST PUSH1 0x40 MLOAD PUSH2 0x6BF SWAP2 SWAP1 PUSH2 0x2ED4 JUMP JUMPDEST PUSH1 0x40 MLOAD DUP1 SWAP2 SUB SWAP1 RETURN JUMPDEST CALLVALUE DUP1 ISZERO PUSH2 0x6D4 JUMPI PUSH1 0x0 DUP1 REVERT JUMPDEST POP PUSH2 0x6EF PUSH1 0x4 DUP1 CALLDATASIZE SUB DUP2 ADD SWAP1 PUSH2 0x6EA SWAP2 SWAP1 PUSH2 0x37BD JUMP JUMPDEST PUSH2 0x1084 JUMP JUMPDEST STOP JUMPDEST CALLVALUE DUP1 ISZERO PUSH2 0x6FD JUMPI PUSH1 0x0 DUP1 REVERT JUMPDEST POP PUSH2 0x718 PUSH1 0x4 DUP1 CALLDATASIZE SUB DUP2 ADD SWAP1 PUSH2 0x713 SWAP2 SWAP1 PUSH2 0x3854 JUMP JUMPDEST PUSH2 0x10F3 JUMP JUMPDEST STOP JUMPDEST CALLVALUE DUP1 ISZERO PUSH2 0x726 JUMPI PUSH1 0x0 DUP1 REVERT JUMPDEST POP PUSH2 0x72F PUSH2 0x112E JUMP JUMPDEST PUSH1 0x40 MLOAD PUSH2 0x73C SWAP2 SWAP1 PUSH2 0x2ED4 JUMP JUMPDEST PUSH1 0x40 MLOAD DUP1 SWAP2 SUB SWAP1 RETURN JUMPDEST PUSH1 0x0 DUP1 PUSH20 0xFFFFFFFFFFFFFFFFFFFFFFFFFFFFFFFFFFFFFFFF AND DUP4 PUSH20 0xFFFFFFFFFFFFFFFFFFFFFFFFFFFFFFFFFFFFFFFF AND SUB PUSH2 0x7B5 JUMPI PUSH1 0x40 MLOAD PUSH32 0x8C379A000000000000000000000000000000000000000000000000000000000 DUP2 MSTORE PUSH1 0x4 ADD PUSH2 0x7AC SWAP1 PUSH2 0x3919 JUMP JUMPDEST PUSH1 0x40 MLOAD DUP1 SWAP2 SUB SWAP1 REVERT JUMPDEST PUSH1 0x0 DUP1 DUP4 DUP2 MSTORE PUSH1 0x20 ADD SWAP1 DUP2 MSTORE PUSH1 0x20 ADD PUSH1 0x0 KECCAK256 PUSH1 0x0 DUP5 PUSH20 0xFFFFFFFFFFFFFFFFFFFFFFFFFFFFFFFFFFFFFFFF AND PUSH20 0xFFFFFFFFFFFFFFFFFFFFFFFFFFFFFFFFFFFFFFFF AND DUP2 MSTORE PUSH1 0x20 ADD SWAP1 DUP2 MSTORE PUSH1 0x20 ADD PUSH1 0x0 KECCAK256 SLOAD SWAP1 POP SWAP3 SWAP2 POP POP JUMP JUMPDEST PUSH1 0x0 PUSH2 0x818 DUP3 PUSH2 0x1141 JUMP JUMPDEST SWAP1 POP SWAP2 SWAP1 POP JUMP JUMPDEST PUSH1 0x0 DUP1 SHL PUSH2 0x82C DUP2 PUSH2 0x11BB JUMP JUMPDEST PUSH2 0x835 DUP3 PUSH2 0x11CF JUMP JUMPDEST POP POP JUMP JUMPDEST PUSH1 0x40 MLOAD DUP1 PUSH1 0x40 ADD PUSH1 0x40 MSTORE DUP1 PUSH1 0x12 DUP2 MSTORE PUSH1 0x20 ADD PUSH32 0x547261707031454172746973744B69636B730000000000000000000000000000 DUP2 MSTORE POP DUP2 JUMP JUMPDEST PUSH1 0x60 PUSH1 0x2 DUP1 SLOAD PUSH2 0x881 SWAP1 PUSH2 0x3968 JUMP JUMPDEST DUP1 PUSH1 0x1F ADD PUSH1 0x20 DUP1 SWAP2 DIV MUL PUSH1 0x20 ADD PUSH1 0x40 MLOAD SWAP1 DUP2 ADD PUSH1 0x40 MSTORE DUP1 SWAP3 SWAP2 SWAP1 DUP2 DUP2 MSTORE PUSH1 0x20 ADD DUP3 DUP1 SLOAD PUSH2 0x8AD SWAP1 PUSH2 0x3968 JUMP JUMPDEST DUP1 ISZERO PUSH2 0x8FA JUMPI DUP1 PUSH1 0x1F LT PUSH2 0x8CF JUMPI PUSH2 0x100 DUP1 DUP4 SLOAD DIV MUL DUP4 MSTORE SWAP2 PUSH1 0x20 ADD SWAP2 PUSH2 0x8FA JUMP JUMPDEST DUP3 ADD SWAP2 SWAP1 PUSH1 0x0 MSTORE PUSH1 0x20 PUSH1 0x0 KECCAK256 SWAP1 JUMPDEST DUP2 SLOAD DUP2 MSTORE SWAP1 PUSH1 0x1 ADD SWAP1 PUSH1 0x20 ADD DUP1 DUP4 GT PUSH2 0x8DD JUMPI DUP3 SWAP1 SUB PUSH1 0x1F AND DUP3 ADD SWAP2 JUMPDEST POP POP POP POP POP SWAP1 POP SWAP2 SWAP1 POP JUMP JUMPDEST PUSH2 0x90E PUSH2 0x11E2 JUMP JUMPDEST DUP1 PUSH1 0x8 SLOAD PUSH2 0x91C SWAP2 SWAP1 PUSH2 0x39C8 JUMP JUMPDEST CALLVALUE EQ PUSH2 0x95D JUMPI PUSH1 0x40 MLOAD PUSH32 0x8C379A000000000000000000000000000000000000000000000000000000000 DUP2 MSTORE PUSH1 0x4 ADD PUSH2 0x954 SWAP1 PUSH2 0x3A56 JUMP JUMPDEST PUSH1 0x40 MLOAD DUP1 SWAP2 SUB SWAP1 REVERT JUMPDEST PUSH1 0x9 SLOAD DUP2 PUSH2 0x96A DUP5 PUSH2 0xFB2 JUMP JUMPDEST PUSH2 0x974 SWAP2 SWAP1 PUSH2 0x3A76 JUMP JUMPDEST GT ISZERO PUSH2 0x9B5 JUMPI PUSH1 0x40 MLOAD PUSH32 0x8C379A000000000000000000000000000000000000000000000000000000000 DUP2 MSTORE PUSH1 0x4 ADD PUSH2 0x9AC SWAP1 PUSH2 0x3B1C JUMP JUMPDEST PUSH1 0x40 MLOAD DUP1 SWAP2 SUB SWAP1 REVERT JUMPDEST PUSH2 0x9D0 CALLER DUP4 DUP4 PUSH1 0x40 MLOAD DUP1 PUSH1 0x20 ADD PUSH1 0x40 MSTORE DUP1 PUSH1 0x0 DUP2 MSTORE POP PUSH2 0x122C JUMP JUMPDEST POP POP JUMP JUMPDEST PUSH1 0x0 DUP1 SHL PUSH2 0x9E1 DUP2 PUSH2 0x11BB JUMP JUMPDEST DUP2 PUSH1 0x8 DUP2 SWAP1 SSTORE POP POP POP JUMP JUMPDEST PUSH1 0x0 PUSH1 0x4 PUSH1 0x0 DUP4 DUP2 MSTORE PUSH1 0x20 ADD SWAP1 DUP2 MSTORE PUSH1 0x20 ADD PUSH1 0x0 KECCAK256 PUSH1 0x1 ADD SLOAD SWAP1 POP SWAP2 SWAP1 POP JUMP JUMPDEST PUSH1 0x0 DUP1 PUSH1 0x0 PUSH1 0x7 PUSH1 0x0 DUP7 DUP2 MSTORE PUSH1 0x20 ADD SWAP1 DUP2 MSTORE PUSH1 0x20 ADD PUSH1 0x0 KECCAK256 PUSH1 0x40 MLOAD DUP1 PUSH1 0x40 ADD PUSH1 0x40 MSTORE SWAP1 DUP2 PUSH1 0x0 DUP3 ADD PUSH1 0x0 SWAP1 SLOAD SWAP1 PUSH2 0x100 EXP SWAP1 DIV PUSH20 0xFFFFFFFFFFFFFFFFFFFFFFFFFFFFFFFFFFFFFFFF AND PUSH20 0xFFFFFFFFFFFFFFFFFFFFFFFFFFFFFFFFFFFFFFFF AND PUSH20 0xFFFFFFFFFFFFFFFFFFFFFFFFFFFFFFFFFFFFFFFF AND DUP2 MSTORE PUSH1 0x20 ADD PUSH1 0x0 DUP3 ADD PUSH1 0x14 SWAP1 SLOAD SWAP1 PUSH2 0x100 EXP SWAP1 DIV PUSH12 0xFFFFFFFFFFFFFFFFFFFFFFFF AND PUSH12 0xFFFFFFFFFFFFFFFFFFFFFFFF AND PUSH12 0xFFFFFFFFFFFFFFFFFFFFFFFF AND DUP2 MSTORE POP POP SWAP1 POP PUSH1 0x0 PUSH20 0xFFFFFFFFFFFFFFFFFFFFFFFFFFFFFFFFFFFFFFFF AND DUP2 PUSH1 0x0 ADD MLOAD PUSH20 0xFFFFFFFFFFFFFFFFFFFFFFFFFFFFFFFFFFFFFFFF AND SUB PUSH2 0xBA1 JUMPI PUSH1 0x6 PUSH1 0x40 MLOAD DUP1 PUSH1 0x40 ADD PUSH1 0x40 MSTORE SWAP1 DUP2 PUSH1 0x0 DUP3 ADD PUSH1 0x0 SWAP1 SLOAD SWAP1 PUSH2 0x100 EXP SWAP1 DIV PUSH20 0xFFFFFFFFFFFFFFFFFFFFFFFFFFFFFFFFFFFFFFFF AND PUSH20 0xFFFFFFFFFFFFFFFFFFFFFFFFFFFFFFFFFFFFFFFF AND PUSH20 0xFFFFFFFFFFFFFFFFFFFFFFFFFFFFFFFFFFFFFFFF AND DUP2 MSTORE PUSH1 0x20 ADD PUSH1 0x0 DUP3 ADD PUSH1 0x14 SWAP1 SLOAD SWAP1 PUSH2 0x100 EXP SWAP1 DIV PUSH12 0xFFFFFFFFFFFFFFFFFFFFFFFF AND PUSH12 0xFFFFFFFFFFFFFFFFFFFFFFFF AND PUSH12 0xFFFFFFFFFFFFFFFFFFFFFFFF AND DUP2 MSTORE POP POP SWAP1 POP JUMPDEST PUSH1 0x0 PUSH2 0xBAB PUSH2 0x13DC JUMP JUMPDEST PUSH12 0xFFFFFFFFFFFFFFFFFFFFFFFF AND DUP3 PUSH1 0x20 ADD MLOAD PUSH12 0xFFFFFFFFFFFFFFFFFFFFFFFF AND DUP7 PUSH2 0xBD7 SWAP2 SWAP1 PUSH2 0x39C8 JUMP JUMPDEST PUSH2 0xBE1 SWAP2 SWAP1 PUSH2 0x3B6B JUMP JUMPDEST SWAP1 POP DUP2 PUSH1 0x0 ADD MLOAD DUP2 SWAP4 POP SWAP4 POP POP POP SWAP3 POP SWAP3 SWAP1 POP JUMP JUMPDEST DUP5 CALLER PUSH20 0xFFFFFFFFFFFFFFFFFFFFFFFFFFFFFFFFFFFFFFFF AND DUP2 PUSH20 0xFFFFFFFFFFFFFFFFFFFFFFFFFFFFFFFFFFFFFFFF AND EQ PUSH2 0xC50 JUMPI PUSH2 0xC33 CALLER PUSH2 0x13E6 JUMP JUMPDEST PUSH2 0xC4F JUMPI PUSH2 0xC3F PUSH2 0x1432 JUMP JUMPDEST ISZERO PUSH2 0xC4E JUMPI PUSH2 0xC4D CALLER PUSH2 0x1449 JUMP JUMPDEST JUMPDEST JUMPDEST JUMPDEST PUSH2 0xC5D DUP7 DUP7 DUP7 DUP7 DUP7 PUSH2 0x148D JUMP JUMPDEST POP POP POP POP POP POP JUMP JUMPDEST PUSH2 0xC6E DUP3 PUSH2 0x9EC JUMP JUMPDEST PUSH2 0xC77 DUP2 PUSH2 0x11BB JUMP JUMPDEST PUSH2 0xC81 DUP4 DUP4 PUSH2 0x152E JUMP JUMPDEST POP POP POP JUMP JUMPDEST PUSH2 0xC8E PUSH2 0x160F JUMP JUMPDEST PUSH20 0xFFFFFFFFFFFFFFFFFFFFFFFFFFFFFFFFFFFFFFFF AND DUP2 PUSH20 0xFFFFFFFFFFFFFFFFFFFFFFFFFFFFFFFFFFFFFFFF AND EQ PUSH2 0xCFB JUMPI PUSH1 0x40 MLOAD PUSH32 0x8C379A000000000000000000000000000000000000000000000000000000000 DUP2 MSTORE PUSH1 0x4 ADD PUSH2 0xCF2 SWAP1 PUSH2 0x3C0E JUMP JUMPDEST PUSH1 0x40 MLOAD DUP1 SWAP2 SUB SWAP1 REVERT JUMPDEST PUSH2 0xD05 DUP3 DUP3 PUSH2 0x1617 JUMP JUMPDEST POP POP JUMP JUMPDEST PUSH1 0x0 DUP1 SHL PUSH2 0xD16 DUP2 PUSH2 0x11BB JUMP JUMPDEST PUSH2 0xD1E PUSH2 0x16F9 JUMP JUMPDEST POP JUMP JUMPDEST PUSH1 0x60 DUP2 MLOAD DUP4 MLOAD EQ PUSH2 0xD67 JUMPI PUSH1 0x40 MLOAD PUSH32 0x8C379A000000000000000000000000000000000000000000000000000000000 DUP2 MSTORE PUSH1 0x4 ADD PUSH2 0xD5E SWAP1 PUSH2 0x3CA0 JUMP JUMPDEST PUSH1 0x40 MLOAD DUP1 SWAP2 SUB SWAP1 REVERT JUMPDEST PUSH1 0x0 DUP4 MLOAD PUSH8 0xFFFFFFFFFFFFFFFF DUP2 GT ISZERO PUSH2 0xD84 JUMPI PUSH2 0xD83 PUSH2 0x2F0A JUMP JUMPDEST JUMPDEST PUSH1 0x40 MLOAD SWAP1 DUP1 DUP3 MSTORE DUP1 PUSH1 0x20 MUL PUSH1 0x20 ADD DUP3 ADD PUSH1 0x40 MSTORE DUP1 ISZERO PUSH2 0xDB2 JUMPI DUP2 PUSH1 0x20 ADD PUSH1 0x20 DUP3 MUL DUP1 CALLDATASIZE DUP4 CALLDATACOPY DUP1 DUP3 ADD SWAP2 POP POP SWAP1 POP JUMPDEST POP SWAP1 POP PUSH1 0x0 JUMPDEST DUP5 MLOAD DUP2 LT ISZERO PUSH2 0xE2F JUMPI PUSH2 0xDFF DUP6 DUP3 DUP2 MLOAD DUP2 LT PUSH2 0xDD7 JUMPI PUSH2 0xDD6 PUSH2 0x3CC0 JUMP JUMPDEST JUMPDEST PUSH1 0x20 MUL PUSH1 0x20 ADD ADD MLOAD DUP6 DUP4 DUP2 MLOAD DUP2 LT PUSH2 0xDF2 JUMPI PUSH2 0xDF1 PUSH2 0x3CC0 JUMP JUMPDEST JUMPDEST PUSH1 0x20 MUL PUSH1 0x20 ADD ADD MLOAD PUSH2 0x745 JUMP JUMPDEST DUP3 DUP3 DUP2 MLOAD DUP2 LT PUSH2 0xE12 JUMPI PUSH2 0xE11 PUSH2 0x3CC0 JUMP JUMPDEST JUMPDEST PUSH1 0x20 MUL PUSH1 0x20 ADD ADD DUP2 DUP2 MSTORE POP POP DUP1 PUSH2 0xE28 SWAP1 PUSH2 0x3CEF JUMP JUMPDEST SWAP1 POP PUSH2 0xDB8 JUMP JUMPDEST POP DUP1 SWAP2 POP POP SWAP3 SWAP2 POP POP JUMP JUMPDEST PUSH1 0x0 DUP1 PUSH2 0xE46 DUP4 PUSH2 0xFB2 JUMP JUMPDEST GT SWAP1 POP SWAP2 SWAP1 POP JUMP JUMPDEST PUSH1 0x0 PUSH1 0x3 PUSH1 0x0 SWAP1 SLOAD SWAP1 PUSH2 0x100 EXP SWAP1 DIV PUSH1 0xFF AND SWAP1 POP SWAP1 JUMP JUMPDEST PUSH1 0x8 SLOAD DUP2 JUMP JUMPDEST PUSH1 0x0 DUP1 SHL PUSH2 0xE78 DUP2 PUSH2 0x11BB JUMP JUMPDEST PUSH2 0xE80 PUSH2 0x175C JUMP JUMPDEST POP JUMP JUMPDEST PUSH1 0x0 PUSH1 0x4 PUSH1 0x0 DUP5 DUP2 MSTORE PUSH1 0x20 ADD SWAP1 DUP2 MSTORE PUSH1 0x20 ADD PUSH1 0x0 KECCAK256 PUSH1 0x0 ADD PUSH1 0x0 DUP4 PUSH20 0xFFFFFFFFFFFFFFFFFFFFFFFFFFFFFFFFFFFFFFFF AND PUSH20 0xFFFFFFFFFFFFFFFFFFFFFFFFFFFFFFFFFFFFFFFF AND DUP2 MSTORE PUSH1 0x20 ADD SWAP1 DUP2 MSTORE PUSH1 0x20 ADD PUSH1 0x0 KECCAK256 PUSH1 0x0 SWAP1 SLOAD SWAP1 PUSH2 0x100 EXP SWAP1 DIV PUSH1 0xFF AND SWAP1 POP SWAP3 SWAP2 POP POP JUMP JUMPDEST PUSH1 0x40 MLOAD DUP1 PUSH1 0x40 ADD PUSH1 0x40 MSTORE DUP1 PUSH1 0x5 DUP2 MSTORE PUSH1 0x20 ADD PUSH32 0x543145414B000000000000000000000000000000000000000000000000000000 DUP2 MSTORE POP DUP2 JUMP JUMPDEST PUSH1 0x0 DUP1 SHL DUP2 JUMP JUMPDEST DUP2 PUSH2 0xF38 DUP2 PUSH2 0x13E6 JUMP JUMPDEST PUSH2 0xF54 JUMPI PUSH2 0xF44 PUSH2 0x1432 JUMP JUMPDEST ISZERO PUSH2 0xF53 JUMPI PUSH2 0xF52 DUP2 PUSH2 0x1449 JUMP JUMPDEST JUMPDEST JUMPDEST PUSH2 0xF5E DUP4 DUP4 PUSH2 0x17BF JUMP JUMPDEST POP POP POP JUMP JUMPDEST PUSH1 0x0 DUP1 SHL PUSH2 0xF70 DUP2 PUSH2 0x11BB JUMP JUMPDEST DUP2 PUSH1 0xA PUSH1 0x0 PUSH2 0x100 EXP DUP2 SLOAD DUP2 PUSH1 0xFF MUL NOT AND SWAP1 DUP4 ISZERO ISZERO MUL OR SWAP1 SSTORE POP POP POP JUMP JUMPDEST PUSH32 0xE97B137254058BD94F28D2F3EB79E2D34074FFB488D042E3BC958E0A57D2FA22 DUP2 JUMP JUMPDEST PUSH1 0x0 PUSH1 0x5 PUSH1 0x0 DUP4 DUP2 MSTORE PUSH1 0x20 ADD SWAP1 DUP2 MSTORE PUSH1 0x20 ADD PUSH1 0x0 KECCAK256 SLOAD SWAP1 POP SWAP2 SWAP1 POP JUMP JUMPDEST PUSH2 0xFD8 DUP3 PUSH2 0x9EC JUMP JUMPDEST PUSH2 0xFE1 DUP2 PUSH2 0x11BB JUMP JUMPDEST PUSH2 0xFEB DUP4 DUP4 PUSH2 0x1617 JUMP JUMPDEST POP POP POP JUMP JUMPDEST PUSH1 0x0 PUSH1 0x1 PUSH1 0x0 DUP5 PUSH20 0xFFFFFFFFFFFFFFFFFFFFFFFFFFFFFFFFFFFFFFFF AND PUSH20 0xFFFFFFFFFFFFFFFFFFFFFFFFFFFFFFFFFFFFFFFF AND DUP2 MSTORE PUSH1 0x20 ADD SWAP1 DUP2 MSTORE PUSH1 0x20 ADD PUSH1 0x0 KECCAK256 PUSH1 0x0 DUP4 PUSH20 0xFFFFFFFFFFFFFFFFFFFFFFFFFFFFFFFFFFFFFFFF AND PUSH20 0xFFFFFFFFFFFFFFFFFFFFFFFFFFFFFFFFFFFFFFFF AND DUP2 MSTORE PUSH1 0x20 ADD SWAP1 DUP2 MSTORE PUSH1 0x20 ADD PUSH1 0x0 KECCAK256 PUSH1 0x0 SWAP1 SLOAD SWAP1 PUSH2 0x100 EXP SWAP1 DIV PUSH1 0xFF AND SWAP1 POP SWAP3 SWAP2 POP POP JUMP JUMPDEST DUP5 CALLER PUSH20 0xFFFFFFFFFFFFFFFFFFFFFFFFFFFFFFFFFFFFFFFF AND DUP2 PUSH20 0xFFFFFFFFFFFFFFFFFFFFFFFFFFFFFFFFFFFFFFFF AND EQ PUSH2 0x10DE JUMPI PUSH2 0x10C1 CALLER PUSH2 0x13E6 JUMP JUMPDEST PUSH2 0x10DD JUMPI PUSH2 0x10CD PUSH2 0x1432 JUMP JUMPDEST ISZERO PUSH2 0x10DC JUMPI PUSH2 0x10DB CALLER PUSH2 0x1449 JUMP JUMPDEST JUMPDEST JUMPDEST JUMPDEST PUSH2 0x10EB DUP7 DUP7 DUP7 DUP7 DUP7 PUSH2 0x17D5 JUMP JUMPDEST POP POP POP POP POP POP JUMP JUMPDEST PUSH32 0xE97B137254058BD94F28D2F3EB79E2D34074FFB488D042E3BC958E0A57D2FA22 PUSH2 0x111D DUP2 PUSH2 0x11BB JUMP JUMPDEST PUSH2 0x1128 DUP5 DUP5 DUP5 PUSH2 0x1876 JUMP JUMPDEST POP POP POP POP JUMP JUMPDEST PUSH1 0xA PUSH1 0x0 SWAP1 SLOAD SWAP1 PUSH2 0x100 EXP SWAP1 DIV PUSH1 0xFF AND DUP2 JUMP JUMPDEST PUSH1 0x0 PUSH32 0x2A55205A00000000000000000000000000000000000000000000000000000000 PUSH28 0xFFFFFFFFFFFFFFFFFFFFFFFFFFFFFFFFFFFFFFFFFFFFFFFFFFFFFFFF NOT AND DUP3 PUSH28 0xFFFFFFFFFFFFFFFFFFFFFFFFFFFFFFFFFFFFFFFFFFFFFFFFFFFFFFFF NOT AND EQ DUP1 PUSH2 0x11B4 JUMPI POP PUSH2 0x11B3 DUP3 PUSH2 0x1ABC JUMP JUMPDEST JUMPDEST SWAP1 POP SWAP2 SWAP1 POP JUMP JUMPDEST PUSH2 0x11CC DUP2 PUSH2 0x11C7 PUSH2 0x160F JUMP JUMPDEST PUSH2 0x1B36 JUMP JUMPDEST POP JUMP JUMPDEST DUP1 PUSH1 0x2 SWAP1 DUP2 PUSH2 0x11DE SWAP2 SWAP1 PUSH2 0x3EE3 JUMP JUMPDEST POP POP JUMP JUMPDEST PUSH2 0x11EA PUSH2 0xE4E JUMP JUMPDEST ISZERO PUSH2 0x122A JUMPI PUSH1 0x40 MLOAD PUSH32 0x8C379A000000000000000000000000000000000000000000000000000000000 DUP2 MSTORE PUSH1 0x4 ADD PUSH2 0x1221 SWAP1 PUSH2 0x4001 JUMP JUMPDEST PUSH1 0x40 MLOAD DUP1 SWAP2 SUB SWAP1 REVERT JUMPDEST JUMP JUMPDEST PUSH1 0x0 PUSH20 0xFFFFFFFFFFFFFFFFFFFFFFFFFFFFFFFFFFFFFFFF AND DUP5 PUSH20 0xFFFFFFFFFFFFFFFFFFFFFFFFFFFFFFFFFFFFFFFF AND SUB PUSH2 0x129B JUMPI PUSH1 0x40 MLOAD PUSH32 0x8C379A000000000000000000000000000000000000000000000000000000000 DUP2 MSTORE PUSH1 0x4 ADD PUSH2 0x1292 SWAP1 PUSH2 0x4093 JUMP JUMPDEST PUSH1 0x40 MLOAD DUP1 SWAP2 SUB SWAP1 REVERT JUMPDEST PUSH1 0x0 PUSH2 0x12A5 PUSH2 0x160F JUMP JUMPDEST SWAP1 POP PUSH1 0x0 PUSH2 0x12B2 DUP6 PUSH2 0x1BBB JUMP JUMPDEST SWAP1 POP PUSH1 0x0 PUSH2 0x12BF DUP6 PUSH2 0x1BBB JUMP JUMPDEST SWAP1 POP PUSH2 0x12D0 DUP4 PUSH1 0x0 DUP10 DUP6 DUP6 DUP10 PUSH2 0x1C35 JUMP JUMPDEST DUP5 PUSH1 0x0 DUP1 DUP9 DUP2 MSTORE PUSH1 0x20 ADD SWAP1 DUP2 MSTORE PUSH1 0x20 ADD PUSH1 0x0 KECCAK256 PUSH1 0x0 DUP10 PUSH20 0xFFFFFFFFFFFFFFFFFFFFFFFFFFFFFFFFFFFFFFFF AND PUSH20 0xFFFFFFFFFFFFFFFFFFFFFFFFFFFFFFFFFFFFFFFF AND DUP2 MSTORE PUSH1 0x20 ADD SWAP1 DUP2 MSTORE PUSH1 0x20 ADD PUSH1 0x0 KECCAK256 PUSH1 0x0 DUP3 DUP3 SLOAD PUSH2 0x132F SWAP2 SWAP1 PUSH2 0x3A76 JUMP JUMPDEST SWAP3 POP POP DUP2 SWAP1 SSTORE POP DUP7 PUSH20 0xFFFFFFFFFFFFFFFFFFFFFFFFFFFFFFFFFFFFFFFF AND PUSH1 0x0 PUSH20 0xFFFFFFFFFFFFFFFFFFFFFFFFFFFFFFFFFFFFFFFF AND DUP5 PUSH20 0xFFFFFFFFFFFFFFFFFFFFFFFFFFFFFFFFFFFFFFFF AND PUSH32 0xC3D58168C5AE7397731D063D5BBF3D657854427343F4C083240F7AACAA2D0F62 DUP10 DUP10 PUSH1 0x40 MLOAD PUSH2 0x13AD SWAP3 SWAP2 SWAP1 PUSH2 0x40B3 JUMP JUMPDEST PUSH1 0x40 MLOAD DUP1 SWAP2 SUB SWAP1 LOG4 PUSH2 0x13C4 DUP4 PUSH1 0x0 DUP10 DUP6 DUP6 DUP10 PUSH2 0x1C4B JUMP JUMPDEST PUSH2 0x13D3 DUP4 PUSH1 0x0 DUP10 DUP10 DUP10 DUP10 PUSH2 0x1C53 JUMP JUMPDEST POP POP POP POP POP POP POP JUMP JUMPDEST PUSH1 0x0 PUSH2 0x2710 SWAP1 POP SWAP1 JUMP JUMPDEST PUSH1 0x0 PUSH20 0x1E0049783F008A0085193E00003D00CD54003C71 PUSH20 0xFFFFFFFFFFFFFFFFFFFFFFFFFFFFFFFFFFFFFFFF AND DUP3 PUSH20 0xFFFFFFFFFFFFFFFFFFFFFFFFFFFFFFFFFFFFFFFF AND EQ SWAP1 POP SWAP2 SWAP1 POP JUMP JUMPDEST PUSH1 0x0 PUSH1 0xA PUSH1 0x0 SWAP1 SLOAD SWAP1 PUSH2 0x100 EXP SWAP1 DIV PUSH1 0xFF AND SWAP1 POP SWAP1 JUMP JUMPDEST PUSH10 0xC6171134001122334455 PUSH1 0x0 MSTORE ADDRESS PUSH1 0x1A MSTORE DUP1 PUSH1 0x3A MSTORE PUSH1 0x0 DUP1 PUSH1 0x44 PUSH1 0x16 PUSH14 0xAAEB6D7670E522A718067333CD4E GAS STATICCALL PUSH2 0x1485 JUMPI RETURNDATASIZE PUSH1 0x0 DUP1 RETURNDATACOPY RETURNDATASIZE PUSH1 0x0 REVERT JUMPDEST PUSH1 0x0 PUSH1 0x3A MSTORE POP JUMP JUMPDEST PUSH2 0x1495 PUSH2 0x160F JUMP JUMPDEST PUSH20 0xFFFFFFFFFFFFFFFFFFFFFFFFFFFFFFFFFFFFFFFF AND DUP6 PUSH20 0xFFFFFFFFFFFFFFFFFFFFFFFFFFFFFFFFFFFFFFFF AND EQ DUP1 PUSH2 0x14DB JUMPI POP PUSH2 0x14DA DUP6 PUSH2 0x14D5 PUSH2 0x160F JUMP JUMPDEST PUSH2 0xFF0 JUMP JUMPDEST JUMPDEST PUSH2 0x151A JUMPI PUSH1 0x40 MLOAD PUSH32 0x8C379A000000000000000000000000000000000000000000000000000000000 DUP2 MSTORE PUSH1 0x4 ADD PUSH2 0x1511 SWAP1 PUSH2 0x414E JUMP JUMPDEST PUSH1 0x40 MLOAD DUP1 SWAP2 SUB SWAP1 REVERT JUMPDEST PUSH2 0x1527 DUP6 DUP6 DUP6 DUP6 DUP6 PUSH2 0x1E2A JUMP JUMPDEST POP POP POP POP POP JUMP JUMPDEST PUSH2 0x1538 DUP3 DUP3 PUSH2 0xE83 JUMP JUMPDEST PUSH2 0x160B JUMPI PUSH1 0x1 PUSH1 0x4 PUSH1 0x0 DUP5 DUP2 MSTORE PUSH1 0x20 ADD SWAP1 DUP2 MSTORE PUSH1 0x20 ADD PUSH1 0x0 KECCAK256 PUSH1 0x0 ADD PUSH1 0x0 DUP4 PUSH20 0xFFFFFFFFFFFFFFFFFFFFFFFFFFFFFFFFFFFFFFFF AND PUSH20 0xFFFFFFFFFFFFFFFFFFFFFFFFFFFFFFFFFFFFFFFF AND DUP2 MSTORE PUSH1 0x20 ADD SWAP1 DUP2 MSTORE PUSH1 0x20 ADD PUSH1 0x0 KECCAK256 PUSH1 0x0 PUSH2 0x100 EXP DUP2 SLOAD DUP2 PUSH1 0xFF MUL NOT AND SWAP1 DUP4 ISZERO ISZERO MUL OR SWAP1 SSTORE POP PUSH2 0x15B0 PUSH2 0x160F JUMP JUMPDEST PUSH20 0xFFFFFFFFFFFFFFFFFFFFFFFFFFFFFFFFFFFFFFFF AND DUP2 PUSH20 0xFFFFFFFFFFFFFFFFFFFFFFFFFFFFFFFFFFFFFFFF AND DUP4 PUSH32 0x2F8788117E7EFF1D82E926EC794901D17C78024A50270940304540A733656F0D PUSH1 0x40 MLOAD PUSH1 0x40 MLOAD DUP1 SWAP2 SUB SWAP1 LOG4 JUMPDEST POP POP JUMP JUMPDEST PUSH1 0x0 CALLER SWAP1 POP SWAP1 JUMP JUMPDEST PUSH2 0x1621 DUP3 DUP3 PUSH2 0xE83 JUMP JUMPDEST ISZERO PUSH2 0x16F5 JUMPI PUSH1 0x0 PUSH1 0x4 PUSH1 0x0 DUP5 DUP2 MSTORE PUSH1 0x20 ADD SWAP1 DUP2 MSTORE PUSH1 0x20 ADD PUSH1 0x0 KECCAK256 PUSH1 0x0 ADD PUSH1 0x0 DUP4 PUSH20 0xFFFFFFFFFFFFFFFFFFFFFFFFFFFFFFFFFFFFFFFF AND PUSH20 0xFFFFFFFFFFFFFFFFFFFFFFFFFFFFFFFFFFFFFFFF AND DUP2 MSTORE PUSH1 0x20 ADD SWAP1 DUP2 MSTORE PUSH1 0x20 ADD PUSH1 0x0 KECCAK256 PUSH1 0x0 PUSH2 0x100 EXP DUP2 SLOAD DUP2 PUSH1 0xFF MUL NOT AND SWAP1 DUP4 ISZERO ISZERO MUL OR SWAP1 SSTORE POP PUSH2 0x169A PUSH2 0x160F JUMP JUMPDEST PUSH20 0xFFFFFFFFFFFFFFFFFFFFFFFFFFFFFFFFFFFFFFFF AND DUP2 PUSH20 0xFFFFFFFFFFFFFFFFFFFFFFFFFFFFFFFFFFFFFFFF AND DUP4 PUSH32 0xF6391F5C32D9C69D2A47EA670B442974B53935D1EDC7FD64EB21E047A839171B PUSH1 0x40 MLOAD PUSH1 0x40 MLOAD DUP1 SWAP2 SUB SWAP1 LOG4 JUMPDEST POP POP JUMP JUMPDEST PUSH2 0x1701 PUSH2 0x214B JUMP JUMPDEST PUSH1 0x0 PUSH1 0x3 PUSH1 0x0 PUSH2 0x100 EXP DUP2 SLOAD DUP2 PUSH1 0xFF MUL NOT AND SWAP1 DUP4 ISZERO ISZERO MUL OR SWAP1 SSTORE POP PUSH32 0x5DB9EE0A495BF2E6FF9C91A7834C1BA4FDD244A5E8AA4E537BD38AEAE4B073AA PUSH2 0x1745 PUSH2 0x160F JUMP JUMPDEST PUSH1 0x40 MLOAD PUSH2 0x1752 SWAP2 SWAP1 PUSH2 0x416E JUMP JUMPDEST PUSH1 0x40 MLOAD DUP1 SWAP2 SUB SWAP1 LOG1 JUMP JUMPDEST PUSH2 0x1764 PUSH2 0x11E2 JUMP JUMPDEST PUSH1 0x1 PUSH1 0x3 PUSH1 0x0 PUSH2 0x100 EXP DUP2 SLOAD DUP2 PUSH1 0xFF MUL NOT AND SWAP1 DUP4 ISZERO ISZERO MUL OR SWAP1 SSTORE POP PUSH32 0x62E78CEA01BEE320CD4E420270B5EA74000D11B0C9F74754EBDBFC544B05A258 PUSH2 0x17A8 PUSH2 0x160F JUMP JUMPDEST PUSH1 0x40 MLOAD PUSH2 0x17B5 SWAP2 SWAP1 PUSH2 0x416E JUMP JUMPDEST PUSH1 0x40 MLOAD DUP1 SWAP2 SUB SWAP1 LOG1 JUMP JUMPDEST PUSH2 0x17D1 PUSH2 0x17CA PUSH2 0x160F JUMP JUMPDEST DUP4 DUP4 PUSH2 0x2194 JUMP JUMPDEST POP POP JUMP JUMPDEST PUSH2 0x17DD PUSH2 0x160F JUMP JUMPDEST PUSH20 0xFFFFFFFFFFFFFFFFFFFFFFFFFFFFFFFFFFFFFFFF AND DUP6 PUSH20 0xFFFFFFFFFFFFFFFFFFFFFFFFFFFFFFFFFFFFFFFF AND EQ DUP1 PUSH2 0x1823 JUMPI POP PUSH2 0x1822 DUP6 PUSH2 0x181D PUSH2 0x160F JUMP JUMPDEST PUSH2 0xFF0 JUMP JUMPDEST JUMPDEST PUSH2 0x1862 JUMPI PUSH1 0x40 MLOAD PUSH32 0x8C379A000000000000000000000000000000000000000000000000000000000 DUP2 MSTORE PUSH1 0x4 ADD PUSH2 0x1859 SWAP1 PUSH2 0x414E JUMP JUMPDEST PUSH1 0x40 MLOAD DUP1 SWAP2 SUB SWAP1 REVERT JUMPDEST PUSH2 0x186F DUP6 DUP6 DUP6 DUP6 DUP6 PUSH2 0x2300 JUMP JUMPDEST POP POP POP POP POP JUMP JUMPDEST PUSH1 0x0 PUSH20 0xFFFFFFFFFFFFFFFFFFFFFFFFFFFFFFFFFFFFFFFF AND DUP4 PUSH20 0xFFFFFFFFFFFFFFFFFFFFFFFFFFFFFFFFFFFFFFFF AND SUB PUSH2 0x18E5 JUMPI PUSH1 0x40 MLOAD PUSH32 0x8C379A000000000000000000000000000000000000000000000000000000000 DUP2 MSTORE PUSH1 0x4 ADD PUSH2 0x18DC SWAP1 PUSH2 0x41FB JUMP JUMPDEST PUSH1 0x40 MLOAD DUP1 SWAP2 SUB SWAP1 REVERT JUMPDEST PUSH1 0x0 PUSH2 0x18EF PUSH2 0x160F JUMP JUMPDEST SWAP1 POP PUSH1 0x0 PUSH2 0x18FC DUP5 PUSH2 0x1BBB JUMP JUMPDEST SWAP1 POP PUSH1 0x0 PUSH2 0x1909 DUP5 PUSH2 0x1BBB JUMP JUMPDEST SWAP1 POP PUSH2 0x1929 DUP4 DUP8 PUSH1 0x0 DUP6 DUP6 PUSH1 0x40 MLOAD DUP1 PUSH1 0x20 ADD PUSH1 0x40 MSTORE DUP1 PUSH1 0x0 DUP2 MSTORE POP PUSH2 0x1C35 JUMP JUMPDEST PUSH1 0x0 DUP1 PUSH1 0x0 DUP8 DUP2 MSTORE PUSH1 0x20 ADD SWAP1 DUP2 MSTORE PUSH1 0x20 ADD PUSH1 0x0 KECCAK256 PUSH1 0x0 DUP9 PUSH20 0xFFFFFFFFFFFFFFFFFFFFFFFFFFFFFFFFFFFFFFFF AND PUSH20 0xFFFFFFFFFFFFFFFFFFFFFFFFFFFFFFFFFFFFFFFF AND DUP2 MSTORE PUSH1 0x20 ADD SWAP1 DUP2 MSTORE PUSH1 0x20 ADD PUSH1 0x0 KECCAK256 SLOAD SWAP1 POP DUP5 DUP2 LT ISZERO PUSH2 0x19C0 JUMPI PUSH1 0x40 MLOAD PUSH32 0x8C379A000000000000000000000000000000000000000000000000000000000 DUP2 MSTORE PUSH1 0x4 ADD PUSH2 0x19B7 SWAP1 PUSH2 0x428D JUMP JUMPDEST PUSH1 0x40 MLOAD DUP1 SWAP2 SUB SWAP1 REVERT JUMPDEST DUP5 DUP2 SUB PUSH1 0x0 DUP1 DUP9 DUP2 MSTORE PUSH1 0x20 ADD SWAP1 DUP2 MSTORE PUSH1 0x20 ADD PUSH1 0x0 KECCAK256 PUSH1 0x0 DUP10 PUSH20 0xFFFFFFFFFFFFFFFFFFFFFFFFFFFFFFFFFFFFFFFF AND PUSH20 0xFFFFFFFFFFFFFFFFFFFFFFFFFFFFFFFFFFFFFFFF AND DUP2 MSTORE PUSH1 0x20 ADD SWAP1 DUP2 MSTORE PUSH1 0x20 ADD PUSH1 0x0 KECCAK256 DUP2 SWAP1 SSTORE POP PUSH1 0x0 PUSH20 0xFFFFFFFFFFFFFFFFFFFFFFFFFFFFFFFFFFFFFFFF AND DUP8 PUSH20 0xFFFFFFFFFFFFFFFFFFFFFFFFFFFFFFFFFFFFFFFF AND DUP6 PUSH20 0xFFFFFFFFFFFFFFFFFFFFFFFFFFFFFFFFFFFFFFFF AND PUSH32 0xC3D58168C5AE7397731D063D5BBF3D657854427343F4C083240F7AACAA2D0F62 DUP10 DUP10 PUSH1 0x40 MLOAD PUSH2 0x1A8D SWAP3 SWAP2 SWAP1 PUSH2 0x40B3 JUMP JUMPDEST PUSH1 0x40 MLOAD DUP1 SWAP2 SUB SWAP1 LOG4 PUSH2 0x1AB3 DUP5 DUP9 PUSH1 0x0 DUP7 DUP7 PUSH1 0x40 MLOAD DUP1 PUSH1 0x20 ADD PUSH1 0x40 MSTORE DUP1 PUSH1 0x0 DUP2 MSTORE POP PUSH2 0x1C4B JUMP JUMPDEST POP POP POP POP POP POP POP JUMP JUMPDEST PUSH1 0x0 PUSH32 0x7965DB0B00000000000000000000000000000000000000000000000000000000 PUSH28 0xFFFFFFFFFFFFFFFFFFFFFFFFFFFFFFFFFFFFFFFFFFFFFFFFFFFFFFFF NOT AND DUP3 PUSH28 0xFFFFFFFFFFFFFFFFFFFFFFFFFFFFFFFFFFFFFFFFFFFFFFFFFFFFFFFF NOT AND EQ DUP1 PUSH2 0x1B2F JUMPI POP PUSH2 0x1B2E DUP3 PUSH2 0x259B JUMP JUMPDEST JUMPDEST SWAP1 POP SWAP2 SWAP1 POP JUMP JUMPDEST PUSH2 0x1B40 DUP3 DUP3 PUSH2 0xE83 JUMP JUMPDEST PUSH2 0x1BB7 JUMPI PUSH2 0x1B4D DUP2 PUSH2 0x267D JUMP JUMPDEST PUSH2 0x1B5B DUP4 PUSH1 0x0 SHR PUSH1 0x20 PUSH2 0x26AA JUMP JUMPDEST PUSH1 0x40 MLOAD PUSH1 0x20 ADD PUSH2 0x1B6C SWAP3 SWAP2 SWAP1 PUSH2 0x4381 JUMP JUMPDEST PUSH1 0x40 MLOAD PUSH1 0x20 DUP2 DUP4 SUB SUB DUP2 MSTORE SWAP1 PUSH1 0x40 MSTORE PUSH1 0x40 MLOAD PUSH32 0x8C379A000000000000000000000000000000000000000000000000000000000 DUP2 MSTORE PUSH1 0x4 ADD PUSH2 0x1BAE SWAP2 SWAP1 PUSH2 0x30FD JUMP JUMPDEST PUSH1 0x40 MLOAD DUP1 SWAP2 SUB SWAP1 REVERT JUMPDEST POP POP JUMP JUMPDEST PUSH1 0x60 PUSH1 0x0 PUSH1 0x1 PUSH8 0xFFFFFFFFFFFFFFFF DUP2 GT ISZERO PUSH2 0x1BDA JUMPI PUSH2 0x1BD9 PUSH2 0x2F0A JUMP JUMPDEST JUMPDEST PUSH1 0x40 MLOAD SWAP1 DUP1 DUP3 MSTORE DUP1 PUSH1 0x20 MUL PUSH1 0x20 ADD DUP3 ADD PUSH1 0x40 MSTORE DUP1 ISZERO PUSH2 0x1C08 JUMPI DUP2 PUSH1 0x20 ADD PUSH1 0x20 DUP3 MUL DUP1 CALLDATASIZE DUP4 CALLDATACOPY DUP1 DUP3 ADD SWAP2 POP POP SWAP1 POP JUMPDEST POP SWAP1 POP DUP3 DUP2 PUSH1 0x0 DUP2 MLOAD DUP2 LT PUSH2 0x1C20 JUMPI PUSH2 0x1C1F PUSH2 0x3CC0 JUMP JUMPDEST JUMPDEST PUSH1 0x20 MUL PUSH1 0x20 ADD ADD DUP2 DUP2 MSTORE POP POP DUP1 SWAP2 POP POP SWAP2 SWAP1 POP JUMP JUMPDEST PUSH2 0x1C43 DUP7 DUP7 DUP7 DUP7 DUP7 DUP7 PUSH2 0x28E6 JUMP JUMPDEST POP POP POP POP POP POP JUMP JUMPDEST POP POP POP POP POP POP JUMP JUMPDEST PUSH2 0x1C72 DUP5 PUSH20 0xFFFFFFFFFFFFFFFFFFFFFFFFFFFFFFFFFFFFFFFF AND PUSH2 0x2AB6 JUMP JUMPDEST ISZERO PUSH2 0x1E22 JUMPI DUP4 PUSH20 0xFFFFFFFFFFFFFFFFFFFFFFFFFFFFFFFFFFFFFFFF AND PUSH4 0xF23A6E61 DUP8 DUP8 DUP7 DUP7 DUP7 PUSH1 0x40 MLOAD DUP7 PUSH4 0xFFFFFFFF AND PUSH1 0xE0 SHL DUP2 MSTORE PUSH1 0x4 ADD PUSH2 0x1CB8 SWAP6 SWAP5 SWAP4 SWAP3 SWAP2 SWAP1 PUSH2 0x4410 JUMP JUMPDEST PUSH1 0x20 PUSH1 0x40 MLOAD DUP1 DUP4 SUB DUP2 PUSH1 0x0 DUP8 GAS CALL SWAP3 POP POP POP DUP1 ISZERO PUSH2 0x1CF4 JUMPI POP PUSH1 0x40 MLOAD RETURNDATASIZE PUSH1 0x1F NOT PUSH1 0x1F DUP3 ADD AND DUP3 ADD DUP1 PUSH1 0x40 MSTORE POP DUP2 ADD SWAP1 PUSH2 0x1CF1 SWAP2 SWAP1 PUSH2 0x447F JUMP JUMPDEST PUSH1 0x1 JUMPDEST PUSH2 0x1D99 JUMPI PUSH2 0x1D00 PUSH2 0x44B9 JUMP JUMPDEST DUP1 PUSH4 0x8C379A0 SUB PUSH2 0x1D5C JUMPI POP PUSH2 0x1D14 PUSH2 0x44DB JUMP JUMPDEST DUP1 PUSH2 0x1D1F JUMPI POP PUSH2 0x1D5E JUMP JUMPDEST DUP1 PUSH1 0x40 MLOAD PUSH32 0x8C379A000000000000000000000000000000000000000000000000000000000 DUP2 MSTORE PUSH1 0x4 ADD PUSH2 0x1D53 SWAP2 SWAP1 PUSH2 0x30FD JUMP JUMPDEST PUSH1 0x40 MLOAD DUP1 SWAP2 SUB SWAP1 REVERT JUMPDEST POP JUMPDEST PUSH1 0x40 MLOAD PUSH32 0x8C379A000000000000000000000000000000000000000000000000000000000 DUP2 MSTORE PUSH1 0x4 ADD PUSH2 0x1D90 SWAP1 PUSH2 0x45DD JUMP JUMPDEST PUSH1 0x40 MLOAD DUP1 SWAP2 SUB SWAP1 REVERT JUMPDEST PUSH4 0xF23A6E61 PUSH1 0xE0 SHL PUSH28 0xFFFFFFFFFFFFFFFFFFFFFFFFFFFFFFFFFFFFFFFFFFFFFFFFFFFFFFFF NOT AND DUP2 PUSH28 0xFFFFFFFFFFFFFFFFFFFFFFFFFFFFFFFFFFFFFFFFFFFFFFFFFFFFFFFF NOT AND EQ PUSH2 0x1E20 JUMPI PUSH1 0x40 MLOAD PUSH32 0x8C379A000000000000000000000000000000000000000000000000000000000 DUP2 MSTORE PUSH1 0x4 ADD PUSH2 0x1E17 SWAP1 PUSH2 0x466F JUMP JUMPDEST PUSH1 0x40 MLOAD DUP1 SWAP2 SUB SWAP1 REVERT JUMPDEST POP JUMPDEST POP POP POP POP POP POP JUMP JUMPDEST DUP2 MLOAD DUP4 MLOAD EQ PUSH2 0x1E6E JUMPI PUSH1 0x40 MLOAD PUSH32 0x8C379A000000000000000000000000000000000000000000000000000000000 DUP2 MSTORE PUSH1 0x4 ADD PUSH2 0x1E65 SWAP1 PUSH2 0x4701 JUMP JUMPDEST PUSH1 0x40 MLOAD DUP1 SWAP2 SUB SWAP1 REVERT JUMPDEST PUSH1 0x0 PUSH20 0xFFFFFFFFFFFFFFFFFFFFFFFFFFFFFFFFFFFFFFFF AND DUP5 PUSH20 0xFFFFFFFFFFFFFFFFFFFFFFFFFFFFFFFFFFFFFFFF AND SUB PUSH2 0x1EDD JUMPI PUSH1 0x40 MLOAD PUSH32 0x8C379A000000000000000000000000000000000000000000000000000000000 DUP2 MSTORE PUSH1 0x4 ADD PUSH2 0x1ED4 SWAP1 PUSH2 0x4793 JUMP JUMPDEST PUSH1 0x40 MLOAD DUP1 SWAP2 SUB SWAP1 REVERT JUMPDEST PUSH1 0x0 PUSH2 0x1EE7 PUSH2 0x160F JUMP JUMPDEST SWAP1 POP PUSH2 0x1EF7 DUP2 DUP8 DUP8 DUP8 DUP8 DUP8 PUSH2 0x1C35 JUMP JUMPDEST PUSH1 0x0 JUMPDEST DUP5 MLOAD DUP2 LT ISZERO PUSH2 0x20A8 JUMPI PUSH1 0x0 DUP6 DUP3 DUP2 MLOAD DUP2 LT PUSH2 0x1F18 JUMPI PUSH2 0x1F17 PUSH2 0x3CC0 JUMP JUMPDEST JUMPDEST PUSH1 0x20 MUL PUSH1 0x20 ADD ADD MLOAD SWAP1 POP PUSH1 0x0 DUP6 DUP4 DUP2 MLOAD DUP2 LT PUSH2 0x1F37 JUMPI PUSH2 0x1F36 PUSH2 0x3CC0 JUMP JUMPDEST JUMPDEST PUSH1 0x20 MUL PUSH1 0x20 ADD ADD MLOAD SWAP1 POP PUSH1 0x0 DUP1 PUSH1 0x0 DUP5 DUP2 MSTORE PUSH1 0x20 ADD SWAP1 DUP2 MSTORE PUSH1 0x20 ADD PUSH1 0x0 KECCAK256 PUSH1 0x0 DUP12 PUSH20 0xFFFFFFFFFFFFFFFFFFFFFFFFFFFFFFFFFFFFFFFF AND PUSH20 0xFFFFFFFFFFFFFFFFFFFFFFFFFFFFFFFFFFFFFFFF AND DUP2 MSTORE PUSH1 0x20 ADD SWAP1 DUP2 MSTORE PUSH1 0x20 ADD PUSH1 0x0 KECCAK256 SLOAD SWAP1 POP DUP2 DUP2 LT ISZERO PUSH2 0x1FD8 JUMPI PUSH1 0x40 MLOAD PUSH32 0x8C379A000000000000000000000000000000000000000000000000000000000 DUP2 MSTORE PUSH1 0x4 ADD PUSH2 0x1FCF SWAP1 PUSH2 0x4825 JUMP JUMPDEST PUSH1 0x40 MLOAD DUP1 SWAP2 SUB SWAP1 REVERT JUMPDEST DUP2 DUP2 SUB PUSH1 0x0 DUP1 DUP6 DUP2 MSTORE PUSH1 0x20 ADD SWAP1 DUP2 MSTORE PUSH1 0x20 ADD PUSH1 0x0 KECCAK256 PUSH1 0x0 DUP13 PUSH20 0xFFFFFFFFFFFFFFFFFFFFFFFFFFFFFFFFFFFFFFFF AND PUSH20 0xFFFFFFFFFFFFFFFFFFFFFFFFFFFFFFFFFFFFFFFF AND DUP2 MSTORE PUSH1 0x20 ADD SWAP1 DUP2 MSTORE PUSH1 0x20 ADD PUSH1 0x0 KECCAK256 DUP2 SWAP1 SSTORE POP DUP2 PUSH1 0x0 DUP1 DUP6 DUP2 MSTORE PUSH1 0x20 ADD SWAP1 DUP2 MSTORE PUSH1 0x20 ADD PUSH1 0x0 KECCAK256 PUSH1 0x0 DUP12 PUSH20 0xFFFFFFFFFFFFFFFFFFFFFFFFFFFFFFFFFFFFFFFF AND PUSH20 0xFFFFFFFFFFFFFFFFFFFFFFFFFFFFFFFFFFFFFFFF AND DUP2 MSTORE PUSH1 0x20 ADD SWAP1 DUP2 MSTORE PUSH1 0x20 ADD PUSH1 0x0 KECCAK256 PUSH1 0x0 DUP3 DUP3 SLOAD PUSH2 0x208D SWAP2 SWAP1 PUSH2 0x3A76 JUMP JUMPDEST SWAP3 POP POP DUP2 SWAP1 SSTORE POP POP POP POP DUP1 PUSH2 0x20A1 SWAP1 PUSH2 0x3CEF JUMP JUMPDEST SWAP1 POP PUSH2 0x1EFA JUMP JUMPDEST POP DUP5 PUSH20 0xFFFFFFFFFFFFFFFFFFFFFFFFFFFFFFFFFFFFFFFF AND DUP7 PUSH20 0xFFFFFFFFFFFFFFFFFFFFFFFFFFFFFFFFFFFFFFFF AND DUP3 PUSH20 0xFFFFFFFFFFFFFFFFFFFFFFFFFFFFFFFFFFFFFFFF AND PUSH32 0x4A39DC06D4C0DBC64B70AF90FD698A233A518AA5D07E595D983B8C0526C8F7FB DUP8 DUP8 PUSH1 0x40 MLOAD PUSH2 0x211F SWAP3 SWAP2 SWAP1 PUSH2 0x4845 JUMP JUMPDEST PUSH1 0x40 MLOAD DUP1 SWAP2 SUB SWAP1 LOG4 PUSH2 0x2135 DUP2 DUP8 DUP8 DUP8 DUP8 DUP8 PUSH2 0x1C4B JUMP JUMPDEST PUSH2 0x2143 DUP2 DUP8 DUP8 DUP8 DUP8 DUP8 PUSH2 0x2AD9 JUMP JUMPDEST POP POP POP POP POP POP JUMP JUMPDEST PUSH2 0x2153 PUSH2 0xE4E JUMP JUMPDEST PUSH2 0x2192 JUMPI PUSH1 0x40 MLOAD PUSH32 0x8C379A000000000000000000000000000000000000000000000000000000000 DUP2 MSTORE PUSH1 0x4 ADD PUSH2 0x2189 SWAP1 PUSH2 0x48C8 JUMP JUMPDEST PUSH1 0x40 MLOAD DUP1 SWAP2 SUB SWAP1 REVERT JUMPDEST JUMP JUMPDEST DUP2 PUSH20 0xFFFFFFFFFFFFFFFFFFFFFFFFFFFFFFFFFFFFFFFF AND DUP4 PUSH20 0xFFFFFFFFFFFFFFFFFFFFFFFFFFFFFFFFFFFFFFFF AND SUB PUSH2 0x2202 JUMPI PUSH1 0x40 MLOAD PUSH32 0x8C379A000000000000000000000000000000000000000000000000000000000 DUP2 MSTORE PUSH1 0x4 ADD PUSH2 0x21F9 SWAP1 PUSH2 0x495A JUMP JUMPDEST PUSH1 0x40 MLOAD DUP1 SWAP2 SUB SWAP1 REVERT JUMPDEST DUP1 PUSH1 0x1 PUSH1 0x0 DUP6 PUSH20 0xFFFFFFFFFFFFFFFFFFFFFFFFFFFFFFFFFFFFFFFF AND PUSH20 0xFFFFFFFFFFFFFFFFFFFFFFFFFFFFFFFFFFFFFFFF AND DUP2 MSTORE PUSH1 0x20 ADD SWAP1 DUP2 MSTORE PUSH1 0x20 ADD PUSH1 0x0 KECCAK256 PUSH1 0x0 DUP5 PUSH20 0xFFFFFFFFFFFFFFFFFFFFFFFFFFFFFFFFFFFFFFFF AND PUSH20 0xFFFFFFFFFFFFFFFFFFFFFFFFFFFFFFFFFFFFFFFF AND DUP2 MSTORE PUSH1 0x20 ADD SWAP1 DUP2 MSTORE PUSH1 0x20 ADD PUSH1 0x0 KECCAK256 PUSH1 0x0 PUSH2 0x100 EXP DUP2 SLOAD DUP2 PUSH1 0xFF MUL NOT AND SWAP1 DUP4 ISZERO ISZERO MUL OR SWAP1 SSTORE POP DUP2 PUSH20 0xFFFFFFFFFFFFFFFFFFFFFFFFFFFFFFFFFFFFFFFF AND DUP4 PUSH20 0xFFFFFFFFFFFFFFFFFFFFFFFFFFFFFFFFFFFFFFFF AND PUSH32 0x17307EAB39AB6107E8899845AD3D59BD9653F200F220920489CA2B5937696C31 DUP4 PUSH1 0x40 MLOAD PUSH2 0x22F3 SWAP2 SWAP1 PUSH2 0x2ED4 JUMP JUMPDEST PUSH1 0x40 MLOAD DUP1 SWAP2 SUB SWAP1 LOG3 POP POP POP JUMP JUMPDEST PUSH1 0x0 PUSH20 0xFFFFFFFFFFFFFFFFFFFFFFFFFFFFFFFFFFFFFFFF AND DUP5 PUSH20 0xFFFFFFFFFFFFFFFFFFFFFFFFFFFFFFFFFFFFFFFF AND SUB PUSH2 0x236F JUMPI PUSH1 0x40 MLOAD PUSH32 0x8C379A000000000000000000000000000000000000000000000000000000000 DUP2 MSTORE PUSH1 0x4 ADD PUSH2 0x2366 SWAP1 PUSH2 0x4793 JUMP JUMPDEST PUSH1 0x40 MLOAD DUP1 SWAP2 SUB SWAP1 REVERT JUMPDEST PUSH1 0x0 PUSH2 0x2379 PUSH2 0x160F JUMP JUMPDEST SWAP1 POP PUSH1 0x0 PUSH2 0x2386 DUP6 PUSH2 0x1BBB JUMP JUMPDEST SWAP1 POP PUSH1 0x0 PUSH2 0x2393 DUP6 PUSH2 0x1BBB JUMP JUMPDEST SWAP1 POP PUSH2 0x23A3 DUP4 DUP10 DUP10 DUP6 DUP6 DUP10 PUSH2 0x1C35 JUMP JUMPDEST PUSH1 0x0 DUP1 PUSH1 0x0 DUP9 DUP2 MSTORE PUSH1 0x20 ADD SWAP1 DUP2 MSTORE PUSH1 0x20 ADD PUSH1 0x0 KECCAK256 PUSH1 0x0 DUP11 PUSH20 0xFFFFFFFFFFFFFFFFFFFFFFFFFFFFFFFFFFFFFFFF AND PUSH20 0xFFFFFFFFFFFFFFFFFFFFFFFFFFFFFFFFFFFFFFFF AND DUP2 MSTORE PUSH1 0x20 ADD SWAP1 DUP2 MSTORE PUSH1 0x20 ADD PUSH1 0x0 KECCAK256 SLOAD SWAP1 POP DUP6 DUP2 LT ISZERO PUSH2 0x243A JUMPI PUSH1 0x40 MLOAD PUSH32 0x8C379A000000000000000000000000000000000000000000000000000000000 DUP2 MSTORE PUSH1 0x4 ADD PUSH2 0x2431 SWAP1 PUSH2 0x4825 JUMP JUMPDEST PUSH1 0x40 MLOAD DUP1 SWAP2 SUB SWAP1 REVERT JUMPDEST DUP6 DUP2 SUB PUSH1 0x0 DUP1 DUP10 DUP2 MSTORE PUSH1 0x20 ADD SWAP1 DUP2 MSTORE PUSH1 0x20 ADD PUSH1 0x0 KECCAK256 PUSH1 0x0 DUP12 PUSH20 0xFFFFFFFFFFFFFFFFFFFFFFFFFFFFFFFFFFFFFFFF AND PUSH20 0xFFFFFFFFFFFFFFFFFFFFFFFFFFFFFFFFFFFFFFFF AND DUP2 MSTORE PUSH1 0x20 ADD SWAP1 DUP2 MSTORE PUSH1 0x20 ADD PUSH1 0x0 KECCAK256 DUP2 SWAP1 SSTORE POP DUP6 PUSH1 0x0 DUP1 DUP10 DUP2 MSTORE PUSH1 0x20 ADD SWAP1 DUP2 MSTORE PUSH1 0x20 ADD PUSH1 0x0 KECCAK256 PUSH1 0x0 DUP11 PUSH20 0xFFFFFFFFFFFFFFFFFFFFFFFFFFFFFFFFFFFFFFFF AND PUSH20 0xFFFFFFFFFFFFFFFFFFFFFFFFFFFFFFFFFFFFFFFF AND DUP2 MSTORE PUSH1 0x20 ADD SWAP1 DUP2 MSTORE PUSH1 0x20 ADD PUSH1 0x0 KECCAK256 PUSH1 0x0 DUP3 DUP3 SLOAD PUSH2 0x24EF SWAP2 SWAP1 PUSH2 0x3A76 JUMP JUMPDEST SWAP3 POP POP DUP2 SWAP1 SSTORE POP DUP8 PUSH20 0xFFFFFFFFFFFFFFFFFFFFFFFFFFFFFFFFFFFFFFFF AND DUP10 PUSH20 0xFFFFFFFFFFFFFFFFFFFFFFFFFFFFFFFFFFFFFFFF AND DUP6 PUSH20 0xFFFFFFFFFFFFFFFFFFFFFFFFFFFFFFFFFFFFFFFF AND PUSH32 0xC3D58168C5AE7397731D063D5BBF3D657854427343F4C083240F7AACAA2D0F62 DUP11 DUP11 PUSH1 0x40 MLOAD PUSH2 0x256C SWAP3 SWAP2 SWAP1 PUSH2 0x40B3 JUMP JUMPDEST PUSH1 0x40 MLOAD DUP1 SWAP2 SUB SWAP1 LOG4 PUSH2 0x2582 DUP5 DUP11 DUP11 DUP7 DUP7 DUP11 PUSH2 0x1C4B JUMP JUMPDEST PUSH2 0x2590 DUP5 DUP11 DUP11 DUP11 DUP11 DUP11 PUSH2 0x1C53 JUMP JUMPDEST POP POP POP POP POP POP POP POP POP JUMP JUMPDEST PUSH1 0x0 PUSH32 0xD9B67A2600000000000000000000000000000000000000000000000000000000 PUSH28 0xFFFFFFFFFFFFFFFFFFFFFFFFFFFFFFFFFFFFFFFFFFFFFFFFFFFFFFFF NOT AND DUP3 PUSH28 0xFFFFFFFFFFFFFFFFFFFFFFFFFFFFFFFFFFFFFFFFFFFFFFFFFFFFFFFF NOT AND EQ DUP1 PUSH2 0x2666 JUMPI POP PUSH32 0xE89341C00000000000000000000000000000000000000000000000000000000 PUSH28 0xFFFFFFFFFFFFFFFFFFFFFFFFFFFFFFFFFFFFFFFFFFFFFFFFFFFFFFFF NOT AND DUP3 PUSH28 0xFFFFFFFFFFFFFFFFFFFFFFFFFFFFFFFFFFFFFFFFFFFFFFFFFFFFFFFF NOT AND EQ JUMPDEST DUP1 PUSH2 0x2676 JUMPI POP PUSH2 0x2675 DUP3 PUSH2 0x2CB0 JUMP JUMPDEST JUMPDEST SWAP1 POP SWAP2 SWAP1 POP JUMP JUMPDEST PUSH1 0x60 PUSH2 0x26A3 DUP3 PUSH20 0xFFFFFFFFFFFFFFFFFFFFFFFFFFFFFFFFFFFFFFFF AND PUSH1 0x14 PUSH1 0xFF AND PUSH2 0x26AA JUMP JUMPDEST SWAP1 POP SWAP2 SWAP1 POP JUMP JUMPDEST PUSH1 0x60 PUSH1 0x0 PUSH1 0x2 DUP4 PUSH1 0x2 PUSH2 0x26BD SWAP2 SWAP1 PUSH2 0x39C8 JUMP JUMPDEST PUSH2 0x26C7 SWAP2 SWAP1 PUSH2 0x3A76 JUMP JUMPDEST PUSH8 0xFFFFFFFFFFFFFFFF DUP2 GT ISZERO PUSH2 0x26E0 JUMPI PUSH2 0x26DF PUSH2 0x2F0A JUMP JUMPDEST JUMPDEST PUSH1 0x40 MLOAD SWAP1 DUP1 DUP3 MSTORE DUP1 PUSH1 0x1F ADD PUSH1 0x1F NOT AND PUSH1 0x20 ADD DUP3 ADD PUSH1 0x40 MSTORE DUP1 ISZERO PUSH2 0x2712 JUMPI DUP2 PUSH1 0x20 ADD PUSH1 0x1 DUP3 MUL DUP1 CALLDATASIZE DUP4 CALLDATACOPY DUP1 DUP3 ADD SWAP2 POP POP SWAP1 POP JUMPDEST POP SWAP1 POP PUSH32 0x3000000000000000000000000000000000000000000000000000000000000000 DUP2 PUSH1 0x0 DUP2 MLOAD DUP2 LT PUSH2 0x274A JUMPI PUSH2 0x2749 PUSH2 0x3CC0 JUMP JUMPDEST JUMPDEST PUSH1 0x20 ADD ADD SWAP1 PUSH31 0xFFFFFFFFFFFFFFFFFFFFFFFFFFFFFFFFFFFFFFFFFFFFFFFFFFFFFFFFFFFFFF NOT AND SWAP1 DUP2 PUSH1 0x0 BYTE SWAP1 MSTORE8 POP PUSH32 0x7800000000000000000000000000000000000000000000000000000000000000 DUP2 PUSH1 0x1 DUP2 MLOAD DUP2 LT PUSH2 0x27AE JUMPI PUSH2 0x27AD PUSH2 0x3CC0 JUMP JUMPDEST JUMPDEST PUSH1 0x20 ADD ADD SWAP1 PUSH31 0xFFFFFFFFFFFFFFFFFFFFFFFFFFFFFFFFFFFFFFFFFFFFFFFFFFFFFFFFFFFFFF NOT AND SWAP1 DUP2 PUSH1 0x0 BYTE SWAP1 MSTORE8 POP PUSH1 0x0 PUSH1 0x1 DUP5 PUSH1 0x2 PUSH2 0x27EE SWAP2 SWAP1 PUSH2 0x39C8 JUMP JUMPDEST PUSH2 0x27F8 SWAP2 SWAP1 PUSH2 0x3A76 JUMP JUMPDEST SWAP1 POP JUMPDEST PUSH1 0x1 DUP2 GT ISZERO PUSH2 0x2898 JUMPI PUSH32 0x3031323334353637383961626364656600000000000000000000000000000000 PUSH1 0xF DUP7 AND PUSH1 0x10 DUP2 LT PUSH2 0x283A JUMPI PUSH2 0x2839 PUSH2 0x3CC0 JUMP JUMPDEST JUMPDEST BYTE PUSH1 0xF8 SHL DUP3 DUP3 DUP2 MLOAD DUP2 LT PUSH2 0x2851 JUMPI PUSH2 0x2850 PUSH2 0x3CC0 JUMP JUMPDEST JUMPDEST PUSH1 0x20 ADD ADD SWAP1 PUSH31 0xFFFFFFFFFFFFFFFFFFFFFFFFFFFFFFFFFFFFFFFFFFFFFFFFFFFFFFFFFFFFFF NOT AND SWAP1 DUP2 PUSH1 0x0 BYTE SWAP1 MSTORE8 POP PUSH1 0x4 DUP6 SWAP1 SHR SWAP5 POP DUP1 PUSH2 0x2891 SWAP1 PUSH2 0x497A JUMP JUMPDEST SWAP1 POP PUSH2 0x27FB JUMP JUMPDEST POP PUSH1 0x0 DUP5 EQ PUSH2 0x28DC JUMPI PUSH1 0x40 MLOAD PUSH32 0x8C379A000000000000000000000000000000000000000000000000000000000 DUP2 MSTORE PUSH1 0x4 ADD PUSH2 0x28D3 SWAP1 PUSH2 0x49EF JUMP JUMPDEST PUSH1 0x40 MLOAD DUP1 SWAP2 SUB SWAP1 REVERT JUMPDEST DUP1 SWAP2 POP POP SWAP3 SWAP2 POP POP JUMP JUMPDEST PUSH2 0x28F4 DUP7 DUP7 DUP7 DUP7 DUP7 DUP7 PUSH2 0x2D1A JUMP JUMPDEST PUSH1 0x0 PUSH20 0xFFFFFFFFFFFFFFFFFFFFFFFFFFFFFFFFFFFFFFFF AND DUP6 PUSH20 0xFFFFFFFFFFFFFFFFFFFFFFFFFFFFFFFFFFFFFFFF AND SUB PUSH2 0x29A5 JUMPI PUSH1 0x0 JUMPDEST DUP4 MLOAD DUP2 LT ISZERO PUSH2 0x29A3 JUMPI DUP3 DUP2 DUP2 MLOAD DUP2 LT PUSH2 0x2947 JUMPI PUSH2 0x2946 PUSH2 0x3CC0 JUMP JUMPDEST JUMPDEST PUSH1 0x20 MUL PUSH1 0x20 ADD ADD MLOAD PUSH1 0x5 PUSH1 0x0 DUP7 DUP5 DUP2 MLOAD DUP2 LT PUSH2 0x2966 JUMPI PUSH2 0x2965 PUSH2 0x3CC0 JUMP JUMPDEST JUMPDEST PUSH1 0x20 MUL PUSH1 0x20 ADD ADD MLOAD DUP2 MSTORE PUSH1 0x20 ADD SWAP1 DUP2 MSTORE PUSH1 0x20 ADD PUSH1 0x0 KECCAK256 PUSH1 0x0 DUP3 DUP3 SLOAD PUSH2 0x298B SWAP2 SWAP1 PUSH2 0x3A76 JUMP JUMPDEST SWAP3 POP POP DUP2 SWAP1 SSTORE POP DUP1 PUSH2 0x299C SWAP1 PUSH2 0x3CEF JUMP JUMPDEST SWAP1 POP PUSH2 0x292B JUMP JUMPDEST POP JUMPDEST PUSH1 0x0 PUSH20 0xFFFFFFFFFFFFFFFFFFFFFFFFFFFFFFFFFFFFFFFF AND DUP5 PUSH20 0xFFFFFFFFFFFFFFFFFFFFFFFFFFFFFFFFFFFFFFFF AND SUB PUSH2 0x2AAE JUMPI PUSH1 0x0 JUMPDEST DUP4 MLOAD DUP2 LT ISZERO PUSH2 0x2AAC JUMPI PUSH1 0x0 DUP5 DUP3 DUP2 MLOAD DUP2 LT PUSH2 0x29FA JUMPI PUSH2 0x29F9 PUSH2 0x3CC0 JUMP JUMPDEST JUMPDEST PUSH1 0x20 MUL PUSH1 0x20 ADD ADD MLOAD SWAP1 POP PUSH1 0x0 DUP5 DUP4 DUP2 MLOAD DUP2 LT PUSH2 0x2A19 JUMPI PUSH2 0x2A18 PUSH2 0x3CC0 JUMP JUMPDEST JUMPDEST PUSH1 0x20 MUL PUSH1 0x20 ADD ADD MLOAD SWAP1 POP PUSH1 0x0 PUSH1 0x5 PUSH1 0x0 DUP5 DUP2 MSTORE PUSH1 0x20 ADD SWAP1 DUP2 MSTORE PUSH1 0x20 ADD PUSH1 0x0 KECCAK256 SLOAD SWAP1 POP DUP2 DUP2 LT ISZERO PUSH2 0x2A7E JUMPI PUSH1 0x40 MLOAD PUSH32 0x8C379A000000000000000000000000000000000000000000000000000000000 DUP2 MSTORE PUSH1 0x4 ADD PUSH2 0x2A75 SWAP1 PUSH2 0x4A81 JUMP JUMPDEST PUSH1 0x40 MLOAD DUP1 SWAP2 SUB SWAP1 REVERT JUMPDEST DUP2 DUP2 SUB PUSH1 0x5 PUSH1 0x0 DUP6 DUP2 MSTORE PUSH1 0x20 ADD SWAP1 DUP2 MSTORE PUSH1 0x20 ADD PUSH1 0x0 KECCAK256 DUP2 SWAP1 SSTORE POP POP POP POP DUP1 PUSH2 0x2AA5 SWAP1 PUSH2 0x3CEF JUMP JUMPDEST SWAP1 POP PUSH2 0x29DC JUMP JUMPDEST POP JUMPDEST POP POP POP POP POP POP JUMP JUMPDEST PUSH1 0x0 DUP1 DUP3 PUSH20 0xFFFFFFFFFFFFFFFFFFFFFFFFFFFFFFFFFFFFFFFF AND EXTCODESIZE GT SWAP1 POP SWAP2 SWAP1 POP JUMP JUMPDEST PUSH2 0x2AF8 DUP5 PUSH20 0xFFFFFFFFFFFFFFFFFFFFFFFFFFFFFFFFFFFFFFFF AND PUSH2 0x2AB6 JUMP JUMPDEST ISZERO PUSH2 0x2CA8 JUMPI DUP4 PUSH20 0xFFFFFFFFFFFFFFFFFFFFFFFFFFFFFFFFFFFFFFFF AND PUSH4 0xBC197C81 DUP8 DUP8 DUP7 DUP7 DUP7 PUSH1 0x40 MLOAD DUP7 PUSH4 0xFFFFFFFF AND PUSH1 0xE0 SHL DUP2 MSTORE PUSH1 0x4 ADD PUSH2 0x2B3E SWAP6 SWAP5 SWAP4 SWAP3 SWAP2 SWAP1 PUSH2 0x4AA1 JUMP JUMPDEST PUSH1 0x20 PUSH1 0x40 MLOAD DUP1 DUP4 SUB DUP2 PUSH1 0x0 DUP8 GAS CALL SWAP3 POP POP POP DUP1 ISZERO PUSH2 0x2B7A JUMPI POP PUSH1 0x40 MLOAD RETURNDATASIZE PUSH1 0x1F NOT PUSH1 0x1F DUP3 ADD AND DUP3 ADD DUP1 PUSH1 0x40 MSTORE POP DUP2 ADD SWAP1 PUSH2 0x2B77 SWAP2 SWAP1 PUSH2 0x447F JUMP JUMPDEST PUSH1 0x1 JUMPDEST PUSH2 0x2C1F JUMPI PUSH2 0x2B86 PUSH2 0x44B9 JUMP JUMPDEST DUP1 PUSH4 0x8C379A0 SUB PUSH2 0x2BE2 JUMPI POP PUSH2 0x2B9A PUSH2 0x44DB JUMP JUMPDEST DUP1 PUSH2 0x2BA5 JUMPI POP PUSH2 0x2BE4 JUMP JUMPDEST DUP1 PUSH1 0x40 MLOAD PUSH32 0x8C379A000000000000000000000000000000000000000000000000000000000 DUP2 MSTORE PUSH1 0x4 ADD PUSH2 0x2BD9 SWAP2 SWAP1 PUSH2 0x30FD JUMP JUMPDEST PUSH1 0x40 MLOAD DUP1 SWAP2 SUB SWAP1 REVERT JUMPDEST POP JUMPDEST PUSH1 0x40 MLOAD PUSH32 0x8C379A000000000000000000000000000000000000000000000000000000000 DUP2 MSTORE PUSH1 0x4 ADD PUSH2 0x2C16 SWAP1 PUSH2 0x45DD JUMP JUMPDEST PUSH1 0x40 MLOAD DUP1 SWAP2 SUB SWAP1 REVERT JUMPDEST PUSH4 0xBC197C81 PUSH1 0xE0 SHL PUSH28 0xFFFFFFFFFFFFFFFFFFFFFFFFFFFFFFFFFFFFFFFFFFFFFFFFFFFFFFFF NOT AND DUP2 PUSH28 0xFFFFFFFFFFFFFFFFFFFFFFFFFFFFFFFFFFFFFFFFFFFFFFFFFFFFFFFF NOT AND EQ PUSH2 0x2CA6 JUMPI PUSH1 0x40 MLOAD PUSH32 0x8C379A000000000000000000000000000000000000000000000000000000000 DUP2 MSTORE PUSH1 0x4 ADD PUSH2 0x2C9D SWAP1 PUSH2 0x466F JUMP JUMPDEST PUSH1 0x40 MLOAD DUP1 SWAP2 SUB SWAP1 REVERT JUMPDEST POP JUMPDEST POP POP POP POP POP POP JUMP JUMPDEST PUSH1 0x0 PUSH32 0x1FFC9A700000000000000000000000000000000000000000000000000000000 PUSH28 0xFFFFFFFFFFFFFFFFFFFFFFFFFFFFFFFFFFFFFFFFFFFFFFFFFFFFFFFF NOT AND DUP3 PUSH28 0xFFFFFFFFFFFFFFFFFFFFFFFFFFFFFFFFFFFFFFFFFFFFFFFFFFFFFFFF NOT AND EQ SWAP1 POP SWAP2 SWAP1 POP JUMP JUMPDEST POP POP POP POP POP POP JUMP JUMPDEST PUSH1 0x0 PUSH1 0x40 MLOAD SWAP1 POP SWAP1 JUMP JUMPDEST PUSH1 0x0 DUP1 REVERT JUMPDEST PUSH1 0x0 DUP1 REVERT JUMPDEST PUSH1 0x0 PUSH20 0xFFFFFFFFFFFFFFFFFFFFFFFFFFFFFFFFFFFFFFFF DUP3 AND SWAP1 POP SWAP2 SWAP1 POP JUMP JUMPDEST PUSH1 0x0 PUSH2 0x2D61 DUP3 PUSH2 0x2D36 JUMP JUMPDEST SWAP1 POP SWAP2 SWAP1 POP JUMP JUMPDEST PUSH2 0x2D71 DUP2 PUSH2 0x2D56 JUMP JUMPDEST DUP2 EQ PUSH2 0x2D7C JUMPI PUSH1 0x0 DUP1 REVERT JUMPDEST POP JUMP JUMPDEST PUSH1 0x0 DUP2 CALLDATALOAD SWAP1 POP PUSH2 0x2D8E DUP2 PUSH2 0x2D68 JUMP JUMPDEST SWAP3 SWAP2 POP POP JUMP JUMPDEST PUSH1 0x0 DUP2 SWAP1 POP SWAP2 SWAP1 POP JUMP JUMPDEST PUSH2 0x2DA7 DUP2 PUSH2 0x2D94 JUMP JUMPDEST DUP2 EQ PUSH2 0x2DB2 JUMPI PUSH1 0x0 DUP1 REVERT JUMPDEST POP JUMP JUMPDEST PUSH1 0x0 DUP2 CALLDATALOAD SWAP1 POP PUSH2 0x2DC4 DUP2 PUSH2 0x2D9E JUMP JUMPDEST SWAP3 SWAP2 POP POP JUMP JUMPDEST PUSH1 0x0 DUP1 PUSH1 0x40 DUP4 DUP6 SUB SLT ISZERO PUSH2 0x2DE1 JUMPI PUSH2 0x2DE0 PUSH2 0x2D2C JUMP JUMPDEST JUMPDEST PUSH1 0x0 PUSH2 0x2DEF DUP6 DUP3 DUP7 ADD PUSH2 0x2D7F JUMP JUMPDEST SWAP3 POP POP PUSH1 0x20 PUSH2 0x2E00 DUP6 DUP3 DUP7 ADD PUSH2 0x2DB5 JUMP JUMPDEST SWAP2 POP POP SWAP3 POP SWAP3 SWAP1 POP JUMP JUMPDEST PUSH2 0x2E13 DUP2 PUSH2 0x2D94 JUMP JUMPDEST DUP3 MSTORE POP POP JUMP JUMPDEST PUSH1 0x0 PUSH1 0x20 DUP3 ADD SWAP1 POP PUSH2 0x2E2E PUSH1 0x0 DUP4 ADD DUP5 PUSH2 0x2E0A JUMP JUMPDEST SWAP3 SWAP2 POP POP JUMP JUMPDEST PUSH1 0x0 PUSH32 0xFFFFFFFF00000000000000000000000000000000000000000000000000000000 DUP3 AND SWAP1 POP SWAP2 SWAP1 POP JUMP JUMPDEST PUSH2 0x2E69 DUP2 PUSH2 0x2E34 JUMP JUMPDEST DUP2 EQ PUSH2 0x2E74 JUMPI PUSH1 0x0 DUP1 REVERT JUMPDEST POP JUMP JUMPDEST PUSH1 0x0 DUP2 CALLDATALOAD SWAP1 POP PUSH2 0x2E86 DUP2 PUSH2 0x2E60 JUMP JUMPDEST SWAP3 SWAP2 POP POP JUMP JUMPDEST PUSH1 0x0 PUSH1 0x20 DUP3 DUP5 SUB SLT ISZERO PUSH2 0x2EA2 JUMPI PUSH2 0x2EA1 PUSH2 0x2D2C JUMP JUMPDEST JUMPDEST PUSH1 0x0 PUSH2 0x2EB0 DUP5 DUP3 DUP6 ADD PUSH2 0x2E77 JUMP JUMPDEST SWAP2 POP POP SWAP3 SWAP2 POP POP JUMP JUMPDEST PUSH1 0x0 DUP2 ISZERO ISZERO SWAP1 POP SWAP2 SWAP1 POP JUMP JUMPDEST PUSH2 0x2ECE DUP2 PUSH2 0x2EB9 JUMP JUMPDEST DUP3 MSTORE POP POP JUMP JUMPDEST PUSH1 0x0 PUSH1 0x20 DUP3 ADD SWAP1 POP PUSH2 0x2EE9 PUSH1 0x0 DUP4 ADD DUP5 PUSH2 0x2EC5 JUMP JUMPDEST SWAP3 SWAP2 POP POP JUMP JUMPDEST PUSH1 0x0 DUP1 REVERT JUMPDEST PUSH1 0x0 DUP1 REVERT JUMPDEST PUSH1 0x0 PUSH1 0x1F NOT PUSH1 0x1F DUP4 ADD AND SWAP1 POP SWAP2 SWAP1 POP JUMP JUMPDEST PUSH32 0x4E487B7100000000000000000000000000000000000000000000000000000000 PUSH1 0x0 MSTORE PUSH1 0x41 PUSH1 0x4 MSTORE PUSH1 0x24 PUSH1 0x0 REVERT JUMPDEST PUSH2 0x2F42 DUP3 PUSH2 0x2EF9 JUMP JUMPDEST DUP2 ADD DUP2 DUP2 LT PUSH8 0xFFFFFFFFFFFFFFFF DUP3 GT OR ISZERO PUSH2 0x2F61 JUMPI PUSH2 0x2F60 PUSH2 0x2F0A JUMP JUMPDEST JUMPDEST DUP1 PUSH1 0x40 MSTORE POP POP POP JUMP JUMPDEST PUSH1 0x0 PUSH2 0x2F74 PUSH2 0x2D22 JUMP JUMPDEST SWAP1 POP PUSH2 0x2F80 DUP3 DUP3 PUSH2 0x2F39 JUMP JUMPDEST SWAP2 SWAP1 POP JUMP JUMPDEST PUSH1 0x0 PUSH8 0xFFFFFFFFFFFFFFFF DUP3 GT ISZERO PUSH2 0x2FA0 JUMPI PUSH2 0x2F9F PUSH2 0x2F0A JUMP JUMPDEST JUMPDEST PUSH2 0x2FA9 DUP3 PUSH2 0x2EF9 JUMP JUMPDEST SWAP1 POP PUSH1 0x20 DUP2 ADD SWAP1 POP SWAP2 SWAP1 POP JUMP JUMPDEST DUP3 DUP2 DUP4 CALLDATACOPY PUSH1 0x0 DUP4 DUP4 ADD MSTORE POP POP POP JUMP JUMPDEST PUSH1 0x0 PUSH2 0x2FD8 PUSH2 0x2FD3 DUP5 PUSH2 0x2F85 JUMP JUMPDEST PUSH2 0x2F6A JUMP JUMPDEST SWAP1 POP DUP3 DUP2 MSTORE PUSH1 0x20 DUP2 ADD DUP5 DUP5 DUP5 ADD GT ISZERO PUSH2 0x2FF4 JUMPI PUSH2 0x2FF3 PUSH2 0x2EF4 JUMP JUMPDEST JUMPDEST PUSH2 0x2FFF DUP5 DUP3 DUP6 PUSH2 0x2FB6 JUMP JUMPDEST POP SWAP4 SWAP3 POP POP POP JUMP JUMPDEST PUSH1 0x0 DUP3 PUSH1 0x1F DUP4 ADD SLT PUSH2 0x301C JUMPI PUSH2 0x301B PUSH2 0x2EEF JUMP JUMPDEST JUMPDEST DUP2 CALLDATALOAD PUSH2 0x302C DUP5 DUP3 PUSH1 0x20 DUP7 ADD PUSH2 0x2FC5 JUMP JUMPDEST SWAP2 POP POP SWAP3 SWAP2 POP POP JUMP JUMPDEST PUSH1 0x0 PUSH1 0x20 DUP3 DUP5 SUB SLT ISZERO PUSH2 0x304B JUMPI PUSH2 0x304A PUSH2 0x2D2C JUMP JUMPDEST JUMPDEST PUSH1 0x0 DUP3 ADD CALLDATALOAD PUSH8 0xFFFFFFFFFFFFFFFF DUP2 GT ISZERO PUSH2 0x3069 JUMPI PUSH2 0x3068 PUSH2 0x2D31 JUMP JUMPDEST JUMPDEST PUSH2 0x3075 DUP5 DUP3 DUP6 ADD PUSH2 0x3007 JUMP JUMPDEST SWAP2 POP POP SWAP3 SWAP2 POP POP JUMP JUMPDEST PUSH1 0x0 DUP2 MLOAD SWAP1 POP SWAP2 SWAP1 POP JUMP JUMPDEST PUSH1 0x0 DUP3 DUP3 MSTORE PUSH1 0x20 DUP3 ADD SWAP1 POP SWAP3 SWAP2 POP POP JUMP JUMPDEST PUSH1 0x0 JUMPDEST DUP4 DUP2 LT ISZERO PUSH2 0x30B8 JUMPI DUP1 DUP3 ADD MLOAD DUP2 DUP5 ADD MSTORE PUSH1 0x20 DUP2 ADD SWAP1 POP PUSH2 0x309D JUMP JUMPDEST PUSH1 0x0 DUP5 DUP5 ADD MSTORE POP POP POP POP JUMP JUMPDEST PUSH1 0x0 PUSH2 0x30CF DUP3 PUSH2 0x307E JUMP JUMPDEST PUSH2 0x30D9 DUP2 DUP6 PUSH2 0x3089 JUMP JUMPDEST SWAP4 POP PUSH2 0x30E9 DUP2 DUP6 PUSH1 0x20 DUP7 ADD PUSH2 0x309A JUMP JUMPDEST PUSH2 0x30F2 DUP2 PUSH2 0x2EF9 JUMP JUMPDEST DUP5 ADD SWAP2 POP POP SWAP3 SWAP2 POP POP JUMP JUMPDEST PUSH1 0x0 PUSH1 0x20 DUP3 ADD SWAP1 POP DUP2 DUP2 SUB PUSH1 0x0 DUP4 ADD MSTORE PUSH2 0x3117 DUP2 DUP5 PUSH2 0x30C4 JUMP JUMPDEST SWAP1 POP SWAP3 SWAP2 POP POP JUMP JUMPDEST PUSH1 0x0 PUSH1 0x20 DUP3 DUP5 SUB SLT ISZERO PUSH2 0x3135 JUMPI PUSH2 0x3134 PUSH2 0x2D2C JUMP JUMPDEST JUMPDEST PUSH1 0x0 PUSH2 0x3143 DUP5 DUP3 DUP6 ADD PUSH2 0x2DB5 JUMP JUMPDEST SWAP2 POP POP SWAP3 SWAP2 POP POP JUMP JUMPDEST PUSH1 0x0 DUP1 PUSH1 0x40 DUP4 DUP6 SUB SLT ISZERO PUSH2 0x3163 JUMPI PUSH2 0x3162 PUSH2 0x2D2C JUMP JUMPDEST JUMPDEST PUSH1 0x0 PUSH2 0x3171 DUP6 DUP3 DUP7 ADD PUSH2 0x2DB5 JUMP JUMPDEST SWAP3 POP POP PUSH1 0x20 PUSH2 0x3182 DUP6 DUP3 DUP7 ADD PUSH2 0x2DB5 JUMP JUMPDEST SWAP2 POP POP SWAP3 POP SWAP3 SWAP1 POP JUMP JUMPDEST PUSH1 0x0 DUP2 SWAP1 POP SWAP2 SWAP1 POP JUMP JUMPDEST PUSH2 0x319F DUP2 PUSH2 0x318C JUMP JUMPDEST DUP2 EQ PUSH2 0x31AA JUMPI PUSH1 0x0 DUP1 REVERT JUMPDEST POP JUMP JUMPDEST PUSH1 0x0 DUP2 CALLDATALOAD SWAP1 POP PUSH2 0x31BC DUP2 PUSH2 0x3196 JUMP JUMPDEST SWAP3 SWAP2 POP POP JUMP JUMPDEST PUSH1 0x0 PUSH1 0x20 DUP3 DUP5 SUB SLT ISZERO PUSH2 0x31D8 JUMPI PUSH2 0x31D7 PUSH2 0x2D2C JUMP JUMPDEST JUMPDEST PUSH1 0x0 PUSH2 0x31E6 DUP5 DUP3 DUP6 ADD PUSH2 0x31AD JUMP JUMPDEST SWAP2 POP POP SWAP3 SWAP2 POP POP JUMP JUMPDEST PUSH2 0x31F8 DUP2 PUSH2 0x318C JUMP JUMPDEST DUP3 MSTORE POP POP JUMP JUMPDEST PUSH1 0x0 PUSH1 0x20 DUP3 ADD SWAP1 POP PUSH2 0x3213 PUSH1 0x0 DUP4 ADD DUP5 PUSH2 0x31EF JUMP JUMPDEST SWAP3 SWAP2 POP POP JUMP JUMPDEST PUSH2 0x3222 DUP2 PUSH2 0x2D56 JUMP JUMPDEST DUP3 MSTORE POP POP JUMP JUMPDEST PUSH1 0x0 PUSH1 0x40 DUP3 ADD SWAP1 POP PUSH2 0x323D PUSH1 0x0 DUP4 ADD DUP6 PUSH2 0x3219 JUMP JUMPDEST PUSH2 0x324A PUSH1 0x20 DUP4 ADD DUP5 PUSH2 0x2E0A JUMP JUMPDEST SWAP4 SWAP3 POP POP POP JUMP JUMPDEST PUSH1 0x0 PUSH8 0xFFFFFFFFFFFFFFFF DUP3 GT ISZERO PUSH2 0x326C JUMPI PUSH2 0x326B PUSH2 0x2F0A JUMP JUMPDEST JUMPDEST PUSH1 0x20 DUP3 MUL SWAP1 POP PUSH1 0x20 DUP2 ADD SWAP1 POP SWAP2 SWAP1 POP JUMP JUMPDEST PUSH1 0x0 DUP1 REVERT JUMPDEST PUSH1 0x0 PUSH2 0x3295 PUSH2 0x3290 DUP5 PUSH2 0x3251 JUMP JUMPDEST PUSH2 0x2F6A JUMP JUMPDEST SWAP1 POP DUP1 DUP4 DUP3 MSTORE PUSH1 0x20 DUP3 ADD SWAP1 POP PUSH1 0x20 DUP5 MUL DUP4 ADD DUP6 DUP2 GT ISZERO PUSH2 0x32B8 JUMPI PUSH2 0x32B7 PUSH2 0x327D JUMP JUMPDEST JUMPDEST DUP4 JUMPDEST DUP2 DUP2 LT ISZERO PUSH2 0x32E1 JUMPI DUP1 PUSH2 0x32CD DUP9 DUP3 PUSH2 0x2DB5 JUMP JUMPDEST DUP5 MSTORE PUSH1 0x20 DUP5 ADD SWAP4 POP POP PUSH1 0x20 DUP2 ADD SWAP1 POP PUSH2 0x32BA JUMP JUMPDEST POP POP POP SWAP4 SWAP3 POP POP POP JUMP JUMPDEST PUSH1 0x0 DUP3 PUSH1 0x1F DUP4 ADD SLT PUSH2 0x3300 JUMPI PUSH2 0x32FF PUSH2 0x2EEF JUMP JUMPDEST JUMPDEST DUP2 CALLDATALOAD PUSH2 0x3310 DUP5 DUP3 PUSH1 0x20 DUP7 ADD PUSH2 0x3282 JUMP JUMPDEST SWAP2 POP POP SWAP3 SWAP2 POP POP JUMP JUMPDEST PUSH1 0x0 PUSH8 0xFFFFFFFFFFFFFFFF DUP3 GT ISZERO PUSH2 0x3334 JUMPI PUSH2 0x3333 PUSH2 0x2F0A JUMP JUMPDEST JUMPDEST PUSH2 0x333D DUP3 PUSH2 0x2EF9 JUMP JUMPDEST SWAP1 POP PUSH1 0x20 DUP2 ADD SWAP1 POP SWAP2 SWAP1 POP JUMP JUMPDEST PUSH1 0x0 PUSH2 0x335D PUSH2 0x3358 DUP5 PUSH2 0x3319 JUMP JUMPDEST PUSH2 0x2F6A JUMP JUMPDEST SWAP1 POP DUP3 DUP2 MSTORE PUSH1 0x20 DUP2 ADD DUP5 DUP5 DUP5 ADD GT ISZERO PUSH2 0x3379 JUMPI PUSH2 0x3378 PUSH2 0x2EF4 JUMP JUMPDEST JUMPDEST PUSH2 0x3384 DUP5 DUP3 DUP6 PUSH2 0x2FB6 JUMP JUMPDEST POP SWAP4 SWAP3 POP POP POP JUMP JUMPDEST PUSH1 0x0 DUP3 PUSH1 0x1F DUP4 ADD SLT PUSH2 0x33A1 JUMPI PUSH2 0x33A0 PUSH2 0x2EEF JUMP JUMPDEST JUMPDEST DUP2 CALLDATALOAD PUSH2 0x33B1 DUP5 DUP3 PUSH1 0x20 DUP7 ADD PUSH2 0x334A JUMP JUMPDEST SWAP2 POP POP SWAP3 SWAP2 POP POP JUMP JUMPDEST PUSH1 0x0 DUP1 PUSH1 0x0 DUP1 PUSH1 0x0 PUSH1 0xA0 DUP7 DUP9 SUB SLT ISZERO PUSH2 0x33D6 JUMPI PUSH2 0x33D5 PUSH2 0x2D2C JUMP JUMPDEST JUMPDEST PUSH1 0x0 PUSH2 0x33E4 DUP9 DUP3 DUP10 ADD PUSH2 0x2D7F JUMP JUMPDEST SWAP6 POP POP PUSH1 0x20 PUSH2 0x33F5 DUP9 DUP3 DUP10 ADD PUSH2 0x2D7F JUMP JUMPDEST SWAP5 POP POP PUSH1 0x40 DUP7 ADD CALLDATALOAD PUSH8 0xFFFFFFFFFFFFFFFF DUP2 GT ISZERO PUSH2 0x3416 JUMPI PUSH2 0x3415 PUSH2 0x2D31 JUMP JUMPDEST JUMPDEST PUSH2 0x3422 DUP9 DUP3 DUP10 ADD PUSH2 0x32EB JUMP JUMPDEST SWAP4 POP POP PUSH1 0x60 DUP7 ADD CALLDATALOAD PUSH8 0xFFFFFFFFFFFFFFFF DUP2 GT ISZERO PUSH2 0x3443 JUMPI PUSH2 0x3442 PUSH2 0x2D31 JUMP JUMPDEST JUMPDEST PUSH2 0x344F DUP9 DUP3 DUP10 ADD PUSH2 0x32EB JUMP JUMPDEST SWAP3 POP POP PUSH1 0x80 DUP7 ADD CALLDATALOAD PUSH8 0xFFFFFFFFFFFFFFFF DUP2 GT ISZERO PUSH2 0x3470 JUMPI PUSH2 0x346F PUSH2 0x2D31 JUMP JUMPDEST JUMPDEST PUSH2 0x347C DUP9 DUP3 DUP10 ADD PUSH2 0x338C JUMP JUMPDEST SWAP2 POP POP SWAP3 SWAP6 POP SWAP3 SWAP6 SWAP1 SWAP4 POP JUMP JUMPDEST PUSH1 0x0 DUP1 PUSH1 0x40 DUP4 DUP6 SUB SLT ISZERO PUSH2 0x34A0 JUMPI PUSH2 0x349F PUSH2 0x2D2C JUMP JUMPDEST JUMPDEST PUSH1 0x0 PUSH2 0x34AE DUP6 DUP3 DUP7 ADD PUSH2 0x31AD JUMP JUMPDEST SWAP3 POP POP PUSH1 0x20 PUSH2 0x34BF DUP6 DUP3 DUP7 ADD PUSH2 0x2D7F JUMP JUMPDEST SWAP2 POP POP SWAP3 POP SWAP3 SWAP1 POP JUMP JUMPDEST PUSH1 0x0 PUSH8 0xFFFFFFFFFFFFFFFF DUP3 GT ISZERO PUSH2 0x34E4 JUMPI PUSH2 0x34E3 PUSH2 0x2F0A JUMP JUMPDEST JUMPDEST PUSH1 0x20 DUP3 MUL SWAP1 POP PUSH1 0x20 DUP2 ADD SWAP1 POP SWAP2 SWAP1 POP JUMP JUMPDEST PUSH1 0x0 PUSH2 0x3508 PUSH2 0x3503 DUP5 PUSH2 0x34C9 JUMP JUMPDEST PUSH2 0x2F6A JUMP JUMPDEST SWAP1 POP DUP1 DUP4 DUP3 MSTORE PUSH1 0x20 DUP3 ADD SWAP1 POP PUSH1 0x20 DUP5 MUL DUP4 ADD DUP6 DUP2 GT ISZERO PUSH2 0x352B JUMPI PUSH2 0x352A PUSH2 0x327D JUMP JUMPDEST JUMPDEST DUP4 JUMPDEST DUP2 DUP2 LT ISZERO PUSH2 0x3554 JUMPI DUP1 PUSH2 0x3540 DUP9 DUP3 PUSH2 0x2D7F JUMP JUMPDEST DUP5 MSTORE PUSH1 0x20 DUP5 ADD SWAP4 POP POP PUSH1 0x20 DUP2 ADD SWAP1 POP PUSH2 0x352D JUMP JUMPDEST POP POP POP SWAP4 SWAP3 POP POP POP JUMP JUMPDEST PUSH1 0x0 DUP3 PUSH1 0x1F DUP4 ADD SLT PUSH2 0x3573 JUMPI PUSH2 0x3572 PUSH2 0x2EEF JUMP JUMPDEST JUMPDEST DUP2 CALLDATALOAD PUSH2 0x3583 DUP5 DUP3 PUSH1 0x20 DUP7 ADD PUSH2 0x34F5 JUMP JUMPDEST SWAP2 POP POP SWAP3 SWAP2 POP POP JUMP JUMPDEST PUSH1 0x0 DUP1 PUSH1 0x40 DUP4 DUP6 SUB SLT ISZERO PUSH2 0x35A3 JUMPI PUSH2 0x35A2 PUSH2 0x2D2C JUMP JUMPDEST JUMPDEST PUSH1 0x0 DUP4 ADD CALLDATALOAD PUSH8 0xFFFFFFFFFFFFFFFF DUP2 GT ISZERO PUSH2 0x35C1 JUMPI PUSH2 0x35C0 PUSH2 0x2D31 JUMP JUMPDEST JUMPDEST PUSH2 0x35CD DUP6 DUP3 DUP7 ADD PUSH2 0x355E JUMP JUMPDEST SWAP3 POP POP PUSH1 0x20 DUP4 ADD CALLDATALOAD PUSH8 0xFFFFFFFFFFFFFFFF DUP2 GT ISZERO PUSH2 0x35EE JUMPI PUSH2 0x35ED PUSH2 0x2D31 JUMP JUMPDEST JUMPDEST PUSH2 0x35FA DUP6 DUP3 DUP7 ADD PUSH2 0x32EB JUMP JUMPDEST SWAP2 POP POP SWAP3 POP SWAP3 SWAP1 POP JUMP JUMPDEST PUSH1 0x0 DUP2 MLOAD SWAP1 POP SWAP2 SWAP1 POP JUMP JUMPDEST PUSH1 0x0 DUP3 DUP3 MSTORE PUSH1 0x20 DUP3 ADD SWAP1 POP SWAP3 SWAP2 POP POP JUMP JUMPDEST PUSH1 0x0 DUP2 SWAP1 POP PUSH1 0x20 DUP3 ADD SWAP1 POP SWAP2 SWAP1 POP JUMP JUMPDEST PUSH2 0x3639 DUP2 PUSH2 0x2D94 JUMP JUMPDEST DUP3 MSTORE POP POP JUMP JUMPDEST PUSH1 0x0 PUSH2 0x364B DUP4 DUP4 PUSH2 0x3630 JUMP JUMPDEST PUSH1 0x20 DUP4 ADD SWAP1 POP SWAP3 SWAP2 POP POP JUMP JUMPDEST PUSH1 0x0 PUSH1 0x20 DUP3 ADD SWAP1 POP SWAP2 SWAP1 POP JUMP JUMPDEST PUSH1 0x0 PUSH2 0x366F DUP3 PUSH2 0x3604 JUMP JUMPDEST PUSH2 0x3679 DUP2 DUP6 PUSH2 0x360F JUMP JUMPDEST SWAP4 POP PUSH2 0x3684 DUP4 PUSH2 0x3620 JUMP JUMPDEST DUP1 PUSH1 0x0 JUMPDEST DUP4 DUP2 LT ISZERO PUSH2 0x36B5 JUMPI DUP2 MLOAD PUSH2 0x369C DUP9 DUP3 PUSH2 0x363F JUMP JUMPDEST SWAP8 POP PUSH2 0x36A7 DUP4 PUSH2 0x3657 JUMP JUMPDEST SWAP3 POP POP PUSH1 0x1 DUP2 ADD SWAP1 POP PUSH2 0x3688 JUMP JUMPDEST POP DUP6 SWAP4 POP POP POP POP SWAP3 SWAP2 POP POP JUMP JUMPDEST PUSH1 0x0 PUSH1 0x20 DUP3 ADD SWAP1 POP DUP2 DUP2 SUB PUSH1 0x0 DUP4 ADD MSTORE PUSH2 0x36DC DUP2 DUP5 PUSH2 0x3664 JUMP JUMPDEST SWAP1 POP SWAP3 SWAP2 POP POP JUMP JUMPDEST PUSH2 0x36ED DUP2 PUSH2 0x2EB9 JUMP JUMPDEST DUP2 EQ PUSH2 0x36F8 JUMPI PUSH1 0x0 DUP1 REVERT JUMPDEST POP JUMP JUMPDEST PUSH1 0x0 DUP2 CALLDATALOAD SWAP1 POP PUSH2 0x370A DUP2 PUSH2 0x36E4 JUMP JUMPDEST SWAP3 SWAP2 POP POP JUMP JUMPDEST PUSH1 0x0 DUP1 PUSH1 0x40 DUP4 DUP6 SUB SLT ISZERO PUSH2 0x3727 JUMPI PUSH2 0x3726 PUSH2 0x2D2C JUMP JUMPDEST JUMPDEST PUSH1 0x0 PUSH2 0x3735 DUP6 DUP3 DUP7 ADD PUSH2 0x2D7F JUMP JUMPDEST SWAP3 POP POP PUSH1 0x20 PUSH2 0x3746 DUP6 DUP3 DUP7 ADD PUSH2 0x36FB JUMP JUMPDEST SWAP2 POP POP SWAP3 POP SWAP3 SWAP1 POP JUMP JUMPDEST PUSH1 0x0 PUSH1 0x20 DUP3 DUP5 SUB SLT ISZERO PUSH2 0x3766 JUMPI PUSH2 0x3765 PUSH2 0x2D2C JUMP JUMPDEST JUMPDEST PUSH1 0x0 PUSH2 0x3774 DUP5 DUP3 DUP6 ADD PUSH2 0x36FB JUMP JUMPDEST SWAP2 POP POP SWAP3 SWAP2 POP POP JUMP JUMPDEST PUSH1 0x0 DUP1 PUSH1 0x40 DUP4 DUP6 SUB SLT ISZERO PUSH2 0x3794 JUMPI PUSH2 0x3793 PUSH2 0x2D2C JUMP JUMPDEST JUMPDEST PUSH1 0x0 PUSH2 0x37A2 DUP6 DUP3 DUP7 ADD PUSH2 0x2D7F JUMP JUMPDEST SWAP3 POP POP PUSH1 0x20 PUSH2 0x37B3 DUP6 DUP3 DUP7 ADD PUSH2 0x2D7F JUMP JUMPDEST SWAP2 POP POP SWAP3 POP SWAP3 SWAP1 POP JUMP JUMPDEST PUSH1 0x0 DUP1 PUSH1 0x0 DUP1 PUSH1 0x0 PUSH1 0xA0 DUP7 DUP9 SUB SLT ISZERO PUSH2 0x37D9 JUMPI PUSH2 0x37D8 PUSH2 0x2D2C JUMP JUMPDEST JUMPDEST PUSH1 0x0 PUSH2 0x37E7 DUP9 DUP3 DUP10 ADD PUSH2 0x2D7F JUMP JUMPDEST SWAP6 POP POP PUSH1 0x20 PUSH2 0x37F8 DUP9 DUP3 DUP10 ADD PUSH2 0x2D7F JUMP JUMPDEST SWAP5 POP POP PUSH1 0x40 PUSH2 0x3809 DUP9 DUP3 DUP10 ADD PUSH2 0x2DB5 JUMP JUMPDEST SWAP4 POP POP PUSH1 0x60 PUSH2 0x381A DUP9 DUP3 DUP10 ADD PUSH2 0x2DB5 JUMP JUMPDEST SWAP3 POP POP PUSH1 0x80 DUP7 ADD CALLDATALOAD PUSH8 0xFFFFFFFFFFFFFFFF DUP2 GT ISZERO PUSH2 0x383B JUMPI PUSH2 0x383A PUSH2 0x2D31 JUMP JUMPDEST JUMPDEST PUSH2 0x3847 DUP9 DUP3 DUP10 ADD PUSH2 0x338C JUMP JUMPDEST SWAP2 POP POP SWAP3 SWAP6 POP SWAP3 SWAP6 SWAP1 SWAP4 POP JUMP JUMPDEST PUSH1 0x0 DUP1 PUSH1 0x0 PUSH1 0x60 DUP5 DUP7 SUB SLT ISZERO PUSH2 0x386D JUMPI PUSH2 0x386C PUSH2 0x2D2C JUMP JUMPDEST JUMPDEST PUSH1 0x0 PUSH2 0x387B DUP7 DUP3 DUP8 ADD PUSH2 0x2D7F JUMP JUMPDEST SWAP4 POP POP PUSH1 0x20 PUSH2 0x388C DUP7 DUP3 DUP8 ADD PUSH2 0x2DB5 JUMP JUMPDEST SWAP3 POP POP PUSH1 0x40 PUSH2 0x389D DUP7 DUP3 DUP8 ADD PUSH2 0x2DB5 JUMP JUMPDEST SWAP2 POP POP SWAP3 POP SWAP3 POP SWAP3 JUMP JUMPDEST PUSH32 0x455243313135353A2061646472657373207A65726F206973206E6F7420612076 PUSH1 0x0 DUP3 ADD MSTORE PUSH32 0x616C6964206F776E657200000000000000000000000000000000000000000000 PUSH1 0x20 DUP3 ADD MSTORE POP JUMP JUMPDEST PUSH1 0x0 PUSH2 0x3903 PUSH1 0x2A DUP4 PUSH2 0x3089 JUMP JUMPDEST SWAP2 POP PUSH2 0x390E DUP3 PUSH2 0x38A7 JUMP JUMPDEST PUSH1 0x40 DUP3 ADD SWAP1 POP SWAP2 SWAP1 POP JUMP JUMPDEST PUSH1 0x0 PUSH1 0x20 DUP3 ADD SWAP1 POP DUP2 DUP2 SUB PUSH1 0x0 DUP4 ADD MSTORE PUSH2 0x3932 DUP2 PUSH2 0x38F6 JUMP JUMPDEST SWAP1 POP SWAP2 SWAP1 POP JUMP JUMPDEST PUSH32 0x4E487B7100000000000000000000000000000000000000000000000000000000 PUSH1 0x0 MSTORE PUSH1 0x22 PUSH1 0x4 MSTORE PUSH1 0x24 PUSH1 0x0 REVERT JUMPDEST PUSH1 0x0 PUSH1 0x2 DUP3 DIV SWAP1 POP PUSH1 0x1 DUP3 AND DUP1 PUSH2 0x3980 JUMPI PUSH1 0x7F DUP3 AND SWAP2 POP JUMPDEST PUSH1 0x20 DUP3 LT DUP2 SUB PUSH2 0x3993 JUMPI PUSH2 0x3992 PUSH2 0x3939 JUMP JUMPDEST JUMPDEST POP SWAP2 SWAP1 POP JUMP JUMPDEST PUSH32 0x4E487B7100000000000000000000000000000000000000000000000000000000 PUSH1 0x0 MSTORE PUSH1 0x11 PUSH1 0x4 MSTORE PUSH1 0x24 PUSH1 0x0 REVERT JUMPDEST PUSH1 0x0 PUSH2 0x39D3 DUP3 PUSH2 0x2D94 JUMP JUMPDEST SWAP2 POP PUSH2 0x39DE DUP4 PUSH2 0x2D94 JUMP JUMPDEST SWAP3 POP DUP3 DUP3 MUL PUSH2 0x39EC DUP2 PUSH2 0x2D94 JUMP JUMPDEST SWAP2 POP DUP3 DUP3 DIV DUP5 EQ DUP4 ISZERO OR PUSH2 0x3A03 JUMPI PUSH2 0x3A02 PUSH2 0x3999 JUMP JUMPDEST JUMPDEST POP SWAP3 SWAP2 POP POP JUMP JUMPDEST PUSH32 0x5431453A204E6F7420656E6F7567682045746865722070726F76696465642E00 PUSH1 0x0 DUP3 ADD MSTORE POP JUMP JUMPDEST PUSH1 0x0 PUSH2 0x3A40 PUSH1 0x1F DUP4 PUSH2 0x3089 JUMP JUMPDEST SWAP2 POP PUSH2 0x3A4B DUP3 PUSH2 0x3A0A JUMP JUMPDEST PUSH1 0x20 DUP3 ADD SWAP1 POP SWAP2 SWAP1 POP JUMP JUMPDEST PUSH1 0x0 PUSH1 0x20 DUP3 ADD SWAP1 POP DUP2 DUP2 SUB PUSH1 0x0 DUP4 ADD MSTORE PUSH2 0x3A6F DUP2 PUSH2 0x3A33 JUMP JUMPDEST SWAP1 POP SWAP2 SWAP1 POP JUMP JUMPDEST PUSH1 0x0 PUSH2 0x3A81 DUP3 PUSH2 0x2D94 JUMP JUMPDEST SWAP2 POP PUSH2 0x3A8C DUP4 PUSH2 0x2D94 JUMP JUMPDEST SWAP3 POP DUP3 DUP3 ADD SWAP1 POP DUP1 DUP3 GT ISZERO PUSH2 0x3AA4 JUMPI PUSH2 0x3AA3 PUSH2 0x3999 JUMP JUMPDEST JUMPDEST SWAP3 SWAP2 POP POP JUMP JUMPDEST PUSH32 0x5431453A204D617820737570706C79206F6620746F6B656E7320726561636865 PUSH1 0x0 DUP3 ADD MSTORE PUSH32 0x642E000000000000000000000000000000000000000000000000000000000000 PUSH1 0x20 DUP3 ADD MSTORE POP JUMP JUMPDEST PUSH1 0x0 PUSH2 0x3B06 PUSH1 0x22 DUP4 PUSH2 0x3089 JUMP JUMPDEST SWAP2 POP PUSH2 0x3B11 DUP3 PUSH2 0x3AAA JUMP JUMPDEST PUSH1 0x40 DUP3 ADD SWAP1 POP SWAP2 SWAP1 POP JUMP JUMPDEST PUSH1 0x0 PUSH1 0x20 DUP3 ADD SWAP1 POP DUP2 DUP2 SUB PUSH1 0x0 DUP4 ADD MSTORE PUSH2 0x3B35 DUP2 PUSH2 0x3AF9 JUMP JUMPDEST SWAP1 POP SWAP2 SWAP1 POP JUMP JUMPDEST PUSH32 0x4E487B7100000000000000000000000000000000000000000000000000000000 PUSH1 0x0 MSTORE PUSH1 0x12 PUSH1 0x4 MSTORE PUSH1 0x24 PUSH1 0x0 REVERT JUMPDEST PUSH1 0x0 PUSH2 0x3B76 DUP3 PUSH2 0x2D94 JUMP JUMPDEST SWAP2 POP PUSH2 0x3B81 DUP4 PUSH2 0x2D94 JUMP JUMPDEST SWAP3 POP DUP3 PUSH2 0x3B91 JUMPI PUSH2 0x3B90 PUSH2 0x3B3C JUMP JUMPDEST JUMPDEST DUP3 DUP3 DIV SWAP1 POP SWAP3 SWAP2 POP POP JUMP JUMPDEST PUSH32 0x416363657373436F6E74726F6C3A2063616E206F6E6C792072656E6F756E6365 PUSH1 0x0 DUP3 ADD MSTORE PUSH32 0x20726F6C657320666F722073656C660000000000000000000000000000000000 PUSH1 0x20 DUP3 ADD MSTORE POP JUMP JUMPDEST PUSH1 0x0 PUSH2 0x3BF8 PUSH1 0x2F DUP4 PUSH2 0x3089 JUMP JUMPDEST SWAP2 POP PUSH2 0x3C03 DUP3 PUSH2 0x3B9C JUMP JUMPDEST PUSH1 0x40 DUP3 ADD SWAP1 POP SWAP2 SWAP1 POP JUMP JUMPDEST PUSH1 0x0 PUSH1 0x20 DUP3 ADD SWAP1 POP DUP2 DUP2 SUB PUSH1 0x0 DUP4 ADD MSTORE PUSH2 0x3C27 DUP2 PUSH2 0x3BEB JUMP JUMPDEST SWAP1 POP SWAP2 SWAP1 POP JUMP JUMPDEST PUSH32 0x455243313135353A206163636F756E747320616E6420696473206C656E677468 PUSH1 0x0 DUP3 ADD MSTORE PUSH32 0x206D69736D617463680000000000000000000000000000000000000000000000 PUSH1 0x20 DUP3 ADD MSTORE POP JUMP JUMPDEST PUSH1 0x0 PUSH2 0x3C8A PUSH1 0x29 DUP4 PUSH2 0x3089 JUMP JUMPDEST SWAP2 POP PUSH2 0x3C95 DUP3 PUSH2 0x3C2E JUMP JUMPDEST PUSH1 0x40 DUP3 ADD SWAP1 POP SWAP2 SWAP1 POP JUMP JUMPDEST PUSH1 0x0 PUSH1 0x20 DUP3 ADD SWAP1 POP DUP2 DUP2 SUB PUSH1 0x0 DUP4 ADD MSTORE PUSH2 0x3CB9 DUP2 PUSH2 0x3C7D JUMP JUMPDEST SWAP1 POP SWAP2 SWAP1 POP JUMP JUMPDEST PUSH32 0x4E487B7100000000000000000000000000000000000000000000000000000000 PUSH1 0x0 MSTORE PUSH1 0x32 PUSH1 0x4 MSTORE PUSH1 0x24 PUSH1 0x0 REVERT JUMPDEST PUSH1 0x0 PUSH2 0x3CFA DUP3 PUSH2 0x2D94 JUMP JUMPDEST SWAP2 POP PUSH32 0xFFFFFFFFFFFFFFFFFFFFFFFFFFFFFFFFFFFFFFFFFFFFFFFFFFFFFFFFFFFFFFFF DUP3 SUB PUSH2 0x3D2C JUMPI PUSH2 0x3D2B PUSH2 0x3999 JUMP JUMPDEST JUMPDEST PUSH1 0x1 DUP3 ADD SWAP1 POP SWAP2 SWAP1 POP JUMP JUMPDEST PUSH1 0x0 DUP2 SWAP1 POP DUP2 PUSH1 0x0 MSTORE PUSH1 0x20 PUSH1 0x0 KECCAK256 SWAP1 POP SWAP2 SWAP1 POP JUMP JUMPDEST PUSH1 0x0 PUSH1 0x20 PUSH1 0x1F DUP4 ADD DIV SWAP1 POP SWAP2 SWAP1 POP JUMP JUMPDEST PUSH1 0x0 DUP3 DUP3 SHL SWAP1 POP SWAP3 SWAP2 POP POP JUMP JUMPDEST PUSH1 0x0 PUSH1 0x8 DUP4 MUL PUSH2 0x3D99 PUSH32 0xFFFFFFFFFFFFFFFFFFFFFFFFFFFFFFFFFFFFFFFFFFFFFFFFFFFFFFFFFFFFFFFF DUP3 PUSH2 0x3D5C JUMP JUMPDEST PUSH2 0x3DA3 DUP7 DUP4 PUSH2 0x3D5C JUMP JUMPDEST SWAP6 POP DUP1 NOT DUP5 AND SWAP4 POP DUP1 DUP7 AND DUP5 OR SWAP3 POP POP POP SWAP4 SWAP3 POP POP POP JUMP JUMPDEST PUSH1 0x0 DUP2 SWAP1 POP SWAP2 SWAP1 POP JUMP JUMPDEST PUSH1 0x0 PUSH2 0x3DE0 PUSH2 0x3DDB PUSH2 0x3DD6 DUP5 PUSH2 0x2D94 JUMP JUMPDEST PUSH2 0x3DBB JUMP JUMPDEST PUSH2 0x2D94 JUMP JUMPDEST SWAP1 POP SWAP2 SWAP1 POP JUMP JUMPDEST PUSH1 0x0 DUP2 SWAP1 POP SWAP2 SWAP1 POP JUMP JUMPDEST PUSH2 0x3DFA DUP4 PUSH2 0x3DC5 JUMP JUMPDEST PUSH2 0x3E0E PUSH2 0x3E06 DUP3 PUSH2 0x3DE7 JUMP JUMPDEST DUP5 DUP5 SLOAD PUSH2 0x3D69 JUMP JUMPDEST DUP3 SSTORE POP POP POP POP JUMP JUMPDEST PUSH1 0x0 SWAP1 JUMP JUMPDEST PUSH2 0x3E23 PUSH2 0x3E16 JUMP JUMPDEST PUSH2 0x3E2E DUP2 DUP5 DUP5 PUSH2 0x3DF1 JUMP JUMPDEST POP POP POP JUMP JUMPDEST JUMPDEST DUP2 DUP2 LT ISZERO PUSH2 0x3E52 JUMPI PUSH2 0x3E47 PUSH1 0x0 DUP3 PUSH2 0x3E1B JUMP JUMPDEST PUSH1 0x1 DUP2 ADD SWAP1 POP PUSH2 0x3E34 JUMP JUMPDEST POP POP JUMP JUMPDEST PUSH1 0x1F DUP3 GT ISZERO PUSH2 0x3E97 JUMPI PUSH2 0x3E68 DUP2 PUSH2 0x3D37 JUMP JUMPDEST PUSH2 0x3E71 DUP5 PUSH2 0x3D4C JUMP JUMPDEST DUP2 ADD PUSH1 0x20 DUP6 LT ISZERO PUSH2 0x3E80 JUMPI DUP2 SWAP1 POP JUMPDEST PUSH2 0x3E94 PUSH2 0x3E8C DUP6 PUSH2 0x3D4C JUMP JUMPDEST DUP4 ADD DUP3 PUSH2 0x3E33 JUMP JUMPDEST POP POP JUMPDEST POP POP POP JUMP JUMPDEST PUSH1 0x0 DUP3 DUP3 SHR SWAP1 POP SWAP3 SWAP2 POP POP JUMP JUMPDEST PUSH1 0x0 PUSH2 0x3EBA PUSH1 0x0 NOT DUP5 PUSH1 0x8 MUL PUSH2 0x3E9C JUMP JUMPDEST NOT DUP1 DUP4 AND SWAP2 POP POP SWAP3 SWAP2 POP POP JUMP JUMPDEST PUSH1 0x0 PUSH2 0x3ED3 DUP4 DUP4 PUSH2 0x3EA9 JUMP JUMPDEST SWAP2 POP DUP3 PUSH1 0x2 MUL DUP3 OR SWAP1 POP SWAP3 SWAP2 POP POP JUMP JUMPDEST PUSH2 0x3EEC DUP3 PUSH2 0x307E JUMP JUMPDEST PUSH8 0xFFFFFFFFFFFFFFFF DUP2 GT ISZERO PUSH2 0x3F05 JUMPI PUSH2 0x3F04 PUSH2 0x2F0A JUMP JUMPDEST JUMPDEST PUSH2 0x3F0F DUP3 SLOAD PUSH2 0x3968 JUMP JUMPDEST PUSH2 0x3F1A DUP3 DUP3 DUP6 PUSH2 0x3E56 JUMP JUMPDEST PUSH1 0x0 PUSH1 0x20 SWAP1 POP PUSH1 0x1F DUP4 GT PUSH1 0x1 DUP2 EQ PUSH2 0x3F4D JUMPI PUSH1 0x0 DUP5 ISZERO PUSH2 0x3F3B JUMPI DUP3 DUP8 ADD MLOAD SWAP1 POP JUMPDEST PUSH2 0x3F45 DUP6 DUP3 PUSH2 0x3EC7 JUMP JUMPDEST DUP7 SSTORE POP PUSH2 0x3FAD JUMP JUMPDEST PUSH1 0x1F NOT DUP5 AND PUSH2 0x3F5B DUP7 PUSH2 0x3D37 JUMP JUMPDEST PUSH1 0x0 JUMPDEST DUP3 DUP2 LT ISZERO PUSH2 0x3F83 JUMPI DUP5 DUP10 ADD MLOAD DUP3 SSTORE PUSH1 0x1 DUP3 ADD SWAP2 POP PUSH1 0x20 DUP6 ADD SWAP5 POP PUSH1 0x20 DUP2 ADD SWAP1 POP PUSH2 0x3F5E JUMP JUMPDEST DUP7 DUP4 LT ISZERO PUSH2 0x3FA0 JUMPI DUP5 DUP10 ADD MLOAD PUSH2 0x3F9C PUSH1 0x1F DUP10 AND DUP3 PUSH2 0x3EA9 JUMP JUMPDEST DUP4 SSTORE POP JUMPDEST PUSH1 0x1 PUSH1 0x2 DUP9 MUL ADD DUP9 SSTORE POP POP POP JUMPDEST POP POP POP POP POP POP JUMP JUMPDEST PUSH32 0x5061757361626C653A2070617573656400000000000000000000000000000000 PUSH1 0x0 DUP3 ADD MSTORE POP JUMP JUMPDEST PUSH1 0x0 PUSH2 0x3FEB PUSH1 0x10 DUP4 PUSH2 0x3089 JUMP JUMPDEST SWAP2 POP PUSH2 0x3FF6 DUP3 PUSH2 0x3FB5 JUMP JUMPDEST PUSH1 0x20 DUP3 ADD SWAP1 POP SWAP2 SWAP1 POP JUMP JUMPDEST PUSH1 0x0 PUSH1 0x20 DUP3 ADD SWAP1 POP DUP2 DUP2 SUB PUSH1 0x0 DUP4 ADD MSTORE PUSH2 0x401A DUP2 PUSH2 0x3FDE JUMP JUMPDEST SWAP1 POP SWAP2 SWAP1 POP JUMP JUMPDEST PUSH32 0x455243313135353A206D696E7420746F20746865207A65726F20616464726573 PUSH1 0x0 DUP3 ADD MSTORE PUSH32 0x7300000000000000000000000000000000000000000000000000000000000000 PUSH1 0x20 DUP3 ADD MSTORE POP JUMP JUMPDEST PUSH1 0x0 PUSH2 0x407D PUSH1 0x21 DUP4 PUSH2 0x3089 JUMP JUMPDEST SWAP2 POP PUSH2 0x4088 DUP3 PUSH2 0x4021 JUMP JUMPDEST PUSH1 0x40 DUP3 ADD SWAP1 POP SWAP2 SWAP1 POP JUMP JUMPDEST PUSH1 0x0 PUSH1 0x20 DUP3 ADD SWAP1 POP DUP2 DUP2 SUB PUSH1 0x0 DUP4 ADD MSTORE PUSH2 0x40AC DUP2 PUSH2 0x4070 JUMP JUMPDEST SWAP1 POP SWAP2 SWAP1 POP JUMP JUMPDEST PUSH1 0x0 PUSH1 0x40 DUP3 ADD SWAP1 POP PUSH2 0x40C8 PUSH1 0x0 DUP4 ADD DUP6 PUSH2 0x2E0A JUMP JUMPDEST PUSH2 0x40D5 PUSH1 0x20 DUP4 ADD DUP5 PUSH2 0x2E0A JUMP JUMPDEST SWAP4 SWAP3 POP POP POP JUMP JUMPDEST PUSH32 0x455243313135353A2063616C6C6572206973206E6F7420746F6B656E206F776E PUSH1 0x0 DUP3 ADD MSTORE PUSH32 0x6572206F7220617070726F766564000000000000000000000000000000000000 PUSH1 0x20 DUP3 ADD MSTORE POP JUMP JUMPDEST PUSH1 0x0 PUSH2 0x4138 PUSH1 0x2E DUP4 PUSH2 0x3089 JUMP JUMPDEST SWAP2 POP PUSH2 0x4143 DUP3 PUSH2 0x40DC JUMP JUMPDEST PUSH1 0x40 DUP3 ADD SWAP1 POP SWAP2 SWAP1 POP JUMP JUMPDEST PUSH1 0x0 PUSH1 0x20 DUP3 ADD SWAP1 POP DUP2 DUP2 SUB PUSH1 0x0 DUP4 ADD MSTORE PUSH2 0x4167 DUP2 PUSH2 0x412B JUMP JUMPDEST SWAP1 POP SWAP2 SWAP1 POP JUMP JUMPDEST PUSH1 0x0 PUSH1 0x20 DUP3 ADD SWAP1 POP PUSH2 0x4183 PUSH1 0x0 DUP4 ADD DUP5 PUSH2 0x3219 JUMP JUMPDEST SWAP3 SWAP2 POP POP JUMP JUMPDEST PUSH32 0x455243313135353A206275726E2066726F6D20746865207A65726F2061646472 PUSH1 0x0 DUP3 ADD MSTORE PUSH32 0x6573730000000000000000000000000000000000000000000000000000000000 PUSH1 0x20 DUP3 ADD MSTORE POP JUMP JUMPDEST PUSH1 0x0 PUSH2 0x41E5 PUSH1 0x23 DUP4 PUSH2 0x3089 JUMP JUMPDEST SWAP2 POP PUSH2 0x41F0 DUP3 PUSH2 0x4189 JUMP JUMPDEST PUSH1 0x40 DUP3 ADD SWAP1 POP SWAP2 SWAP1 POP JUMP JUMPDEST PUSH1 0x0 PUSH1 0x20 DUP3 ADD SWAP1 POP DUP2 DUP2 SUB PUSH1 0x0 DUP4 ADD MSTORE PUSH2 0x4214 DUP2 PUSH2 0x41D8 JUMP JUMPDEST SWAP1 POP SWAP2 SWAP1 POP JUMP JUMPDEST PUSH32 0x455243313135353A206275726E20616D6F756E7420657863656564732062616C PUSH1 0x0 DUP3 ADD MSTORE PUSH32 0x616E636500000000000000000000000000000000000000000000000000000000 PUSH1 0x20 DUP3 ADD MSTORE POP JUMP JUMPDEST PUSH1 0x0 PUSH2 0x4277 PUSH1 0x24 DUP4 PUSH2 0x3089 JUMP JUMPDEST SWAP2 POP PUSH2 0x4282 DUP3 PUSH2 0x421B JUMP JUMPDEST PUSH1 0x40 DUP3 ADD SWAP1 POP SWAP2 SWAP1 POP JUMP JUMPDEST PUSH1 0x0 PUSH1 0x20 DUP3 ADD SWAP1 POP DUP2 DUP2 SUB PUSH1 0x0 DUP4 ADD MSTORE PUSH2 0x42A6 DUP2 PUSH2 0x426A JUMP JUMPDEST SWAP1 POP SWAP2 SWAP1 POP JUMP JUMPDEST PUSH1 0x0 DUP2 SWAP1 POP SWAP3 SWAP2 POP POP JUMP JUMPDEST PUSH32 0x416363657373436F6E74726F6C3A206163636F756E7420000000000000000000 PUSH1 0x0 DUP3 ADD MSTORE POP JUMP JUMPDEST PUSH1 0x0 PUSH2 0x42EE PUSH1 0x17 DUP4 PUSH2 0x42AD JUMP JUMPDEST SWAP2 POP PUSH2 0x42F9 DUP3 PUSH2 0x42B8 JUMP JUMPDEST PUSH1 0x17 DUP3 ADD SWAP1 POP SWAP2 SWAP1 POP JUMP JUMPDEST PUSH1 0x0 PUSH2 0x430F DUP3 PUSH2 0x307E JUMP JUMPDEST PUSH2 0x4319 DUP2 DUP6 PUSH2 0x42AD JUMP JUMPDEST SWAP4 POP PUSH2 0x4329 DUP2 DUP6 PUSH1 0x20 DUP7 ADD PUSH2 0x309A JUMP JUMPDEST DUP1 DUP5 ADD SWAP2 POP POP SWAP3 SWAP2 POP POP JUMP JUMPDEST PUSH32 0x206973206D697373696E6720726F6C6520000000000000000000000000000000 PUSH1 0x0 DUP3 ADD MSTORE POP JUMP JUMPDEST PUSH1 0x0 PUSH2 0x436B PUSH1 0x11 DUP4 PUSH2 0x42AD JUMP JUMPDEST SWAP2 POP PUSH2 0x4376 DUP3 PUSH2 0x4335 JUMP JUMPDEST PUSH1 0x11 DUP3 ADD SWAP1 POP SWAP2 SWAP1 POP JUMP JUMPDEST PUSH1 0x0 PUSH2 0x438C DUP3 PUSH2 0x42E1 JUMP JUMPDEST SWAP2 POP PUSH2 0x4398 DUP3 DUP6 PUSH2 0x4304 JUMP JUMPDEST SWAP2 POP PUSH2 0x43A3 DUP3 PUSH2 0x435E JUMP JUMPDEST SWAP2 POP PUSH2 0x43AF DUP3 DUP5 PUSH2 0x4304 JUMP JUMPDEST SWAP2 POP DUP2 SWAP1 POP SWAP4 SWAP3 POP POP POP JUMP JUMPDEST PUSH1 0x0 DUP2 MLOAD SWAP1 POP SWAP2 SWAP1 POP JUMP JUMPDEST PUSH1 0x0 DUP3 DUP3 MSTORE PUSH1 0x20 DUP3 ADD SWAP1 POP SWAP3 SWAP2 POP POP JUMP JUMPDEST PUSH1 0x0 PUSH2 0x43E2 DUP3 PUSH2 0x43BB JUMP JUMPDEST PUSH2 0x43EC DUP2 DUP6 PUSH2 0x43C6 JUMP JUMPDEST SWAP4 POP PUSH2 0x43FC DUP2 DUP6 PUSH1 0x20 DUP7 ADD PUSH2 0x309A JUMP JUMPDEST PUSH2 0x4405 DUP2 PUSH2 0x2EF9 JUMP JUMPDEST DUP5 ADD SWAP2 POP POP SWAP3 SWAP2 POP POP JUMP JUMPDEST PUSH1 0x0 PUSH1 0xA0 DUP3 ADD SWAP1 POP PUSH2 0x4425 PUSH1 0x0 DUP4 ADD DUP9 PUSH2 0x3219 JUMP JUMPDEST PUSH2 0x4432 PUSH1 0x20 DUP4 ADD DUP8 PUSH2 0x3219 JUMP JUMPDEST PUSH2 0x443F PUSH1 0x40 DUP4 ADD DUP7 PUSH2 0x2E0A JUMP JUMPDEST PUSH2 0x444C PUSH1 0x60 DUP4 ADD DUP6 PUSH2 0x2E0A JUMP JUMPDEST DUP2 DUP2 SUB PUSH1 0x80 DUP4 ADD MSTORE PUSH2 0x445E DUP2 DUP5 PUSH2 0x43D7 JUMP JUMPDEST SWAP1 POP SWAP7 SWAP6 POP POP POP POP POP POP JUMP JUMPDEST PUSH1 0x0 DUP2 MLOAD SWAP1 POP PUSH2 0x4479 DUP2 PUSH2 0x2E60 JUMP JUMPDEST SWAP3 SWAP2 POP POP JUMP JUMPDEST PUSH1 0x0 PUSH1 0x20 DUP3 DUP5 SUB SLT ISZERO PUSH2 0x4495 JUMPI PUSH2 0x4494 PUSH2 0x2D2C JUMP JUMPDEST JUMPDEST PUSH1 0x0 PUSH2 0x44A3 DUP5 DUP3 DUP6 ADD PUSH2 0x446A JUMP JUMPDEST SWAP2 POP POP SWAP3 SWAP2 POP POP JUMP JUMPDEST PUSH1 0x0 DUP2 PUSH1 0xE0 SHR SWAP1 POP SWAP2 SWAP1 POP JUMP JUMPDEST PUSH1 0x0 PUSH1 0x3 RETURNDATASIZE GT ISZERO PUSH2 0x44D8 JUMPI PUSH1 0x4 PUSH1 0x0 DUP1 RETURNDATACOPY PUSH2 0x44D5 PUSH1 0x0 MLOAD PUSH2 0x44AC JUMP JUMPDEST SWAP1 POP JUMPDEST SWAP1 JUMP JUMPDEST PUSH1 0x0 PUSH1 0x44 RETURNDATASIZE LT PUSH2 0x4568 JUMPI PUSH2 0x44ED PUSH2 0x2D22 JUMP JUMPDEST PUSH1 0x4 RETURNDATASIZE SUB PUSH1 0x4 DUP3 RETURNDATACOPY DUP1 MLOAD RETURNDATASIZE PUSH1 0x24 DUP3 ADD GT PUSH8 0xFFFFFFFFFFFFFFFF DUP3 GT OR ISZERO PUSH2 0x4515 JUMPI POP POP PUSH2 0x4568 JUMP JUMPDEST DUP1 DUP3 ADD DUP1 MLOAD PUSH8 0xFFFFFFFFFFFFFFFF DUP2 GT ISZERO PUSH2 0x4533 JUMPI POP POP POP POP PUSH2 0x4568 JUMP JUMPDEST DUP1 PUSH1 0x20 DUP4 ADD ADD PUSH1 0x4 RETURNDATASIZE SUB DUP6 ADD DUP2 GT ISZERO PUSH2 0x4550 JUMPI POP POP POP POP POP PUSH2 0x4568 JUMP JUMPDEST PUSH2 0x455F DUP3 PUSH1 0x20 ADD DUP6 ADD DUP7 PUSH2 0x2F39 JUMP JUMPDEST DUP3 SWAP6 POP POP POP POP POP POP JUMPDEST SWAP1 JUMP JUMPDEST PUSH32 0x455243313135353A207472616E7366657220746F206E6F6E2D45524331313535 PUSH1 0x0 DUP3 ADD MSTORE PUSH32 0x526563656976657220696D706C656D656E746572000000000000000000000000 PUSH1 0x20 DUP3 ADD MSTORE POP JUMP JUMPDEST PUSH1 0x0 PUSH2 0x45C7 PUSH1 0x34 DUP4 PUSH2 0x3089 JUMP JUMPDEST SWAP2 POP PUSH2 0x45D2 DUP3 PUSH2 0x456B JUMP JUMPDEST PUSH1 0x40 DUP3 ADD SWAP1 POP SWAP2 SWAP1 POP JUMP JUMPDEST PUSH1 0x0 PUSH1 0x20 DUP3 ADD SWAP1 POP DUP2 DUP2 SUB PUSH1 0x0 DUP4 ADD MSTORE PUSH2 0x45F6 DUP2 PUSH2 0x45BA JUMP JUMPDEST SWAP1 POP SWAP2 SWAP1 POP JUMP JUMPDEST PUSH32 0x455243313135353A204552433131353552656365697665722072656A65637465 PUSH1 0x0 DUP3 ADD MSTORE PUSH32 0x6420746F6B656E73000000000000000000000000000000000000000000000000 PUSH1 0x20 DUP3 ADD MSTORE POP JUMP JUMPDEST PUSH1 0x0 PUSH2 0x4659 PUSH1 0x28 DUP4 PUSH2 0x3089 JUMP JUMPDEST SWAP2 POP PUSH2 0x4664 DUP3 PUSH2 0x45FD JUMP JUMPDEST PUSH1 0x40 DUP3 ADD SWAP1 POP SWAP2 SWAP1 POP JUMP JUMPDEST PUSH1 0x0 PUSH1 0x20 DUP3 ADD SWAP1 POP DUP2 DUP2 SUB PUSH1 0x0 DUP4 ADD MSTORE PUSH2 0x4688 DUP2 PUSH2 0x464C JUMP JUMPDEST SWAP1 POP SWAP2 SWAP1 POP JUMP JUMPDEST PUSH32 0x455243313135353A2069647320616E6420616D6F756E7473206C656E67746820 PUSH1 0x0 DUP3 ADD MSTORE PUSH32 0x6D69736D61746368000000000000000000000000000000000000000000000000 PUSH1 0x20 DUP3 ADD MSTORE POP JUMP JUMPDEST PUSH1 0x0 PUSH2 0x46EB PUSH1 0x28 DUP4 PUSH2 0x3089 JUMP JUMPDEST SWAP2 POP PUSH2 0x46F6 DUP3 PUSH2 0x468F JUMP JUMPDEST PUSH1 0x40 DUP3 ADD SWAP1 POP SWAP2 SWAP1 POP JUMP JUMPDEST PUSH1 0x0 PUSH1 0x20 DUP3 ADD SWAP1 POP DUP2 DUP2 SUB PUSH1 0x0 DUP4 ADD MSTORE PUSH2 0x471A DUP2 PUSH2 0x46DE JUMP JUMPDEST SWAP1 POP SWAP2 SWAP1 POP JUMP JUMPDEST PUSH32 0x455243313135353A207472616E7366657220746F20746865207A65726F206164 PUSH1 0x0 DUP3 ADD MSTORE PUSH32 0x6472657373000000000000000000000000000000000000000000000000000000 PUSH1 0x20 DUP3 ADD MSTORE POP JUMP JUMPDEST PUSH1 0x0 PUSH2 0x477D PUSH1 0x25 DUP4 PUSH2 0x3089 JUMP JUMPDEST SWAP2 POP PUSH2 0x4788 DUP3 PUSH2 0x4721 JUMP JUMPDEST PUSH1 0x40 DUP3 ADD SWAP1 POP SWAP2 SWAP1 POP JUMP JUMPDEST PUSH1 0x0 PUSH1 0x20 DUP3 ADD SWAP1 POP DUP2 DUP2 SUB PUSH1 0x0 DUP4 ADD MSTORE PUSH2 0x47AC DUP2 PUSH2 0x4770 JUMP JUMPDEST SWAP1 POP SWAP2 SWAP1 POP JUMP JUMPDEST PUSH32 0x455243313135353A20696E73756666696369656E742062616C616E636520666F PUSH1 0x0 DUP3 ADD MSTORE PUSH32 0x72207472616E7366657200000000000000000000000000000000000000000000 PUSH1 0x20 DUP3 ADD MSTORE POP JUMP JUMPDEST PUSH1 0x0 PUSH2 0x480F PUSH1 0x2A DUP4 PUSH2 0x3089 JUMP JUMPDEST SWAP2 POP PUSH2 0x481A DUP3 PUSH2 0x47B3 JUMP JUMPDEST PUSH1 0x40 DUP3 ADD SWAP1 POP SWAP2 SWAP1 POP JUMP JUMPDEST PUSH1 0x0 PUSH1 0x20 DUP3 ADD SWAP1 POP DUP2 DUP2 SUB PUSH1 0x0 DUP4 ADD MSTORE PUSH2 0x483E DUP2 PUSH2 0x4802 JUMP JUMPDEST SWAP1 POP SWAP2 SWAP1 POP JUMP JUMPDEST PUSH1 0x0 PUSH1 0x40 DUP3 ADD SWAP1 POP DUP2 DUP2 SUB PUSH1 0x0 DUP4 ADD MSTORE PUSH2 0x485F DUP2 DUP6 PUSH2 0x3664 JUMP JUMPDEST SWAP1 POP DUP2 DUP2 SUB PUSH1 0x20 DUP4 ADD MSTORE PUSH2 0x4873 DUP2 DUP5 PUSH2 0x3664 JUMP JUMPDEST SWAP1 POP SWAP4 SWAP3 POP POP POP JUMP JUMPDEST PUSH32 0x5061757361626C653A206E6F7420706175736564000000000000000000000000 PUSH1 0x0 DUP3 ADD MSTORE POP JUMP JUMPDEST PUSH1 0x0 PUSH2 0x48B2 PUSH1 0x14 DUP4 PUSH2 0x3089 JUMP JUMPDEST SWAP2 POP PUSH2 0x48BD DUP3 PUSH2 0x487C JUMP JUMPDEST PUSH1 0x20 DUP3 ADD SWAP1 POP SWAP2 SWAP1 POP JUMP JUMPDEST PUSH1 0x0 PUSH1 0x20 DUP3 ADD SWAP1 POP DUP2 DUP2 SUB PUSH1 0x0 DUP4 ADD MSTORE PUSH2 0x48E1 DUP2 PUSH2 0x48A5 JUMP JUMPDEST SWAP1 POP SWAP2 SWAP1 POP JUMP JUMPDEST PUSH32 0x455243313135353A2073657474696E6720617070726F76616C20737461747573 PUSH1 0x0 DUP3 ADD MSTORE PUSH32 0x20666F722073656C660000000000000000000000000000000000000000000000 PUSH1 0x20 DUP3 ADD MSTORE POP JUMP JUMPDEST PUSH1 0x0 PUSH2 0x4944 PUSH1 0x29 DUP4 PUSH2 0x3089 JUMP JUMPDEST SWAP2 POP PUSH2 0x494F DUP3 PUSH2 0x48E8 JUMP JUMPDEST PUSH1 0x40 DUP3 ADD SWAP1 POP SWAP2 SWAP1 POP JUMP JUMPDEST PUSH1 0x0 PUSH1 0x20 DUP3 ADD SWAP1 POP DUP2 DUP2 SUB PUSH1 0x0 DUP4 ADD MSTORE PUSH2 0x4973 DUP2 PUSH2 0x4937 JUMP JUMPDEST SWAP1 POP SWAP2 SWAP1 POP JUMP JUMPDEST PUSH1 0x0 PUSH2 0x4985 DUP3 PUSH2 0x2D94 JUMP JUMPDEST SWAP2 POP PUSH1 0x0 DUP3 SUB PUSH2 0x4998 JUMPI PUSH2 0x4997 PUSH2 0x3999 JUMP JUMPDEST JUMPDEST PUSH1 0x1 DUP3 SUB SWAP1 POP SWAP2 SWAP1 POP JUMP JUMPDEST PUSH32 0x537472696E67733A20686578206C656E67746820696E73756666696369656E74 PUSH1 0x0 DUP3 ADD MSTORE POP JUMP JUMPDEST PUSH1 0x0 PUSH2 0x49D9 PUSH1 0x20 DUP4 PUSH2 0x3089 JUMP JUMPDEST SWAP2 POP PUSH2 0x49E4 DUP3 PUSH2 0x49A3 JUMP JUMPDEST PUSH1 0x20 DUP3 ADD SWAP1 POP SWAP2 SWAP1 POP JUMP JUMPDEST PUSH1 0x0 PUSH1 0x20 DUP3 ADD SWAP1 POP DUP2 DUP2 SUB PUSH1 0x0 DUP4 ADD MSTORE PUSH2 0x4A08 DUP2 PUSH2 0x49CC JUMP JUMPDEST SWAP1 POP SWAP2 SWAP1 POP JUMP JUMPDEST PUSH32 0x455243313135353A206275726E20616D6F756E74206578636565647320746F74 PUSH1 0x0 DUP3 ADD MSTORE PUSH32 0x616C537570706C79000000000000000000000000000000000000000000000000 PUSH1 0x20 DUP3 ADD MSTORE POP JUMP JUMPDEST PUSH1 0x0 PUSH2 0x4A6B PUSH1 0x28 DUP4 PUSH2 0x3089 JUMP JUMPDEST SWAP2 POP PUSH2 0x4A76 DUP3 PUSH2 0x4A0F JUMP JUMPDEST PUSH1 0x40 DUP3 ADD SWAP1 POP SWAP2 SWAP1 POP JUMP JUMPDEST PUSH1 0x0 PUSH1 0x20 DUP3 ADD SWAP1 POP DUP2 DUP2 SUB PUSH1 0x0 DUP4 ADD MSTORE PUSH2 0x4A9A DUP2 PUSH2 0x4A5E JUMP JUMPDEST SWAP1 POP SWAP2 SWAP1 POP JUMP JUMPDEST PUSH1 0x0 PUSH1 0xA0 DUP3 ADD SWAP1 POP PUSH2 0x4AB6 PUSH1 0x0 DUP4 ADD DUP9 PUSH2 0x3219 JUMP JUMPDEST PUSH2 0x4AC3 PUSH1 0x20 DUP4 ADD DUP8 PUSH2 0x3219 JUMP JUMPDEST DUP2 DUP2 SUB PUSH1 0x40 DUP4 ADD MSTORE PUSH2 0x4AD5 DUP2 DUP7 PUSH2 0x3664 JUMP JUMPDEST SWAP1 POP DUP2 DUP2 SUB PUSH1 0x60 DUP4 ADD MSTORE PUSH2 0x4AE9 DUP2 DUP6 PUSH2 0x3664 JUMP JUMPDEST SWAP1 POP DUP2 DUP2 SUB PUSH1 0x80 DUP4 ADD MSTORE PUSH2 0x4AFD DUP2 DUP5 PUSH2 0x43D7 JUMP JUMPDEST SWAP1 POP SWAP7 SWAP6 POP POP POP POP POP POP JUMP INVALID LOG2 PUSH5 0x6970667358 0x22 SLT KECCAK256 CALLVALUE PUSH5 0x30230DE299 MLOAD JUMPDEST 0xBD 0x2C LOG2 0xD5 MUL 0xC DUP14 0xE NOT POP 0xE7 0x21 EXTCODESIZE 0xD9 0x5C CALLER 0x1F CALL PUSH27 0xDC0D6DCF64736F6C6343000813003368747470733A2F2F74726170 PUSH17 0x31652E636F6D2F6E66742F617274697374 0x2F PUSH28 0x69647D2E6A736F6E0000000000000000000000000000000000000000 "
		},
		"gasEstimates": {
			"creation": {
				"codeDepositCost": "3852600",
				"executionCost": "infinite",
				"totalCost": "infinite"
			},
			"external": {
				"BURN_ROLE()": "396",
				"DEFAULT_ADMIN_ROLE()": "424",
				"balanceOf(address,uint256)": "infinite",
				"balanceOfBatch(address[],uint256[])": "infinite",
				"burn(address,uint256,uint256)": "infinite",
				"exists(uint256)": "2946",
				"getRoleAdmin(bytes32)": "infinite",
				"grantRole(bytes32,address)": "infinite",
				"hasRole(bytes32,address)": "3185",
				"isApprovedForAll(address,address)": "infinite",
				"mint(uint256,uint256)": "infinite",
				"mintCharge()": "2497",
				"name()": "infinite",
				"operatorFilteringEnabled()": "2581",
				"pause()": "infinite",
				"paused()": "2525",
				"renounceRole(bytes32,address)": "infinite",
				"revokeRole(bytes32,address)": "infinite",
				"royaltyInfo(uint256,uint256)": "infinite",
				"safeBatchTransferFrom(address,address,uint256[],uint256[],bytes)": "infinite",
				"safeTransferFrom(address,address,uint256,uint256,bytes)": "infinite",
				"setApprovalForAll(address,bool)": "infinite",
				"setOperatorFilteringEnabled(bool)": "infinite",
				"setURI(string)": "infinite",
				"supportsInterface(bytes4)": "1063",
				"symbol()": "infinite",
				"totalSupply(uint256)": "infinite",
				"unpause()": "infinite",
				"updateMintCharge(uint256)": "infinite",
				"uri(uint256)": "infinite"
			},
			"internal": {
				"_beforeTokenTransfer(address,address,address,uint256[] memory,uint256[] memory,bytes memory)": "infinite",
				"_isPriorityOperator(address)": "46",
				"_operatorFilteringEnabled()": "2159"
			}
		},
		"methodIdentifiers": {
			"BURN_ROLE()": "b930908f",
			"DEFAULT_ADMIN_ROLE()": "a217fddf",
			"balanceOf(address,uint256)": "00fdd58e",
			"balanceOfBatch(address[],uint256[])": "4e1273f4",
			"burn(address,uint256,uint256)": "f5298aca",
			"exists(uint256)": "4f558e79",
			"getRoleAdmin(bytes32)": "248a9ca3",
			"grantRole(bytes32,address)": "2f2ff15d",
			"hasRole(bytes32,address)": "91d14854",
			"isApprovedForAll(address,address)": "e985e9c5",
			"mint(uint256,uint256)": "1b2ef1ca",
			"mintCharge()": "7d380254",
			"name()": "06fdde03",
			"operatorFilteringEnabled()": "fb796e6c",
			"pause()": "8456cb59",
			"paused()": "5c975abb",
			"renounceRole(bytes32,address)": "36568abe",
			"revokeRole(bytes32,address)": "d547741f",
			"royaltyInfo(uint256,uint256)": "2a55205a",
			"safeBatchTransferFrom(address,address,uint256[],uint256[],bytes)": "2eb2c2d6",
			"safeTransferFrom(address,address,uint256,uint256,bytes)": "f242432a",
			"setApprovalForAll(address,bool)": "a22cb465",
			"setOperatorFilteringEnabled(bool)": "b7c0b8e8",
			"setURI(string)": "02fe5305",
			"supportsInterface(bytes4)": "01ffc9a7",
			"symbol()": "95d89b41",
			"totalSupply(uint256)": "bd85b039",
			"unpause()": "3f4ba83a",
			"updateMintCharge(uint256)": "222a709b",
			"uri(uint256)": "0e89341c"
		}
	},
	"abi": [
		{
			"inputs": [],
			"stateMutability": "nonpayable",
			"type": "constructor"
		},
		{
			"anonymous": false,
			"inputs": [
				{
					"indexed": true,
					"internalType": "address",
					"name": "account",
					"type": "address"
				},
				{
					"indexed": true,
					"internalType": "address",
					"name": "operator",
					"type": "address"
				},
				{
					"indexed": false,
					"internalType": "bool",
					"name": "approved",
					"type": "bool"
				}
			],
			"name": "ApprovalForAll",
			"type": "event"
		},
		{
			"anonymous": false,
			"inputs": [
				{
					"indexed": false,
					"internalType": "address",
					"name": "account",
					"type": "address"
				}
			],
			"name": "Paused",
			"type": "event"
		},
		{
			"anonymous": false,
			"inputs": [
				{
					"indexed": true,
					"internalType": "bytes32",
					"name": "role",
					"type": "bytes32"
				},
				{
					"indexed": true,
					"internalType": "bytes32",
					"name": "previousAdminRole",
					"type": "bytes32"
				},
				{
					"indexed": true,
					"internalType": "bytes32",
					"name": "newAdminRole",
					"type": "bytes32"
				}
			],
			"name": "RoleAdminChanged",
			"type": "event"
		},
		{
			"anonymous": false,
			"inputs": [
				{
					"indexed": true,
					"internalType": "bytes32",
					"name": "role",
					"type": "bytes32"
				},
				{
					"indexed": true,
					"internalType": "address",
					"name": "account",
					"type": "address"
				},
				{
					"indexed": true,
					"internalType": "address",
					"name": "sender",
					"type": "address"
				}
			],
			"name": "RoleGranted",
			"type": "event"
		},
		{
			"anonymous": false,
			"inputs": [
				{
					"indexed": true,
					"internalType": "bytes32",
					"name": "role",
					"type": "bytes32"
				},
				{
					"indexed": true,
					"internalType": "address",
					"name": "account",
					"type": "address"
				},
				{
					"indexed": true,
					"internalType": "address",
					"name": "sender",
					"type": "address"
				}
			],
			"name": "RoleRevoked",
			"type": "event"
		},
		{
			"anonymous": false,
			"inputs": [
				{
					"indexed": true,
					"internalType": "address",
					"name": "operator",
					"type": "address"
				},
				{
					"indexed": true,
					"internalType": "address",
					"name": "from",
					"type": "address"
				},
				{
					"indexed": true,
					"internalType": "address",
					"name": "to",
					"type": "address"
				},
				{
					"indexed": false,
					"internalType": "uint256[]",
					"name": "ids",
					"type": "uint256[]"
				},
				{
					"indexed": false,
					"internalType": "uint256[]",
					"name": "values",
					"type": "uint256[]"
				}
			],
			"name": "TransferBatch",
			"type": "event"
		},
		{
			"anonymous": false,
			"inputs": [
				{
					"indexed": true,
					"internalType": "address",
					"name": "operator",
					"type": "address"
				},
				{
					"indexed": true,
					"internalType": "address",
					"name": "from",
					"type": "address"
				},
				{
					"indexed": true,
					"internalType": "address",
					"name": "to",
					"type": "address"
				},
				{
					"indexed": false,
					"internalType": "uint256",
					"name": "id",
					"type": "uint256"
				},
				{
					"indexed": false,
					"internalType": "uint256",
					"name": "value",
					"type": "uint256"
				}
			],
			"name": "TransferSingle",
			"type": "event"
		},
		{
			"anonymous": false,
			"inputs": [
				{
					"indexed": false,
					"internalType": "string",
					"name": "value",
					"type": "string"
				},
				{
					"indexed": true,
					"internalType": "uint256",
					"name": "id",
					"type": "uint256"
				}
			],
			"name": "URI",
			"type": "event"
		},
		{
			"anonymous": false,
			"inputs": [
				{
					"indexed": false,
					"internalType": "address",
					"name": "account",
					"type": "address"
				}
			],
			"name": "Unpaused",
			"type": "event"
		},
		{
			"inputs": [],
			"name": "BURN_ROLE",
			"outputs": [
				{
					"internalType": "bytes32",
					"name": "",
					"type": "bytes32"
				}
			],
			"stateMutability": "view",
			"type": "function"
		},
		{
			"inputs": [],
			"name": "DEFAULT_ADMIN_ROLE",
			"outputs": [
				{
					"internalType": "bytes32",
					"name": "",
					"type": "bytes32"
				}
			],
			"stateMutability": "view",
			"type": "function"
		},
		{
			"inputs": [
				{
					"internalType": "address",
					"name": "account",
					"type": "address"
				},
				{
					"internalType": "uint256",
					"name": "id",
					"type": "uint256"
				}
			],
			"name": "balanceOf",
			"outputs": [
				{
					"internalType": "uint256",
					"name": "",
					"type": "uint256"
				}
			],
			"stateMutability": "view",
			"type": "function"
		},
		{
			"inputs": [
				{
					"internalType": "address[]",
					"name": "accounts",
					"type": "address[]"
				},
				{
					"internalType": "uint256[]",
					"name": "ids",
					"type": "uint256[]"
				}
			],
			"name": "balanceOfBatch",
			"outputs": [
				{
					"internalType": "uint256[]",
					"name": "",
					"type": "uint256[]"
				}
			],
			"stateMutability": "view",
			"type": "function"
		},
		{
			"inputs": [
				{
					"internalType": "address",
					"name": "from",
					"type": "address"
				},
				{
					"internalType": "uint256",
					"name": "id",
					"type": "uint256"
				},
				{
					"internalType": "uint256",
					"name": "amount",
					"type": "uint256"
				}
			],
			"name": "burn",
			"outputs": [],
			"stateMutability": "nonpayable",
			"type": "function"
		},
		{
			"inputs": [
				{
					"internalType": "uint256",
					"name": "id",
					"type": "uint256"
				}
			],
			"name": "exists",
			"outputs": [
				{
					"internalType": "bool",
					"name": "",
					"type": "bool"
				}
			],
			"stateMutability": "view",
			"type": "function"
		},
		{
			"inputs": [
				{
					"internalType": "bytes32",
					"name": "role",
					"type": "bytes32"
				}
			],
			"name": "getRoleAdmin",
			"outputs": [
				{
					"internalType": "bytes32",
					"name": "",
					"type": "bytes32"
				}
			],
			"stateMutability": "view",
			"type": "function"
		},
		{
			"inputs": [
				{
					"internalType": "bytes32",
					"name": "role",
					"type": "bytes32"
				},
				{
					"internalType": "address",
					"name": "account",
					"type": "address"
				}
			],
			"name": "grantRole",
			"outputs": [],
			"stateMutability": "nonpayable",
			"type": "function"
		},
		{
			"inputs": [
				{
					"internalType": "bytes32",
					"name": "role",
					"type": "bytes32"
				},
				{
					"internalType": "address",
					"name": "account",
					"type": "address"
				}
			],
			"name": "hasRole",
			"outputs": [
				{
					"internalType": "bool",
					"name": "",
					"type": "bool"
				}
			],
			"stateMutability": "view",
			"type": "function"
		},
		{
			"inputs": [
				{
					"internalType": "address",
					"name": "account",
					"type": "address"
				},
				{
					"internalType": "address",
					"name": "operator",
					"type": "address"
				}
			],
			"name": "isApprovedForAll",
			"outputs": [
				{
					"internalType": "bool",
					"name": "",
					"type": "bool"
				}
			],
			"stateMutability": "view",
			"type": "function"
		},
		{
			"inputs": [
				{
					"internalType": "uint256",
					"name": "id",
					"type": "uint256"
				},
				{
					"internalType": "uint256",
					"name": "amount",
					"type": "uint256"
				}
			],
			"name": "mint",
			"outputs": [],
			"stateMutability": "payable",
			"type": "function"
		},
		{
			"inputs": [],
			"name": "mintCharge",
			"outputs": [
				{
					"internalType": "uint256",
					"name": "",
					"type": "uint256"
				}
			],
			"stateMutability": "view",
			"type": "function"
		},
		{
			"inputs": [],
			"name": "name",
			"outputs": [
				{
					"internalType": "string",
					"name": "",
					"type": "string"
				}
			],
			"stateMutability": "view",
			"type": "function"
		},
		{
			"inputs": [],
			"name": "operatorFilteringEnabled",
			"outputs": [
				{
					"internalType": "bool",
					"name": "",
					"type": "bool"
				}
			],
			"stateMutability": "view",
			"type": "function"
		},
		{
			"inputs": [],
			"name": "pause",
			"outputs": [],
			"stateMutability": "nonpayable",
			"type": "function"
		},
		{
			"inputs": [],
			"name": "paused",
			"outputs": [
				{
					"internalType": "bool",
					"name": "",
					"type": "bool"
				}
			],
			"stateMutability": "view",
			"type": "function"
		},
		{
			"inputs": [
				{
					"internalType": "bytes32",
					"name": "role",
					"type": "bytes32"
				},
				{
					"internalType": "address",
					"name": "account",
					"type": "address"
				}
			],
			"name": "renounceRole",
			"outputs": [],
			"stateMutability": "nonpayable",
			"type": "function"
		},
		{
			"inputs": [
				{
					"internalType": "bytes32",
					"name": "role",
					"type": "bytes32"
				},
				{
					"internalType": "address",
					"name": "account",
					"type": "address"
				}
			],
			"name": "revokeRole",
			"outputs": [],
			"stateMutability": "nonpayable",
			"type": "function"
		},
		{
			"inputs": [
				{
					"internalType": "uint256",
					"name": "_tokenId",
					"type": "uint256"
				},
				{
					"internalType": "uint256",
					"name": "_salePrice",
					"type": "uint256"
				}
			],
			"name": "royaltyInfo",
			"outputs": [
				{
					"internalType": "address",
					"name": "",
					"type": "address"
				},
				{
					"internalType": "uint256",
					"name": "",
					"type": "uint256"
				}
			],
			"stateMutability": "view",
			"type": "function"
		},
		{
			"inputs": [
				{
					"internalType": "address",
					"name": "from",
					"type": "address"
				},
				{
					"internalType": "address",
					"name": "to",
					"type": "address"
				},
				{
					"internalType": "uint256[]",
					"name": "ids",
					"type": "uint256[]"
				},
				{
					"internalType": "uint256[]",
					"name": "amounts",
					"type": "uint256[]"
				},
				{
					"internalType": "bytes",
					"name": "data",
					"type": "bytes"
				}
			],
			"name": "safeBatchTransferFrom",
			"outputs": [],
			"stateMutability": "nonpayable",
			"type": "function"
		},
		{
			"inputs": [
				{
					"internalType": "address",
					"name": "from",
					"type": "address"
				},
				{
					"internalType": "address",
					"name": "to",
					"type": "address"
				},
				{
					"internalType": "uint256",
					"name": "tokenId",
					"type": "uint256"
				},
				{
					"internalType": "uint256",
					"name": "amount",
					"type": "uint256"
				},
				{
					"internalType": "bytes",
					"name": "data",
					"type": "bytes"
				}
			],
			"name": "safeTransferFrom",
			"outputs": [],
			"stateMutability": "nonpayable",
			"type": "function"
		},
		{
			"inputs": [
				{
					"internalType": "address",
					"name": "operator",
					"type": "address"
				},
				{
					"internalType": "bool",
					"name": "approved",
					"type": "bool"
				}
			],
			"name": "setApprovalForAll",
			"outputs": [],
			"stateMutability": "nonpayable",
			"type": "function"
		},
		{
			"inputs": [
				{
					"internalType": "bool",
					"name": "value",
					"type": "bool"
				}
			],
			"name": "setOperatorFilteringEnabled",
			"outputs": [],
			"stateMutability": "nonpayable",
			"type": "function"
		},
		{
			"inputs": [
				{
					"internalType": "string",
					"name": "newuri",
					"type": "string"
				}
			],
			"name": "setURI",
			"outputs": [],
			"stateMutability": "nonpayable",
			"type": "function"
		},
		{
			"inputs": [
				{
					"internalType": "bytes4",
					"name": "interfaceId",
					"type": "bytes4"
				}
			],
			"name": "supportsInterface",
			"outputs": [
				{
					"internalType": "bool",
					"name": "",
					"type": "bool"
				}
			],
			"stateMutability": "view",
			"type": "function"
		},
		{
			"inputs": [],
			"name": "symbol",
			"outputs": [
				{
					"internalType": "string",
					"name": "",
					"type": "string"
				}
			],
			"stateMutability": "view",
			"type": "function"
		},
		{
			"inputs": [
				{
					"internalType": "uint256",
					"name": "id",
					"type": "uint256"
				}
			],
			"name": "totalSupply",
			"outputs": [
				{
					"internalType": "uint256",
					"name": "",
					"type": "uint256"
				}
			],
			"stateMutability": "view",
			"type": "function"
		},
		{
			"inputs": [],
			"name": "unpause",
			"outputs": [],
			"stateMutability": "nonpayable",
			"type": "function"
		},
		{
			"inputs": [
				{
					"internalType": "uint256",
					"name": "amount",
					"type": "uint256"
				}
			],
			"name": "updateMintCharge",
			"outputs": [],
			"stateMutability": "nonpayable",
			"type": "function"
		},
		{
			"inputs": [
				{
					"internalType": "uint256",
					"name": "",
					"type": "uint256"
				}
			],
			"name": "uri",
			"outputs": [
				{
					"internalType": "string",
					"name": "",
					"type": "string"
				}
			],
			"stateMutability": "view",
			"type": "function"
		}
	]
}